{"contracts/SwipeFiCreditV2.sol":{"SwipeFiCreditV2":{"abi":[{"inputs":[{"internalType":"address","name":"_usdcToken","type":"address"}],"stateMutability":"nonpayable","type":"constructor"},{"anonymous":false,"inputs":[{"indexed":true,"internalType":"address","name":"user","type":"address"},{"indexed":false,"internalType":"uint256","name":"limit","type":"uint256"},{"indexed":false,"internalType":"uint256","name":"creditScore","type":"uint256"}],"name":"CreditLimitSet","type":"event"},{"anonymous":false,"inputs":[{"indexed":true,"internalType":"uint256","name":"transactionId","type":"uint256"},{"indexed":true,"internalType":"address","name":"user","type":"address"},{"indexed":false,"internalType":"uint256","name":"amount","type":"uint256"},{"indexed":false,"internalType":"uint256","name":"newBalance","type":"uint256"}],"name":"CreditRepaid","type":"event"},{"anonymous":false,"inputs":[{"indexed":true,"internalType":"address","name":"user","type":"address"},{"indexed":false,"internalType":"uint256","name":"newScore","type":"uint256"},{"indexed":false,"internalType":"uint256","name":"factors","type":"uint256"}],"name":"CreditScoreUpdated","type":"event"},{"anonymous":false,"inputs":[{"indexed":true,"internalType":"uint256","name":"transactionId","type":"uint256"},{"indexed":true,"internalType":"address","name":"user","type":"address"},{"indexed":true,"internalType":"address","name":"merchant","type":"address"},{"indexed":false,"internalType":"uint256","name":"amount","type":"uint256"},{"indexed":false,"internalType":"string","name":"purpose","type":"string"},{"indexed":false,"internalType":"uint256","name":"dueDate","type":"uint256"}],"name":"CreditSpent","type":"event"},{"anonymous":false,"inputs":[{"indexed":true,"internalType":"address","name":"user","type":"address"},{"indexed":false,"internalType":"uint256","name":"amount","type":"uint256"}],"name":"InterestAccrued","type":"event"},{"anonymous":false,"inputs":[{"indexed":true,"internalType":"address","name":"user","type":"address"},{"indexed":false,"internalType":"uint256","name":"amount","type":"uint256"},{"indexed":false,"internalType":"uint256","name":"dueDate","type":"uint256"}],"name":"LateFeeAccrued","type":"event"},{"anonymous":false,"inputs":[{"indexed":true,"internalType":"address","name":"merchant","type":"address"},{"indexed":false,"internalType":"string","name":"name","type":"string"},{"indexed":false,"internalType":"string","name":"category","type":"string"}],"name":"MerchantRegistered","type":"event"},{"anonymous":false,"inputs":[{"indexed":true,"internalType":"address","name":"merchant","type":"address"},{"indexed":false,"internalType":"bool","name":"status","type":"bool"}],"name":"MerchantWhitelisted","type":"event"},{"anonymous":false,"inputs":[{"indexed":true,"internalType":"address","name":"previousOwner","type":"address"},{"indexed":true,"internalType":"address","name":"newOwner","type":"address"}],"name":"OwnershipTransferred","type":"event"},{"anonymous":false,"inputs":[{"indexed":true,"internalType":"address","name":"owner","type":"address"},{"indexed":false,"internalType":"uint256","name":"amount","type":"uint256"}],"name":"Withdrawal","type":"event"},{"inputs":[],"name":"ANNUAL_INTEREST_RATE","outputs":[{"internalType":"uint256","name":"","type":"uint256"}],"stateMutability":"view","type":"function"},{"inputs":[],"name":"LATE_FEE_RATE","outputs":[{"internalType":"uint256","name":"","type":"uint256"}],"stateMutability":"view","type":"function"},{"inputs":[],"name":"MAX_CREDIT_LIMIT","outputs":[{"internalType":"uint256","name":"","type":"uint256"}],"stateMutability":"view","type":"function"},{"inputs":[],"name":"MAX_CREDIT_SCORE","outputs":[{"internalType":"uint256","name":"","type":"uint256"}],"stateMutability":"view","type":"function"},{"inputs":[],"name":"MIN_CREDIT_LIMIT","outputs":[{"internalType":"uint256","name":"","type":"uint256"}],"stateMutability":"view","type":"function"},{"inputs":[],"name":"MIN_CREDIT_SCORE","outputs":[{"internalType":"uint256","name":"","type":"uint256"}],"stateMutability":"view","type":"function"},{"inputs":[],"name":"MIN_PAYMENT_PERCENTAGE","outputs":[{"internalType":"uint256","name":"","type":"uint256"}],"stateMutability":"view","type":"function"},{"inputs":[],"name":"REPAYMENT_PERIOD_DAYS","outputs":[{"internalType":"uint256","name":"","type":"uint256"}],"stateMutability":"view","type":"function"},{"inputs":[{"internalType":"address","name":"user","type":"address"}],"name":"calculateAccruedCharges","outputs":[{"internalType":"uint256","name":"interest","type":"uint256"},{"internalType":"uint256","name":"lateFees","type":"uint256"}],"stateMutability":"view","type":"function"},{"inputs":[{"internalType":"address","name":"","type":"address"}],"name":"creditFactors","outputs":[{"internalType":"uint256","name":"transactionHistory","type":"uint256"},{"internalType":"uint256","name":"paymentHistory","type":"uint256"},{"internalType":"uint256","name":"creditUtilization","type":"uint256"},{"internalType":"uint256","name":"accountAge","type":"uint256"},{"internalType":"uint256","name":"onchainActivity","type":"uint256"}],"stateMutability":"view","type":"function"},{"inputs":[],"name":"getContractStats","outputs":[{"internalType":"uint256","name":"totalUsers","type":"uint256"},{"internalType":"uint256","name":"totalVolume","type":"uint256"},{"internalType":"uint256","name":"totalOutstanding","type":"uint256"},{"internalType":"uint256","name":"totalMerchants","type":"uint256"}],"stateMutability":"view","type":"function"},{"inputs":[{"internalType":"uint256","name":"transactionId","type":"uint256"}],"name":"getTransaction","outputs":[{"components":[{"internalType":"uint256","name":"id","type":"uint256"},{"internalType":"address","name":"user","type":"address"},{"internalType":"address","name":"merchant","type":"address"},{"internalType":"uint256","name":"amount","type":"uint256"},{"internalType":"uint256","name":"timestamp","type":"uint256"},{"internalType":"string","name":"purpose","type":"string"},{"internalType":"bool","name":"isRepayment","type":"bool"},{"internalType":"uint256","name":"dueDate","type":"uint256"},{"internalType":"bool","name":"isPaid","type":"bool"}],"internalType":"struct SwipeFiCreditV2.Transaction","name":"","type":"tuple"}],"stateMutability":"view","type":"function"},{"inputs":[{"internalType":"address","name":"user","type":"address"}],"name":"getUserCreditProfile","outputs":[{"components":[{"internalType":"uint256","name":"maxCreditLimit","type":"uint256"},{"internalType":"uint256","name":"availableCredit","type":"uint256"},{"internalType":"uint256","name":"outstandingBalance","type":"uint256"},{"internalType":"uint256","name":"creditScore","type":"uint256"},{"internalType":"uint256","name":"lastPaymentDate","type":"uint256"},{"internalType":"uint256","name":"lastSpendDate","type":"uint256"},{"internalType":"bool","name":"isActive","type":"bool"},{"internalType":"uint256","name":"totalSpent","type":"uint256"},{"internalType":"uint256","name":"totalRepaid","type":"uint256"},{"internalType":"uint256","name":"lateFeesAccrued","type":"uint256"},{"internalType":"uint256","name":"interestAccrued","type":"uint256"}],"internalType":"struct SwipeFiCreditV2.UserCredit","name":"credit","type":"tuple"},{"internalType":"uint256[]","name":"transactionIds","type":"uint256[]"},{"internalType":"uint256","name":"accruedInterest","type":"uint256"},{"internalType":"uint256","name":"accruedLateFees","type":"uint256"}],"stateMutability":"view","type":"function"},{"inputs":[{"internalType":"address","name":"user","type":"address"}],"name":"getUserTransactions","outputs":[{"internalType":"uint256[]","name":"","type":"uint256[]"}],"stateMutability":"view","type":"function"},{"inputs":[{"internalType":"address","name":"","type":"address"}],"name":"merchants","outputs":[{"internalType":"string","name":"name","type":"string"},{"internalType":"string","name":"category","type":"string"},{"internalType":"bool","name":"isWhitelisted","type":"bool"},{"internalType":"uint256","name":"maxTransactionLimit","type":"uint256"},{"internalType":"uint256","name":"totalVolume","type":"uint256"}],"stateMutability":"view","type":"function"},{"inputs":[],"name":"owner","outputs":[{"internalType":"address","name":"","type":"address"}],"stateMutability":"view","type":"function"},{"inputs":[{"internalType":"address","name":"merchant","type":"address"},{"internalType":"string","name":"name","type":"string"},{"internalType":"string","name":"category","type":"string"},{"internalType":"uint256","name":"maxTransactionLimit","type":"uint256"}],"name":"registerMerchant","outputs":[],"stateMutability":"nonpayable","type":"function"},{"inputs":[],"name":"renounceOwnership","outputs":[],"stateMutability":"nonpayable","type":"function"},{"inputs":[{"internalType":"uint256","name":"amount","type":"uint256"}],"name":"repay","outputs":[],"stateMutability":"nonpayable","type":"function"},{"inputs":[{"internalType":"address","name":"merchant","type":"address"},{"internalType":"bool","name":"status","type":"bool"}],"name":"setMerchantWhitelist","outputs":[],"stateMutability":"nonpayable","type":"function"},{"inputs":[{"internalType":"address","name":"user","type":"address"},{"internalType":"bool","name":"status","type":"bool"}],"name":"setUserCreditStatus","outputs":[],"stateMutability":"nonpayable","type":"function"},{"inputs":[{"internalType":"address","name":"user","type":"address"},{"internalType":"uint256","name":"requestedLimit","type":"uint256"},{"internalType":"uint256","name":"onchainActivity","type":"uint256"}],"name":"setupUserCredit","outputs":[],"stateMutability":"nonpayable","type":"function"},{"inputs":[{"internalType":"address","name":"user","type":"address"},{"internalType":"uint256","name":"amount","type":"uint256"},{"internalType":"string","name":"purpose","type":"string"}],"name":"spend","outputs":[],"stateMutability":"nonpayable","type":"function"},{"inputs":[{"internalType":"uint256","name":"","type":"uint256"}],"name":"transactions","outputs":[{"internalType":"uint256","name":"id","type":"uint256"},{"internalType":"address","name":"user","type":"address"},{"internalType":"address","name":"merchant","type":"address"},{"internalType":"uint256","name":"amount","type":"uint256"},{"internalType":"uint256","name":"timestamp","type":"uint256"},{"internalType":"string","name":"purpose","type":"string"},{"internalType":"bool","name":"isRepayment","type":"bool"},{"internalType":"uint256","name":"dueDate","type":"uint256"},{"internalType":"bool","name":"isPaid","type":"bool"}],"stateMutability":"view","type":"function"},{"inputs":[{"internalType":"address","name":"newOwner","type":"address"}],"name":"transferOwnership","outputs":[],"stateMutability":"nonpayable","type":"function"},{"inputs":[],"name":"usdcToken","outputs":[{"internalType":"contract IERC20","name":"","type":"address"}],"stateMutability":"view","type":"function"},{"inputs":[{"internalType":"address","name":"","type":"address"}],"name":"userCredits","outputs":[{"internalType":"uint256","name":"maxCreditLimit","type":"uint256"},{"internalType":"uint256","name":"availableCredit","type":"uint256"},{"internalType":"uint256","name":"outstandingBalance","type":"uint256"},{"internalType":"uint256","name":"creditScore","type":"uint256"},{"internalType":"uint256","name":"lastPaymentDate","type":"uint256"},{"internalType":"uint256","name":"lastSpendDate","type":"uint256"},{"internalType":"bool","name":"isActive","type":"bool"},{"internalType":"uint256","name":"totalSpent","type":"uint256"},{"internalType":"uint256","name":"totalRepaid","type":"uint256"},{"internalType":"uint256","name":"lateFeesAccrued","type":"uint256"},{"internalType":"uint256","name":"interestAccrued","type":"uint256"}],"stateMutability":"view","type":"function"},{"inputs":[{"internalType":"address","name":"","type":"address"},{"internalType":"uint256","name":"","type":"uint256"}],"name":"userTransactionIds","outputs":[{"internalType":"uint256","name":"","type":"uint256"}],"stateMutability":"view","type":"function"},{"inputs":[],"name":"withdraw","outputs":[],"stateMutability":"nonpayable","type":"function"}],"evm":{"bytecode":{"linkReferences":{},"object":"60a03461011157601f620027e738819003918201601f19168301916001600160401b038311848410176101165780849260209460405283398101031261011157516001600160a01b038082169182900361011157600160008181558154336001600160a01b0319821681179093556040519316907f8be0079c531659141344cd1fd0a4f28419497f9722a3daafe3b4186f6b6457e09080a381156100cf57506080526040516126ba90816200012d8239608051818181610ffd015281816115180152818161173e0152611dd50152f35b62461bcd60e51b815260206004820152601460248201527f496e76616c6964205553444320616464726573730000000000000000000000006044820152606490fd5b600080fd5b634e487b7160e01b600052604160045260246000fdfe6080604052600436101561001257600080fd5b60003560e01c80630a49cf4d14611e2157806311661e3e14611e0457806311eac85514611dbf57806320babb9214611d1157806322b16a7014611cf157806333ea3dc814611b95578063371fd8e6146116875780633ccfd60b146114e0578063462270371461148857806354203e091461146b57806356077675146114665780636b0ad6fe146112ba5780636e3f576414610cf6578063715018a614610c995780638da5cb5b14610c705780639712c91b14610b9b578063983c82ab14610b565780639ace38c214610aa5578063a2f7c70d14610a3f578063b678339314610a22578063b8e77d7b146105b3578063c938dafc14610594578063dfe6b5d614610563578063e8186e5614610534578063eaabf09314610329578063ee14e93914610292578063ef92539914610240578063f2fde38b1461017c5763ff9d2e271461015b57600080fd5b34610177576000366003190112610177576020604051601e8152f35b600080fd5b3461017757602036600319011261017757610195611e3e565b61019d61208b565b6001600160a01b039081169081156101ec57600154826001600160601b0360a01b821617600155167f8be0079c531659141344cd1fd0a4f28419497f9722a3daafe3b4186f6b6457e0600080a3005b60405162461bcd60e51b815260206004820152602660248201527f4f776e61626c653a206e6577206f776e657220697320746865207a65726f206160448201526564647265737360d01b6064820152608490fd5b34610177576020366003190112610177576001600160a01b03610261611e3e565b16600052600560205261028e61027a60406000206122fa565b604051918291602083526020830190611ec2565b0390f35b34610177576020366003190112610177576001600160a01b036102b3611e3e565b16600052600460205261030560406000206102cd81611fe5565b906102da60018201611fe5565b60ff60028301541691610313600460038301549201549260405196879660a0885260a0880190611e54565b908682036020880152611e54565b9215156040850152606084015260808301520390f35b3461017757606036600319011261017757610342611e3e565b60243561034d61208b565b6001600160a01b0382169182156104f8576305f5e10082106104bd5764174876e8008211610482577f9041c75488c26967b7ff124314a3051af63a1580f92c595ba3e93a83ad82799e916103b06103a9604093604435906124c2565b8092612613565b9082516103bc81611fa8565b828152600a8660208301858152868401600081526060850186815261045f6080870142815260a088016000815260c08901916001835260e08a0194600086526101008b0196600088526101208c019860008a526101408d019a60008c5260005260026020528f6000209c518d555160018d01555160028c01555160038b01555160048a0155516005890155511515600688019060ff801983541691151516179055565b5160078601555160088501555160098401555191015582519182526020820152a2005b60405162461bcd60e51b81526020600482015260136024820152724c696d69742061626f7665206d6178696d756d60681b6044820152606490fd5b60405162461bcd60e51b81526020600482015260136024820152724c696d69742062656c6f77206d696e696d756d60681b6044820152606490fd5b60405162461bcd60e51b8152602060048201526014602482015273496e76616c69642075736572206164647265737360601b6044820152606490fd5b34610177576020366003190112610177576040610557610552611e3e565b612349565b82519182526020820152f35b3461017757600036600319011261017757608060405160008152600060208201526000604082015260006060820152f35b346101775760003660031901126101775760206040516305f5e1008152f35b34610177576080366003190112610177576105cc611e3e565b6024356001600160401b038111610177576105eb903690600401611ef6565b91906044356001600160401b0381116101775761060c903690600401611ef6565b93909261061761208b565b6001600160a01b038116156109dd57811561099f576040519460a086018681106001600160401b038211176108c25760405261065436848661219b565b865261066136828761219b565b60208701526000604087015260643560608701526000608087015260018060a01b0382166000526004602052604060002086518051906001600160401b0382116108c25781906106b18454611f52565b601f811161094f575b50602090601f83116001146108e3576000926108d8575b50508160011b916000199060031b1c19161781555b60208701519687516001600160401b0381116108c2576107096001840154611f52565b601f811161087b575b506020601f82116001146107df576107cf95949392826004936080937f7476726b1d8882ab8352f5af9fb6c3dfab81c79b6a107ef114d5472393a759539c9d6000926107d4575b50508160011b916000199060031b1c19161760018501555b61079060408201511515600286019060ff801983541691151516179055565b6060810151600385015501519101556107b6604051958695604087526040870191612283565b84810360208601526001600160a01b0390921696612283565b0390a2005b015190508d80610759565b6001840160005260206000209960005b601f19841681106108635750926001837f7476726b1d8882ab8352f5af9fb6c3dfab81c79b6a107ef114d5472393a759539b9c6080946107cf9a999897600497601f1981161061084a575b505050811b016001850155610771565b015160001960f88460031b161c191690558d808061083a565b828201518c556001909b019a602092830192016107ef565b600184016000526020600020601f830160051c8101602084106108bb575b601f830160051c820181106108af575050610712565b60008155600101610899565b5080610899565b634e487b7160e01b600052604160045260246000fd5b0151905089806106d1565b9250836000526020600020906000935b601f1984168510610934576001945083601f1981161061091b575b505050811b0181556106e6565b015160001960f88460031b161c1916905589808061090e565b818101518355602094850194600190930192909101906108f3565b909150836000526020600020601f840160051c810160208510610998575b90849392915b601f830160051c820181106109895750506106ba565b60008155859450600101610973565b508061096d565b60405162461bcd60e51b815260206004820152601660248201527513595c98da185b9d081b985b59481c995c5d5a5c995960521b6044820152606490fd5b60405162461bcd60e51b815260206004820152601860248201527f496e76616c6964206d65726368616e74206164647265737300000000000000006044820152606490fd5b346101775760003660031901126101775760206040516105dc8152f35b34610177576020366003190112610177576001600160a01b03610a60611e3e565b16600052600660205260a06040600020805490600181015490600281015460046003830154920154926040519485526020850152604084015260608301526080820152f35b346101775760203660031901126101775760043560005260036020526040600020805460018060a01b03918260018201541692600282015416600382015491610b3d6004820154610af860058401611fe5565b9060ff6006850154169560ff600860078701549601541695604051998a998a5260208a01526040890152606088015260808701526101208060a0880152860190611e54565b92151560c085015260e084015215156101008301520390f35b3461017757610b99610b6736611f23565b90610b7061208b565b60018060a01b0316600052600260205260066040600020019060ff801983541691151516179055565b005b3461017757610ba936611f23565b90610bb261208b565b60018060a01b031690816000526004602052610bd2604060002054611f52565b15610c2b5760207ff9695fa7a4a836707ecab51a8a8622de8e7ff1c77a40da1935e9cdbd4260ce30918360005260048252610c208160026040600020019060ff801983541691151516179055565b6040519015158152a2005b60405162461bcd60e51b815260206004820152601760248201527f4d65726368616e74206e6f7420726567697374657265640000000000000000006044820152606490fd5b34610177576000366003190112610177576001546040516001600160a01b039091168152602090f35b3461017757600036600319011261017757610cb261208b565b600180546001600160a01b031981169091556000906001600160a01b03167f8be0079c531659141344cd1fd0a4f28419497f9722a3daafe3b4186f6b6457e08280a3005b3461017757606036600319011261017757610d0f611e3e565b6044356001600160401b03811161017757610d2e903690600401611ef6565b9033600052600460205260ff6002604060002001541615611275576001600160a01b03831660009081526002602052604090206006015460ff161561123757610d7a60243515156120e3565b610d8d64174876e800602435111561212f565b610d956122a4565b60018060a01b038316600052600260205260406000209033600052600460205260406000206024356001840154106111fc576003810154602435116111be57600160075401928360075562278d00420142116111a857604051610df781611f8c565b8481526001600160a01b03871660208201523360408201526024356060820152426080820152610e2836878661219b565b60a0820152600060c082015262278d00420160e08201526000610100820152846000526003602052604060002090805182556001820160018060a01b03602083015116906001600160601b0360a01b9182825416179055600283019060018060a01b0360408401511690825416179055606081015160038301556080810151600483015560a08101518051906001600160401b0382116108c257610ecf6005850154611f52565b601f8111611161575b50602090601f83116001146110e157610100600497969484610f5a95600798956008956000926110d6575b50508160011b916000199060031b1c19161760058501555b610f3a60c08201511515600686019060ff801983541691151516179055565b60e0810151878501550151151591019060ff801983541691151516179055565b60018060a01b0388166000526005602052610f798660406000206121e1565b610f89602435600183015461221b565b600182015560028101610f9f602435825461218e565b905542600582015501610fb5602435825461218e565b905501610fc5602435825461218e565b90556040516323b872dd60e01b8152306004820152336024808301919091523560448201529060208260648160006001600160a01b037f0000000000000000000000000000000000000000000000000000000000000000165af19081156110ca5761105d611077927f87633ab4fb83fef5210b0f0f5c0f47a9c83c5814afe830436eceba6c746897849460009161109b575b50612240565b604051946024358652606060208701526060860191612283565b4262278d0001604085015233946001600160a01b0316939081900390a46001600055005b6110bd915060203d6020116110c3575b6110b58183611fc4565b810190612228565b88611057565b503d6110ab565b6040513d6000823e3d90fd5b015190508f80610f03565b906005850160005260206000209160005b601f1985168110611149575060049796946001856007989560089561010095610f5a99601f19811610611130575b505050811b016005850155610f1b565b015160001960f88460031b161c191690558f8080611120565b919260206001819286850151815501940192016110f2565b600585016000526020600020601f840160051c8101602085106111a1575b601f830160051c82018110611195575050610ed8565b6000815560010161117f565b508061117f565b634e487b7160e01b600052601160045260246000fd5b60405162461bcd60e51b8152602060048201526016602482015275115e18d959591cc81b595c98da185b9d081b1a5b5a5d60521b6044820152606490fd5b60405162461bcd60e51b8152602060048201526013602482015272125b9cdd59999a58da595b9d0818dc99591a5d606a1b6044820152606490fd5b60405162461bcd60e51b81526020600482015260166024820152755573657220637265646974206e6f742061637469766560501b6044820152606490fd5b60405162461bcd60e51b815260206004820152601860248201527f4d65726368616e74206e6f742077686974656c697374656400000000000000006044820152606490fd5b34610177576020366003190112610177576101406112d6611e3e565b6000826040516112e581611fa8565b8281528260208201528260408201528260608201528260808201528260a08201528260c08201528260e08201528261010082015282610120820152015261132b81612349565b9160018060a01b0316600052600260205260406000209160056020526114556113d16040600020600a6040519661136188611fa8565b8054885260018101546020890152600281015460408901526003810154606089015260048101546080890152600581015460a089015260ff600682015416151560c0890152600781015460e0890152600881015461010089015260098101546101208901520154878701526122fa565b604051958587965187526020810151602088015260408101516040880152606081015160608801526080810151608088015260a081015160a088015260c0810151151560c088015260e081015160e088015261010081015161010088015261012081015161012088015201516101408601526101c080610160870152850190611ec2565b916101808401526101a08301520390f35b611e21565b346101775760003660031901126101775760206040516103528152f35b34610177576040366003190112610177576114a1611e3e565b6001600160a01b0316600090815260056020526040902080546024359190821015610177576020916114d291611e94565b90546040519160031b1c8152f35b34610177576000366003190112610177576114f961208b565b6040516370a0823160e01b815230600482015260206001600160a01b037f000000000000000000000000000000000000000000000000000000000000000081168284602481845afa9384156110ca57600094611658575b50831561161d578260009160448460015416604051948593849263a9059cbb60e01b845260048401528960248401525af19081156110ca57600091611600575b50156115c757907f7fcf532c15f0a6db0bd6d0e038bea71d30d808c7d98cb3bf7268a95bf5081b65916001541692604051908152a2005b60405162461bcd60e51b815260048101839052601160248201527015da5d1a191c985dd85b0819985a5b1959607a1b6044820152606490fd5b6116179150833d85116110c3576110b58183611fc4565b84611590565b60405162461bcd60e51b81526004810184905260136024820152724e6f205553444320746f20776974686472617760681b6044820152606490fd5b9093508281813d8311611680575b6116708183611fc4565b8101031261017757519284611550565b503d611666565b34610177576020366003190112610177576116a560043515156120e3565b6116b864174876e800600435111561212f565b6116c06122a4565b336000526002602052604060002060ff60068201541615611b5c57600435600282015410611b1757611738602061170b6117066116fc33612349565b919060043561218e565b61218e565b6040516323b872dd60e01b8152336004820152306024820152604481019190915291829081906064820190565b038160007f00000000000000000000000000000000000000000000000000000000000000006001600160a01b03165af180156110ca5761177f91600091611af85750612240565b600160075401908160075560405161179681611f8c565b8281523360208201526000604082015260043560608201524260808201526040518060408101106001600160401b036040830111176108c25760408101604052601081526f10dc99591a5d0814995c185e5b595b9d60821b602082015260a0820152600160c0820152600060e08201526001610100820152826000526003602052604060002090805182556001820160018060a01b03602083015116906001600160601b0360a01b9182825416179055600283019060018060a01b0360408401511690825416179055606081015160038301556080810151600483015560a08101518051906001600160401b0382116108c2576118966005850154611f52565b601f8111611ab1575b50602090601f8311600114611a345761191f9383600297969460089461010094600092611a29575b50508160011b916000199060031b1c19161760058501555b6118fe60c08201511515600686019060ff801983541691151516179055565b60e081015160078501550151151591019060ff801983541691151516179055565b3360005260056020526119368360406000206121e1565b6119456004358383015461221b565b828201556001810161195a600435825461218e565b905542600482015560088101611973600435825461218e565b90556000600a8201556000600982015533600052816020526040600020600781015460036119a182336124c2565b9201805483036119ed575b50505001549060405191600435835260208301527fb3dc754e3cd0adca79aedb0cf9cbcada6b0ed980dbb9d384b635f283985b968760403393a36001600055005b82905560405191825260208201527f4f43648f37bc26ee5bc39c60c1c1e2481a9fb9feb9f86419c91b4645585ff3bc60403392a28380806119ac565b015190508a806118c7565b906005850160005260206000209160005b601f1985168110611a995750936001846008946101009461191f9860029b9a98601f19811610611a80575b505050811b0160058501556118df565b015160001960f88460031b161c191690558a8080611a70565b91926020600181928685015181550194019201611a45565b600585016000526020600020601f840160051c810160208510611af1575b601f830160051c82018110611ae557505061189f565b60008155600101611acf565b5080611acf565b611b11915060203d6020116110c3576110b58183611fc4565b83611057565b60405162461bcd60e51b815260206004820152601c60248201527f526570617920616d6f756e7420657863656564732062616c616e6365000000006044820152606490fd5b60405162461bcd60e51b8152602060048201526011602482015270437265646974206e6f742061637469766560781b6044820152606490fd5b34610177576020806003193601126101775760405190611bb482611f8c565b60008252600081830152600060408301526000606083015260006080830152606060a0830152600060c0830152600060e08301526000610100809301526004356000526003815260406000206040518093611c0e82611f8c565b8254825260018301546001600160a01b039081168584019081526002850154821660408501908152600386015460608601908152600487015460808701908152929493919291611c6060058901611fe5565b9360a088019485528160ff60088160068d0154169b60c08c019c15158d5260e060078201549c019b8c5201541697878d0198151589528b6040519d8e9d8e5251908d0152511660408b0152511660608901525160808801525160a08701525192611cd8610120948560c0890152610140880190611e54565b9451151560e08701525190850152511515908301520390f35b3461017757600036600319011261017757602060405164174876e8008152f35b34610177576020366003190112610177576001600160a01b03611d32611e3e565b1660005260026020526101606040600020805490600181015490600281015460038201546004830154600584015460ff60068601541691600786015493600887015495600a6009890154980154986040519a8b5260208b015260408a01526060890152608088015260a0870152151560c086015260e0850152610100840152610120830152610140820152f35b34610177576000366003190112610177576040517f00000000000000000000000000000000000000000000000000000000000000006001600160a01b03168152602090f35b346101775760003660031901126101775760206040516101f48152f35b3461017757600036600319011261017757602060405161012c8152f35b600435906001600160a01b038216820361017757565b919082519283825260005b848110611e80575050826000602080949584010152601f8019910116010190565b602081830181015184830182015201611e5f565b8054821015611eac5760005260206000200190600090565b634e487b7160e01b600052603260045260246000fd5b90815180825260208080930193019160005b828110611ee2575050505090565b835185529381019392810192600101611ed4565b9181601f84011215610177578235916001600160401b038311610177576020838186019501011161017757565b6040906003190112610177576004356001600160a01b0381168103610177579060243580151581036101775790565b90600182811c92168015611f82575b6020831014611f6c57565b634e487b7160e01b600052602260045260246000fd5b91607f1691611f61565b61012081019081106001600160401b038211176108c257604052565b61016081019081106001600160401b038211176108c257604052565b90601f801991011681019081106001600160401b038211176108c257604052565b9060405191826000825492611ff984611f52565b9081845260019485811690816000146120685750600114612025575b505061202392500383611fc4565b565b9093915060005260209081600020936000915b81831061205057505061202393508201013880612015565b85548884018501529485019487945091830191612038565b91505061202394506020925060ff191682840152151560051b8201013880612015565b6001546001600160a01b0316330361209f57565b606460405162461bcd60e51b815260206004820152602060248201527f4f776e61626c653a2063616c6c6572206973206e6f7420746865206f776e65726044820152fd5b156120ea57565b60405162461bcd60e51b815260206004820152601d60248201527f416d6f756e74206d7573742062652067726561746572207468616e20300000006044820152606490fd5b1561213657565b60405162461bcd60e51b815260206004820152601c60248201527f416d6f756e742065786365656473206d6178696d756d206c696d6974000000006044820152606490fd5b818102929181159184041417156111a857565b919082018092116111a857565b9291926001600160401b0382116108c257604051916121c4601f8201601f191660200184611fc4565b829481845281830111610177578281602093846000960137010152565b8054680100000000000000008110156108c25761220391600182018155611e94565b819291549060031b91821b91600019901b1916179055565b919082039182116111a857565b90816020910312610177575180151581036101775790565b1561224757565b60405162461bcd60e51b81526020600482015260146024820152731554d110c81d1c985b9cd9995c8819985a5b195960621b6044820152606490fd5b908060209392818452848401376000828201840152601f01601f1916010190565b6002600054146122b5576002600055565b60405162461bcd60e51b815260206004820152601f60248201527f5265656e7472616e637947756172643a207265656e7472616e742063616c6c006044820152606490fd5b9060405191828154918282526020928383019160005283600020936000905b82821061232f5750505061202392500383611fc4565b855484526001958601958895509381019390910190612319565b6000809160018060a01b031690818352602091600283526040928385209360028501549283156124b7579061238c9291600480970154620151809485914261221b565b04948060021b90810488036124a4576123a961271096879261217b565b0490885260058084526123bd838a206122fa565b91895b8351811015612496578581841b850101518b526003808752858c209060ff80600684015416159081612487575b508061247a575b61241f575b5050600019811461240c576001016123c0565b634e487b7160e01b8b5260118a5260248bfd5b886124316007849d959d01544261221b565b049101546101f4908181029181830414901517156124675761245861245f93928b9261217b565b049061218e565b9738806123f9565b634e487b7160e01b8d5260118c5260248dfd5b50600782015442116123f4565b905060088301541615386123ed565b509997505050505050509150565b634e487b7160e01b895260118852602489fd5b505050505050908190565b6101f4916103e88111156125e657509060c881018091116111a857905b6001600160a01b031660009081526002602052604081206007810154908115908115612531575b5050505061012c808210612529575b50610352808211612524575090565b905090565b905038612515565b60080154906064820291808304606414901517156125d2576125be5704605f81111561258257506064820180921161256e57505b38808080612506565b634e487b7160e01b81526011600452602490fd5b605081111561259d57506032820180921161256e5750612565565b6032116125ab575b50612565565b606319820191821161256e5750386125a5565b634e487b7160e01b83526012600452602483fd5b634e487b7160e01b84526011600452602484fd5b82811115612601575090606481018091116111a857906124df565b606410156124df5761022691506124df565b906102ee8110156126805761028a81101561266557610226111561264b576028810290808204602814901517156111a8576064900490565b603c810290808204603c14901517156111a8576064900490565b506050810290808204605014901517156111a8576064900490565b509056fea2646970667358221220a002f6673db06390479bc7e564b41f8db65c60826b7c57cb8711362ca25c67a464736f6c63430008140033","opcodes":"PUSH1 0xA0 CALLVALUE PUSH2 0x111 JUMPI PUSH1 0x1F PUSH3 0x27E7 CODESIZE DUP2 SWAP1 SUB SWAP2 DUP3 ADD PUSH1 0x1F NOT AND DUP4 ADD SWAP2 PUSH1 0x1 PUSH1 0x1 PUSH1 0x40 SHL SUB DUP4 GT DUP5 DUP5 LT OR PUSH2 0x116 JUMPI DUP1 DUP5 SWAP3 PUSH1 0x20 SWAP5 PUSH1 0x40 MSTORE DUP4 CODECOPY DUP2 ADD SUB SLT PUSH2 0x111 JUMPI MLOAD PUSH1 0x1 PUSH1 0x1 PUSH1 0xA0 SHL SUB DUP1 DUP3 AND SWAP2 DUP3 SWAP1 SUB PUSH2 0x111 JUMPI PUSH1 0x1 PUSH1 0x0 DUP2 DUP2 SSTORE DUP2 SLOAD CALLER PUSH1 0x1 PUSH1 0x1 PUSH1 0xA0 SHL SUB NOT DUP3 AND DUP2 OR SWAP1 SWAP4 SSTORE PUSH1 0x40 MLOAD SWAP4 AND SWAP1 PUSH32 0x8BE0079C531659141344CD1FD0A4F28419497F9722A3DAAFE3B4186F6B6457E0 SWAP1 DUP1 LOG3 DUP2 ISZERO PUSH2 0xCF JUMPI POP PUSH1 0x80 MSTORE PUSH1 0x40 MLOAD PUSH2 0x26BA SWAP1 DUP2 PUSH3 0x12D DUP3 CODECOPY PUSH1 0x80 MLOAD DUP2 DUP2 DUP2 PUSH2 0xFFD ADD MSTORE DUP2 DUP2 PUSH2 0x1518 ADD MSTORE DUP2 DUP2 PUSH2 0x173E ADD MSTORE PUSH2 0x1DD5 ADD MSTORE RETURN JUMPDEST PUSH3 0x461BCD PUSH1 0xE5 SHL DUP2 MSTORE PUSH1 0x20 PUSH1 0x4 DUP3 ADD MSTORE PUSH1 0x14 PUSH1 0x24 DUP3 ADD MSTORE PUSH32 0x496E76616C696420555344432061646472657373000000000000000000000000 PUSH1 0x44 DUP3 ADD MSTORE PUSH1 0x64 SWAP1 REVERT JUMPDEST PUSH1 0x0 DUP1 REVERT JUMPDEST PUSH4 0x4E487B71 PUSH1 0xE0 SHL PUSH1 0x0 MSTORE PUSH1 0x41 PUSH1 0x4 MSTORE PUSH1 0x24 PUSH1 0x0 REVERT INVALID PUSH1 0x80 PUSH1 0x40 MSTORE PUSH1 0x4 CALLDATASIZE LT ISZERO PUSH2 0x12 JUMPI PUSH1 0x0 DUP1 REVERT JUMPDEST PUSH1 0x0 CALLDATALOAD PUSH1 0xE0 SHR DUP1 PUSH4 0xA49CF4D EQ PUSH2 0x1E21 JUMPI DUP1 PUSH4 0x11661E3E EQ PUSH2 0x1E04 JUMPI DUP1 PUSH4 0x11EAC855 EQ PUSH2 0x1DBF JUMPI DUP1 PUSH4 0x20BABB92 EQ PUSH2 0x1D11 JUMPI DUP1 PUSH4 0x22B16A70 EQ PUSH2 0x1CF1 JUMPI DUP1 PUSH4 0x33EA3DC8 EQ PUSH2 0x1B95 JUMPI DUP1 PUSH4 0x371FD8E6 EQ PUSH2 0x1687 JUMPI DUP1 PUSH4 0x3CCFD60B EQ PUSH2 0x14E0 JUMPI DUP1 PUSH4 0x46227037 EQ PUSH2 0x1488 JUMPI DUP1 PUSH4 0x54203E09 EQ PUSH2 0x146B JUMPI DUP1 PUSH4 0x56077675 EQ PUSH2 0x1466 JUMPI DUP1 PUSH4 0x6B0AD6FE EQ PUSH2 0x12BA JUMPI DUP1 PUSH4 0x6E3F5764 EQ PUSH2 0xCF6 JUMPI DUP1 PUSH4 0x715018A6 EQ PUSH2 0xC99 JUMPI DUP1 PUSH4 0x8DA5CB5B EQ PUSH2 0xC70 JUMPI DUP1 PUSH4 0x9712C91B EQ PUSH2 0xB9B JUMPI DUP1 PUSH4 0x983C82AB EQ PUSH2 0xB56 JUMPI DUP1 PUSH4 0x9ACE38C2 EQ PUSH2 0xAA5 JUMPI DUP1 PUSH4 0xA2F7C70D EQ PUSH2 0xA3F JUMPI DUP1 PUSH4 0xB6783393 EQ PUSH2 0xA22 JUMPI DUP1 PUSH4 0xB8E77D7B EQ PUSH2 0x5B3 JUMPI DUP1 PUSH4 0xC938DAFC EQ PUSH2 0x594 JUMPI DUP1 PUSH4 0xDFE6B5D6 EQ PUSH2 0x563 JUMPI DUP1 PUSH4 0xE8186E56 EQ PUSH2 0x534 JUMPI DUP1 PUSH4 0xEAABF093 EQ PUSH2 0x329 JUMPI DUP1 PUSH4 0xEE14E939 EQ PUSH2 0x292 JUMPI DUP1 PUSH4 0xEF925399 EQ PUSH2 0x240 JUMPI DUP1 PUSH4 0xF2FDE38B EQ PUSH2 0x17C JUMPI PUSH4 0xFF9D2E27 EQ PUSH2 0x15B JUMPI PUSH1 0x0 DUP1 REVERT JUMPDEST CALLVALUE PUSH2 0x177 JUMPI PUSH1 0x0 CALLDATASIZE PUSH1 0x3 NOT ADD SLT PUSH2 0x177 JUMPI PUSH1 0x20 PUSH1 0x40 MLOAD PUSH1 0x1E DUP2 MSTORE RETURN JUMPDEST PUSH1 0x0 DUP1 REVERT JUMPDEST CALLVALUE PUSH2 0x177 JUMPI PUSH1 0x20 CALLDATASIZE PUSH1 0x3 NOT ADD SLT PUSH2 0x177 JUMPI PUSH2 0x195 PUSH2 0x1E3E JUMP JUMPDEST PUSH2 0x19D PUSH2 0x208B JUMP JUMPDEST PUSH1 0x1 PUSH1 0x1 PUSH1 0xA0 SHL SUB SWAP1 DUP2 AND SWAP1 DUP2 ISZERO PUSH2 0x1EC JUMPI PUSH1 0x1 SLOAD DUP3 PUSH1 0x1 PUSH1 0x1 PUSH1 0x60 SHL SUB PUSH1 0xA0 SHL DUP3 AND OR PUSH1 0x1 SSTORE AND PUSH32 0x8BE0079C531659141344CD1FD0A4F28419497F9722A3DAAFE3B4186F6B6457E0 PUSH1 0x0 DUP1 LOG3 STOP JUMPDEST PUSH1 0x40 MLOAD PUSH3 0x461BCD PUSH1 0xE5 SHL DUP2 MSTORE PUSH1 0x20 PUSH1 0x4 DUP3 ADD MSTORE PUSH1 0x26 PUSH1 0x24 DUP3 ADD MSTORE PUSH32 0x4F776E61626C653A206E6577206F776E657220697320746865207A65726F2061 PUSH1 0x44 DUP3 ADD MSTORE PUSH6 0x646472657373 PUSH1 0xD0 SHL PUSH1 0x64 DUP3 ADD MSTORE PUSH1 0x84 SWAP1 REVERT JUMPDEST CALLVALUE PUSH2 0x177 JUMPI PUSH1 0x20 CALLDATASIZE PUSH1 0x3 NOT ADD SLT PUSH2 0x177 JUMPI PUSH1 0x1 PUSH1 0x1 PUSH1 0xA0 SHL SUB PUSH2 0x261 PUSH2 0x1E3E JUMP JUMPDEST AND PUSH1 0x0 MSTORE PUSH1 0x5 PUSH1 0x20 MSTORE PUSH2 0x28E PUSH2 0x27A PUSH1 0x40 PUSH1 0x0 KECCAK256 PUSH2 0x22FA JUMP JUMPDEST PUSH1 0x40 MLOAD SWAP2 DUP3 SWAP2 PUSH1 0x20 DUP4 MSTORE PUSH1 0x20 DUP4 ADD SWAP1 PUSH2 0x1EC2 JUMP JUMPDEST SUB SWAP1 RETURN JUMPDEST CALLVALUE PUSH2 0x177 JUMPI PUSH1 0x20 CALLDATASIZE PUSH1 0x3 NOT ADD SLT PUSH2 0x177 JUMPI PUSH1 0x1 PUSH1 0x1 PUSH1 0xA0 SHL SUB PUSH2 0x2B3 PUSH2 0x1E3E JUMP JUMPDEST AND PUSH1 0x0 MSTORE PUSH1 0x4 PUSH1 0x20 MSTORE PUSH2 0x305 PUSH1 0x40 PUSH1 0x0 KECCAK256 PUSH2 0x2CD DUP2 PUSH2 0x1FE5 JUMP JUMPDEST SWAP1 PUSH2 0x2DA PUSH1 0x1 DUP3 ADD PUSH2 0x1FE5 JUMP JUMPDEST PUSH1 0xFF PUSH1 0x2 DUP4 ADD SLOAD AND SWAP2 PUSH2 0x313 PUSH1 0x4 PUSH1 0x3 DUP4 ADD SLOAD SWAP3 ADD SLOAD SWAP3 PUSH1 0x40 MLOAD SWAP7 DUP8 SWAP7 PUSH1 0xA0 DUP9 MSTORE PUSH1 0xA0 DUP9 ADD SWAP1 PUSH2 0x1E54 JUMP JUMPDEST SWAP1 DUP7 DUP3 SUB PUSH1 0x20 DUP9 ADD MSTORE PUSH2 0x1E54 JUMP JUMPDEST SWAP3 ISZERO ISZERO PUSH1 0x40 DUP6 ADD MSTORE PUSH1 0x60 DUP5 ADD MSTORE PUSH1 0x80 DUP4 ADD MSTORE SUB SWAP1 RETURN JUMPDEST CALLVALUE PUSH2 0x177 JUMPI PUSH1 0x60 CALLDATASIZE PUSH1 0x3 NOT ADD SLT PUSH2 0x177 JUMPI PUSH2 0x342 PUSH2 0x1E3E JUMP JUMPDEST PUSH1 0x24 CALLDATALOAD PUSH2 0x34D PUSH2 0x208B JUMP JUMPDEST PUSH1 0x1 PUSH1 0x1 PUSH1 0xA0 SHL SUB DUP3 AND SWAP2 DUP3 ISZERO PUSH2 0x4F8 JUMPI PUSH4 0x5F5E100 DUP3 LT PUSH2 0x4BD JUMPI PUSH5 0x174876E800 DUP3 GT PUSH2 0x482 JUMPI PUSH32 0x9041C75488C26967B7FF124314A3051AF63A1580F92C595BA3E93A83AD82799E SWAP2 PUSH2 0x3B0 PUSH2 0x3A9 PUSH1 0x40 SWAP4 PUSH1 0x44 CALLDATALOAD SWAP1 PUSH2 0x24C2 JUMP JUMPDEST DUP1 SWAP3 PUSH2 0x2613 JUMP JUMPDEST SWAP1 DUP3 MLOAD PUSH2 0x3BC DUP2 PUSH2 0x1FA8 JUMP JUMPDEST DUP3 DUP2 MSTORE PUSH1 0xA DUP7 PUSH1 0x20 DUP4 ADD DUP6 DUP2 MSTORE DUP7 DUP5 ADD PUSH1 0x0 DUP2 MSTORE PUSH1 0x60 DUP6 ADD DUP7 DUP2 MSTORE PUSH2 0x45F PUSH1 0x80 DUP8 ADD TIMESTAMP DUP2 MSTORE PUSH1 0xA0 DUP9 ADD PUSH1 0x0 DUP2 MSTORE PUSH1 0xC0 DUP10 ADD SWAP2 PUSH1 0x1 DUP4 MSTORE PUSH1 0xE0 DUP11 ADD SWAP5 PUSH1 0x0 DUP7 MSTORE PUSH2 0x100 DUP12 ADD SWAP7 PUSH1 0x0 DUP9 MSTORE PUSH2 0x120 DUP13 ADD SWAP9 PUSH1 0x0 DUP11 MSTORE PUSH2 0x140 DUP14 ADD SWAP11 PUSH1 0x0 DUP13 MSTORE PUSH1 0x0 MSTORE PUSH1 0x2 PUSH1 0x20 MSTORE DUP16 PUSH1 0x0 KECCAK256 SWAP13 MLOAD DUP14 SSTORE MLOAD PUSH1 0x1 DUP14 ADD SSTORE MLOAD PUSH1 0x2 DUP13 ADD SSTORE MLOAD PUSH1 0x3 DUP12 ADD SSTORE MLOAD PUSH1 0x4 DUP11 ADD SSTORE MLOAD PUSH1 0x5 DUP10 ADD SSTORE MLOAD ISZERO ISZERO PUSH1 0x6 DUP9 ADD SWAP1 PUSH1 0xFF DUP1 NOT DUP4 SLOAD AND SWAP2 ISZERO ISZERO AND OR SWAP1 SSTORE JUMP JUMPDEST MLOAD PUSH1 0x7 DUP7 ADD SSTORE MLOAD PUSH1 0x8 DUP6 ADD SSTORE MLOAD PUSH1 0x9 DUP5 ADD SSTORE MLOAD SWAP2 ADD SSTORE DUP3 MLOAD SWAP2 DUP3 MSTORE PUSH1 0x20 DUP3 ADD MSTORE LOG2 STOP JUMPDEST PUSH1 0x40 MLOAD PUSH3 0x461BCD PUSH1 0xE5 SHL DUP2 MSTORE PUSH1 0x20 PUSH1 0x4 DUP3 ADD MSTORE PUSH1 0x13 PUSH1 0x24 DUP3 ADD MSTORE PUSH19 0x4C696D69742061626F7665206D6178696D756D PUSH1 0x68 SHL PUSH1 0x44 DUP3 ADD MSTORE PUSH1 0x64 SWAP1 REVERT JUMPDEST PUSH1 0x40 MLOAD PUSH3 0x461BCD PUSH1 0xE5 SHL DUP2 MSTORE PUSH1 0x20 PUSH1 0x4 DUP3 ADD MSTORE PUSH1 0x13 PUSH1 0x24 DUP3 ADD MSTORE PUSH19 0x4C696D69742062656C6F77206D696E696D756D PUSH1 0x68 SHL PUSH1 0x44 DUP3 ADD MSTORE PUSH1 0x64 SWAP1 REVERT JUMPDEST PUSH1 0x40 MLOAD PUSH3 0x461BCD PUSH1 0xE5 SHL DUP2 MSTORE PUSH1 0x20 PUSH1 0x4 DUP3 ADD MSTORE PUSH1 0x14 PUSH1 0x24 DUP3 ADD MSTORE PUSH20 0x496E76616C696420757365722061646472657373 PUSH1 0x60 SHL PUSH1 0x44 DUP3 ADD MSTORE PUSH1 0x64 SWAP1 REVERT JUMPDEST CALLVALUE PUSH2 0x177 JUMPI PUSH1 0x20 CALLDATASIZE PUSH1 0x3 NOT ADD SLT PUSH2 0x177 JUMPI PUSH1 0x40 PUSH2 0x557 PUSH2 0x552 PUSH2 0x1E3E JUMP JUMPDEST PUSH2 0x2349 JUMP JUMPDEST DUP3 MLOAD SWAP2 DUP3 MSTORE PUSH1 0x20 DUP3 ADD MSTORE RETURN JUMPDEST CALLVALUE PUSH2 0x177 JUMPI PUSH1 0x0 CALLDATASIZE PUSH1 0x3 NOT ADD SLT PUSH2 0x177 JUMPI PUSH1 0x80 PUSH1 0x40 MLOAD PUSH1 0x0 DUP2 MSTORE PUSH1 0x0 PUSH1 0x20 DUP3 ADD MSTORE PUSH1 0x0 PUSH1 0x40 DUP3 ADD MSTORE PUSH1 0x0 PUSH1 0x60 DUP3 ADD MSTORE RETURN JUMPDEST CALLVALUE PUSH2 0x177 JUMPI PUSH1 0x0 CALLDATASIZE PUSH1 0x3 NOT ADD SLT PUSH2 0x177 JUMPI PUSH1 0x20 PUSH1 0x40 MLOAD PUSH4 0x5F5E100 DUP2 MSTORE RETURN JUMPDEST CALLVALUE PUSH2 0x177 JUMPI PUSH1 0x80 CALLDATASIZE PUSH1 0x3 NOT ADD SLT PUSH2 0x177 JUMPI PUSH2 0x5CC PUSH2 0x1E3E JUMP JUMPDEST PUSH1 0x24 CALLDATALOAD PUSH1 0x1 PUSH1 0x1 PUSH1 0x40 SHL SUB DUP2 GT PUSH2 0x177 JUMPI PUSH2 0x5EB SWAP1 CALLDATASIZE SWAP1 PUSH1 0x4 ADD PUSH2 0x1EF6 JUMP JUMPDEST SWAP2 SWAP1 PUSH1 0x44 CALLDATALOAD PUSH1 0x1 PUSH1 0x1 PUSH1 0x40 SHL SUB DUP2 GT PUSH2 0x177 JUMPI PUSH2 0x60C SWAP1 CALLDATASIZE SWAP1 PUSH1 0x4 ADD PUSH2 0x1EF6 JUMP JUMPDEST SWAP4 SWAP1 SWAP3 PUSH2 0x617 PUSH2 0x208B JUMP JUMPDEST PUSH1 0x1 PUSH1 0x1 PUSH1 0xA0 SHL SUB DUP2 AND ISZERO PUSH2 0x9DD JUMPI DUP2 ISZERO PUSH2 0x99F JUMPI PUSH1 0x40 MLOAD SWAP5 PUSH1 0xA0 DUP7 ADD DUP7 DUP2 LT PUSH1 0x1 PUSH1 0x1 PUSH1 0x40 SHL SUB DUP3 GT OR PUSH2 0x8C2 JUMPI PUSH1 0x40 MSTORE PUSH2 0x654 CALLDATASIZE DUP5 DUP7 PUSH2 0x219B JUMP JUMPDEST DUP7 MSTORE PUSH2 0x661 CALLDATASIZE DUP3 DUP8 PUSH2 0x219B JUMP JUMPDEST PUSH1 0x20 DUP8 ADD MSTORE PUSH1 0x0 PUSH1 0x40 DUP8 ADD MSTORE PUSH1 0x64 CALLDATALOAD PUSH1 0x60 DUP8 ADD MSTORE PUSH1 0x0 PUSH1 0x80 DUP8 ADD MSTORE PUSH1 0x1 DUP1 PUSH1 0xA0 SHL SUB DUP3 AND PUSH1 0x0 MSTORE PUSH1 0x4 PUSH1 0x20 MSTORE PUSH1 0x40 PUSH1 0x0 KECCAK256 DUP7 MLOAD DUP1 MLOAD SWAP1 PUSH1 0x1 PUSH1 0x1 PUSH1 0x40 SHL SUB DUP3 GT PUSH2 0x8C2 JUMPI DUP2 SWAP1 PUSH2 0x6B1 DUP5 SLOAD PUSH2 0x1F52 JUMP JUMPDEST PUSH1 0x1F DUP2 GT PUSH2 0x94F JUMPI JUMPDEST POP PUSH1 0x20 SWAP1 PUSH1 0x1F DUP4 GT PUSH1 0x1 EQ PUSH2 0x8E3 JUMPI PUSH1 0x0 SWAP3 PUSH2 0x8D8 JUMPI JUMPDEST POP POP DUP2 PUSH1 0x1 SHL SWAP2 PUSH1 0x0 NOT SWAP1 PUSH1 0x3 SHL SHR NOT AND OR DUP2 SSTORE JUMPDEST PUSH1 0x20 DUP8 ADD MLOAD SWAP7 DUP8 MLOAD PUSH1 0x1 PUSH1 0x1 PUSH1 0x40 SHL SUB DUP2 GT PUSH2 0x8C2 JUMPI PUSH2 0x709 PUSH1 0x1 DUP5 ADD SLOAD PUSH2 0x1F52 JUMP JUMPDEST PUSH1 0x1F DUP2 GT PUSH2 0x87B JUMPI JUMPDEST POP PUSH1 0x20 PUSH1 0x1F DUP3 GT PUSH1 0x1 EQ PUSH2 0x7DF JUMPI PUSH2 0x7CF SWAP6 SWAP5 SWAP4 SWAP3 DUP3 PUSH1 0x4 SWAP4 PUSH1 0x80 SWAP4 PUSH32 0x7476726B1D8882AB8352F5AF9FB6C3DFAB81C79B6A107EF114D5472393A75953 SWAP13 SWAP14 PUSH1 0x0 SWAP3 PUSH2 0x7D4 JUMPI JUMPDEST POP POP DUP2 PUSH1 0x1 SHL SWAP2 PUSH1 0x0 NOT SWAP1 PUSH1 0x3 SHL SHR NOT AND OR PUSH1 0x1 DUP6 ADD SSTORE JUMPDEST PUSH2 0x790 PUSH1 0x40 DUP3 ADD MLOAD ISZERO ISZERO PUSH1 0x2 DUP7 ADD SWAP1 PUSH1 0xFF DUP1 NOT DUP4 SLOAD AND SWAP2 ISZERO ISZERO AND OR SWAP1 SSTORE JUMP JUMPDEST PUSH1 0x60 DUP2 ADD MLOAD PUSH1 0x3 DUP6 ADD SSTORE ADD MLOAD SWAP2 ADD SSTORE PUSH2 0x7B6 PUSH1 0x40 MLOAD SWAP6 DUP7 SWAP6 PUSH1 0x40 DUP8 MSTORE PUSH1 0x40 DUP8 ADD SWAP2 PUSH2 0x2283 JUMP JUMPDEST DUP5 DUP2 SUB PUSH1 0x20 DUP7 ADD MSTORE PUSH1 0x1 PUSH1 0x1 PUSH1 0xA0 SHL SUB SWAP1 SWAP3 AND SWAP7 PUSH2 0x2283 JUMP JUMPDEST SUB SWAP1 LOG2 STOP JUMPDEST ADD MLOAD SWAP1 POP DUP14 DUP1 PUSH2 0x759 JUMP JUMPDEST PUSH1 0x1 DUP5 ADD PUSH1 0x0 MSTORE PUSH1 0x20 PUSH1 0x0 KECCAK256 SWAP10 PUSH1 0x0 JUMPDEST PUSH1 0x1F NOT DUP5 AND DUP2 LT PUSH2 0x863 JUMPI POP SWAP3 PUSH1 0x1 DUP4 PUSH32 0x7476726B1D8882AB8352F5AF9FB6C3DFAB81C79B6A107EF114D5472393A75953 SWAP12 SWAP13 PUSH1 0x80 SWAP5 PUSH2 0x7CF SWAP11 SWAP10 SWAP9 SWAP8 PUSH1 0x4 SWAP8 PUSH1 0x1F NOT DUP2 AND LT PUSH2 0x84A JUMPI JUMPDEST POP POP POP DUP2 SHL ADD PUSH1 0x1 DUP6 ADD SSTORE PUSH2 0x771 JUMP JUMPDEST ADD MLOAD PUSH1 0x0 NOT PUSH1 0xF8 DUP5 PUSH1 0x3 SHL AND SHR NOT AND SWAP1 SSTORE DUP14 DUP1 DUP1 PUSH2 0x83A JUMP JUMPDEST DUP3 DUP3 ADD MLOAD DUP13 SSTORE PUSH1 0x1 SWAP1 SWAP12 ADD SWAP11 PUSH1 0x20 SWAP3 DUP4 ADD SWAP3 ADD PUSH2 0x7EF JUMP JUMPDEST PUSH1 0x1 DUP5 ADD PUSH1 0x0 MSTORE PUSH1 0x20 PUSH1 0x0 KECCAK256 PUSH1 0x1F DUP4 ADD PUSH1 0x5 SHR DUP2 ADD PUSH1 0x20 DUP5 LT PUSH2 0x8BB JUMPI JUMPDEST PUSH1 0x1F DUP4 ADD PUSH1 0x5 SHR DUP3 ADD DUP2 LT PUSH2 0x8AF JUMPI POP POP PUSH2 0x712 JUMP JUMPDEST PUSH1 0x0 DUP2 SSTORE PUSH1 0x1 ADD PUSH2 0x899 JUMP JUMPDEST POP DUP1 PUSH2 0x899 JUMP JUMPDEST PUSH4 0x4E487B71 PUSH1 0xE0 SHL PUSH1 0x0 MSTORE PUSH1 0x41 PUSH1 0x4 MSTORE PUSH1 0x24 PUSH1 0x0 REVERT JUMPDEST ADD MLOAD SWAP1 POP DUP10 DUP1 PUSH2 0x6D1 JUMP JUMPDEST SWAP3 POP DUP4 PUSH1 0x0 MSTORE PUSH1 0x20 PUSH1 0x0 KECCAK256 SWAP1 PUSH1 0x0 SWAP4 JUMPDEST PUSH1 0x1F NOT DUP5 AND DUP6 LT PUSH2 0x934 JUMPI PUSH1 0x1 SWAP5 POP DUP4 PUSH1 0x1F NOT DUP2 AND LT PUSH2 0x91B JUMPI JUMPDEST POP POP POP DUP2 SHL ADD DUP2 SSTORE PUSH2 0x6E6 JUMP JUMPDEST ADD MLOAD PUSH1 0x0 NOT PUSH1 0xF8 DUP5 PUSH1 0x3 SHL AND SHR NOT AND SWAP1 SSTORE DUP10 DUP1 DUP1 PUSH2 0x90E JUMP JUMPDEST DUP2 DUP2 ADD MLOAD DUP4 SSTORE PUSH1 0x20 SWAP5 DUP6 ADD SWAP5 PUSH1 0x1 SWAP1 SWAP4 ADD SWAP3 SWAP1 SWAP2 ADD SWAP1 PUSH2 0x8F3 JUMP JUMPDEST SWAP1 SWAP2 POP DUP4 PUSH1 0x0 MSTORE PUSH1 0x20 PUSH1 0x0 KECCAK256 PUSH1 0x1F DUP5 ADD PUSH1 0x5 SHR DUP2 ADD PUSH1 0x20 DUP6 LT PUSH2 0x998 JUMPI JUMPDEST SWAP1 DUP5 SWAP4 SWAP3 SWAP2 JUMPDEST PUSH1 0x1F DUP4 ADD PUSH1 0x5 SHR DUP3 ADD DUP2 LT PUSH2 0x989 JUMPI POP POP PUSH2 0x6BA JUMP JUMPDEST PUSH1 0x0 DUP2 SSTORE DUP6 SWAP5 POP PUSH1 0x1 ADD PUSH2 0x973 JUMP JUMPDEST POP DUP1 PUSH2 0x96D JUMP JUMPDEST PUSH1 0x40 MLOAD PUSH3 0x461BCD PUSH1 0xE5 SHL DUP2 MSTORE PUSH1 0x20 PUSH1 0x4 DUP3 ADD MSTORE PUSH1 0x16 PUSH1 0x24 DUP3 ADD MSTORE PUSH22 0x13595C98DA185B9D081B985B59481C995C5D5A5C9959 PUSH1 0x52 SHL PUSH1 0x44 DUP3 ADD MSTORE PUSH1 0x64 SWAP1 REVERT JUMPDEST PUSH1 0x40 MLOAD PUSH3 0x461BCD PUSH1 0xE5 SHL DUP2 MSTORE PUSH1 0x20 PUSH1 0x4 DUP3 ADD MSTORE PUSH1 0x18 PUSH1 0x24 DUP3 ADD MSTORE PUSH32 0x496E76616C6964206D65726368616E7420616464726573730000000000000000 PUSH1 0x44 DUP3 ADD MSTORE PUSH1 0x64 SWAP1 REVERT JUMPDEST CALLVALUE PUSH2 0x177 JUMPI PUSH1 0x0 CALLDATASIZE PUSH1 0x3 NOT ADD SLT PUSH2 0x177 JUMPI PUSH1 0x20 PUSH1 0x40 MLOAD PUSH2 0x5DC DUP2 MSTORE RETURN JUMPDEST CALLVALUE PUSH2 0x177 JUMPI PUSH1 0x20 CALLDATASIZE PUSH1 0x3 NOT ADD SLT PUSH2 0x177 JUMPI PUSH1 0x1 PUSH1 0x1 PUSH1 0xA0 SHL SUB PUSH2 0xA60 PUSH2 0x1E3E JUMP JUMPDEST AND PUSH1 0x0 MSTORE PUSH1 0x6 PUSH1 0x20 MSTORE PUSH1 0xA0 PUSH1 0x40 PUSH1 0x0 KECCAK256 DUP1 SLOAD SWAP1 PUSH1 0x1 DUP2 ADD SLOAD SWAP1 PUSH1 0x2 DUP2 ADD SLOAD PUSH1 0x4 PUSH1 0x3 DUP4 ADD SLOAD SWAP3 ADD SLOAD SWAP3 PUSH1 0x40 MLOAD SWAP5 DUP6 MSTORE PUSH1 0x20 DUP6 ADD MSTORE PUSH1 0x40 DUP5 ADD MSTORE PUSH1 0x60 DUP4 ADD MSTORE PUSH1 0x80 DUP3 ADD MSTORE RETURN JUMPDEST CALLVALUE PUSH2 0x177 JUMPI PUSH1 0x20 CALLDATASIZE PUSH1 0x3 NOT ADD SLT PUSH2 0x177 JUMPI PUSH1 0x4 CALLDATALOAD PUSH1 0x0 MSTORE PUSH1 0x3 PUSH1 0x20 MSTORE PUSH1 0x40 PUSH1 0x0 KECCAK256 DUP1 SLOAD PUSH1 0x1 DUP1 PUSH1 0xA0 SHL SUB SWAP2 DUP3 PUSH1 0x1 DUP3 ADD SLOAD AND SWAP3 PUSH1 0x2 DUP3 ADD SLOAD AND PUSH1 0x3 DUP3 ADD SLOAD SWAP2 PUSH2 0xB3D PUSH1 0x4 DUP3 ADD SLOAD PUSH2 0xAF8 PUSH1 0x5 DUP5 ADD PUSH2 0x1FE5 JUMP JUMPDEST SWAP1 PUSH1 0xFF PUSH1 0x6 DUP6 ADD SLOAD AND SWAP6 PUSH1 0xFF PUSH1 0x8 PUSH1 0x7 DUP8 ADD SLOAD SWAP7 ADD SLOAD AND SWAP6 PUSH1 0x40 MLOAD SWAP10 DUP11 SWAP10 DUP11 MSTORE PUSH1 0x20 DUP11 ADD MSTORE PUSH1 0x40 DUP10 ADD MSTORE PUSH1 0x60 DUP9 ADD MSTORE PUSH1 0x80 DUP8 ADD MSTORE PUSH2 0x120 DUP1 PUSH1 0xA0 DUP9 ADD MSTORE DUP7 ADD SWAP1 PUSH2 0x1E54 JUMP JUMPDEST SWAP3 ISZERO ISZERO PUSH1 0xC0 DUP6 ADD MSTORE PUSH1 0xE0 DUP5 ADD MSTORE ISZERO ISZERO PUSH2 0x100 DUP4 ADD MSTORE SUB SWAP1 RETURN JUMPDEST CALLVALUE PUSH2 0x177 JUMPI PUSH2 0xB99 PUSH2 0xB67 CALLDATASIZE PUSH2 0x1F23 JUMP JUMPDEST SWAP1 PUSH2 0xB70 PUSH2 0x208B JUMP JUMPDEST PUSH1 0x1 DUP1 PUSH1 0xA0 SHL SUB AND PUSH1 0x0 MSTORE PUSH1 0x2 PUSH1 0x20 MSTORE PUSH1 0x6 PUSH1 0x40 PUSH1 0x0 KECCAK256 ADD SWAP1 PUSH1 0xFF DUP1 NOT DUP4 SLOAD AND SWAP2 ISZERO ISZERO AND OR SWAP1 SSTORE JUMP JUMPDEST STOP JUMPDEST CALLVALUE PUSH2 0x177 JUMPI PUSH2 0xBA9 CALLDATASIZE PUSH2 0x1F23 JUMP JUMPDEST SWAP1 PUSH2 0xBB2 PUSH2 0x208B JUMP JUMPDEST PUSH1 0x1 DUP1 PUSH1 0xA0 SHL SUB AND SWAP1 DUP2 PUSH1 0x0 MSTORE PUSH1 0x4 PUSH1 0x20 MSTORE PUSH2 0xBD2 PUSH1 0x40 PUSH1 0x0 KECCAK256 SLOAD PUSH2 0x1F52 JUMP JUMPDEST ISZERO PUSH2 0xC2B JUMPI PUSH1 0x20 PUSH32 0xF9695FA7A4A836707ECAB51A8A8622DE8E7FF1C77A40DA1935E9CDBD4260CE30 SWAP2 DUP4 PUSH1 0x0 MSTORE PUSH1 0x4 DUP3 MSTORE PUSH2 0xC20 DUP2 PUSH1 0x2 PUSH1 0x40 PUSH1 0x0 KECCAK256 ADD SWAP1 PUSH1 0xFF DUP1 NOT DUP4 SLOAD AND SWAP2 ISZERO ISZERO AND OR SWAP1 SSTORE JUMP JUMPDEST PUSH1 0x40 MLOAD SWAP1 ISZERO ISZERO DUP2 MSTORE LOG2 STOP JUMPDEST PUSH1 0x40 MLOAD PUSH3 0x461BCD PUSH1 0xE5 SHL DUP2 MSTORE PUSH1 0x20 PUSH1 0x4 DUP3 ADD MSTORE PUSH1 0x17 PUSH1 0x24 DUP3 ADD MSTORE PUSH32 0x4D65726368616E74206E6F742072656769737465726564000000000000000000 PUSH1 0x44 DUP3 ADD MSTORE PUSH1 0x64 SWAP1 REVERT JUMPDEST CALLVALUE PUSH2 0x177 JUMPI PUSH1 0x0 CALLDATASIZE PUSH1 0x3 NOT ADD SLT PUSH2 0x177 JUMPI PUSH1 0x1 SLOAD PUSH1 0x40 MLOAD PUSH1 0x1 PUSH1 0x1 PUSH1 0xA0 SHL SUB SWAP1 SWAP2 AND DUP2 MSTORE PUSH1 0x20 SWAP1 RETURN JUMPDEST CALLVALUE PUSH2 0x177 JUMPI PUSH1 0x0 CALLDATASIZE PUSH1 0x3 NOT ADD SLT PUSH2 0x177 JUMPI PUSH2 0xCB2 PUSH2 0x208B JUMP JUMPDEST PUSH1 0x1 DUP1 SLOAD PUSH1 0x1 PUSH1 0x1 PUSH1 0xA0 SHL SUB NOT DUP2 AND SWAP1 SWAP2 SSTORE PUSH1 0x0 SWAP1 PUSH1 0x1 PUSH1 0x1 PUSH1 0xA0 SHL SUB AND PUSH32 0x8BE0079C531659141344CD1FD0A4F28419497F9722A3DAAFE3B4186F6B6457E0 DUP3 DUP1 LOG3 STOP JUMPDEST CALLVALUE PUSH2 0x177 JUMPI PUSH1 0x60 CALLDATASIZE PUSH1 0x3 NOT ADD SLT PUSH2 0x177 JUMPI PUSH2 0xD0F PUSH2 0x1E3E JUMP JUMPDEST PUSH1 0x44 CALLDATALOAD PUSH1 0x1 PUSH1 0x1 PUSH1 0x40 SHL SUB DUP2 GT PUSH2 0x177 JUMPI PUSH2 0xD2E SWAP1 CALLDATASIZE SWAP1 PUSH1 0x4 ADD PUSH2 0x1EF6 JUMP JUMPDEST SWAP1 CALLER PUSH1 0x0 MSTORE PUSH1 0x4 PUSH1 0x20 MSTORE PUSH1 0xFF PUSH1 0x2 PUSH1 0x40 PUSH1 0x0 KECCAK256 ADD SLOAD AND ISZERO PUSH2 0x1275 JUMPI PUSH1 0x1 PUSH1 0x1 PUSH1 0xA0 SHL SUB DUP4 AND PUSH1 0x0 SWAP1 DUP2 MSTORE PUSH1 0x2 PUSH1 0x20 MSTORE PUSH1 0x40 SWAP1 KECCAK256 PUSH1 0x6 ADD SLOAD PUSH1 0xFF AND ISZERO PUSH2 0x1237 JUMPI PUSH2 0xD7A PUSH1 0x24 CALLDATALOAD ISZERO ISZERO PUSH2 0x20E3 JUMP JUMPDEST PUSH2 0xD8D PUSH5 0x174876E800 PUSH1 0x24 CALLDATALOAD GT ISZERO PUSH2 0x212F JUMP JUMPDEST PUSH2 0xD95 PUSH2 0x22A4 JUMP JUMPDEST PUSH1 0x1 DUP1 PUSH1 0xA0 SHL SUB DUP4 AND PUSH1 0x0 MSTORE PUSH1 0x2 PUSH1 0x20 MSTORE PUSH1 0x40 PUSH1 0x0 KECCAK256 SWAP1 CALLER PUSH1 0x0 MSTORE PUSH1 0x4 PUSH1 0x20 MSTORE PUSH1 0x40 PUSH1 0x0 KECCAK256 PUSH1 0x24 CALLDATALOAD PUSH1 0x1 DUP5 ADD SLOAD LT PUSH2 0x11FC JUMPI PUSH1 0x3 DUP2 ADD SLOAD PUSH1 0x24 CALLDATALOAD GT PUSH2 0x11BE JUMPI PUSH1 0x1 PUSH1 0x7 SLOAD ADD SWAP3 DUP4 PUSH1 0x7 SSTORE PUSH3 0x278D00 TIMESTAMP ADD TIMESTAMP GT PUSH2 0x11A8 JUMPI PUSH1 0x40 MLOAD PUSH2 0xDF7 DUP2 PUSH2 0x1F8C JUMP JUMPDEST DUP5 DUP2 MSTORE PUSH1 0x1 PUSH1 0x1 PUSH1 0xA0 SHL SUB DUP8 AND PUSH1 0x20 DUP3 ADD MSTORE CALLER PUSH1 0x40 DUP3 ADD MSTORE PUSH1 0x24 CALLDATALOAD PUSH1 0x60 DUP3 ADD MSTORE TIMESTAMP PUSH1 0x80 DUP3 ADD MSTORE PUSH2 0xE28 CALLDATASIZE DUP8 DUP7 PUSH2 0x219B JUMP JUMPDEST PUSH1 0xA0 DUP3 ADD MSTORE PUSH1 0x0 PUSH1 0xC0 DUP3 ADD MSTORE PUSH3 0x278D00 TIMESTAMP ADD PUSH1 0xE0 DUP3 ADD MSTORE PUSH1 0x0 PUSH2 0x100 DUP3 ADD MSTORE DUP5 PUSH1 0x0 MSTORE PUSH1 0x3 PUSH1 0x20 MSTORE PUSH1 0x40 PUSH1 0x0 KECCAK256 SWAP1 DUP1 MLOAD DUP3 SSTORE PUSH1 0x1 DUP3 ADD PUSH1 0x1 DUP1 PUSH1 0xA0 SHL SUB PUSH1 0x20 DUP4 ADD MLOAD AND SWAP1 PUSH1 0x1 PUSH1 0x1 PUSH1 0x60 SHL SUB PUSH1 0xA0 SHL SWAP2 DUP3 DUP3 SLOAD AND OR SWAP1 SSTORE PUSH1 0x2 DUP4 ADD SWAP1 PUSH1 0x1 DUP1 PUSH1 0xA0 SHL SUB PUSH1 0x40 DUP5 ADD MLOAD AND SWAP1 DUP3 SLOAD AND OR SWAP1 SSTORE PUSH1 0x60 DUP2 ADD MLOAD PUSH1 0x3 DUP4 ADD SSTORE PUSH1 0x80 DUP2 ADD MLOAD PUSH1 0x4 DUP4 ADD SSTORE PUSH1 0xA0 DUP2 ADD MLOAD DUP1 MLOAD SWAP1 PUSH1 0x1 PUSH1 0x1 PUSH1 0x40 SHL SUB DUP3 GT PUSH2 0x8C2 JUMPI PUSH2 0xECF PUSH1 0x5 DUP6 ADD SLOAD PUSH2 0x1F52 JUMP JUMPDEST PUSH1 0x1F DUP2 GT PUSH2 0x1161 JUMPI JUMPDEST POP PUSH1 0x20 SWAP1 PUSH1 0x1F DUP4 GT PUSH1 0x1 EQ PUSH2 0x10E1 JUMPI PUSH2 0x100 PUSH1 0x4 SWAP8 SWAP7 SWAP5 DUP5 PUSH2 0xF5A SWAP6 PUSH1 0x7 SWAP9 SWAP6 PUSH1 0x8 SWAP6 PUSH1 0x0 SWAP3 PUSH2 0x10D6 JUMPI JUMPDEST POP POP DUP2 PUSH1 0x1 SHL SWAP2 PUSH1 0x0 NOT SWAP1 PUSH1 0x3 SHL SHR NOT AND OR PUSH1 0x5 DUP6 ADD SSTORE JUMPDEST PUSH2 0xF3A PUSH1 0xC0 DUP3 ADD MLOAD ISZERO ISZERO PUSH1 0x6 DUP7 ADD SWAP1 PUSH1 0xFF DUP1 NOT DUP4 SLOAD AND SWAP2 ISZERO ISZERO AND OR SWAP1 SSTORE JUMP JUMPDEST PUSH1 0xE0 DUP2 ADD MLOAD DUP8 DUP6 ADD SSTORE ADD MLOAD ISZERO ISZERO SWAP2 ADD SWAP1 PUSH1 0xFF DUP1 NOT DUP4 SLOAD AND SWAP2 ISZERO ISZERO AND OR SWAP1 SSTORE JUMP JUMPDEST PUSH1 0x1 DUP1 PUSH1 0xA0 SHL SUB DUP9 AND PUSH1 0x0 MSTORE PUSH1 0x5 PUSH1 0x20 MSTORE PUSH2 0xF79 DUP7 PUSH1 0x40 PUSH1 0x0 KECCAK256 PUSH2 0x21E1 JUMP JUMPDEST PUSH2 0xF89 PUSH1 0x24 CALLDATALOAD PUSH1 0x1 DUP4 ADD SLOAD PUSH2 0x221B JUMP JUMPDEST PUSH1 0x1 DUP3 ADD SSTORE PUSH1 0x2 DUP2 ADD PUSH2 0xF9F PUSH1 0x24 CALLDATALOAD DUP3 SLOAD PUSH2 0x218E JUMP JUMPDEST SWAP1 SSTORE TIMESTAMP PUSH1 0x5 DUP3 ADD SSTORE ADD PUSH2 0xFB5 PUSH1 0x24 CALLDATALOAD DUP3 SLOAD PUSH2 0x218E JUMP JUMPDEST SWAP1 SSTORE ADD PUSH2 0xFC5 PUSH1 0x24 CALLDATALOAD DUP3 SLOAD PUSH2 0x218E JUMP JUMPDEST SWAP1 SSTORE PUSH1 0x40 MLOAD PUSH4 0x23B872DD PUSH1 0xE0 SHL DUP2 MSTORE ADDRESS PUSH1 0x4 DUP3 ADD MSTORE CALLER PUSH1 0x24 DUP1 DUP4 ADD SWAP2 SWAP1 SWAP2 MSTORE CALLDATALOAD PUSH1 0x44 DUP3 ADD MSTORE SWAP1 PUSH1 0x20 DUP3 PUSH1 0x64 DUP2 PUSH1 0x0 PUSH1 0x1 PUSH1 0x1 PUSH1 0xA0 SHL SUB PUSH32 0x0 AND GAS CALL SWAP1 DUP2 ISZERO PUSH2 0x10CA JUMPI PUSH2 0x105D PUSH2 0x1077 SWAP3 PUSH32 0x87633AB4FB83FEF5210B0F0F5C0F47A9C83C5814AFE830436ECEBA6C74689784 SWAP5 PUSH1 0x0 SWAP2 PUSH2 0x109B JUMPI JUMPDEST POP PUSH2 0x2240 JUMP JUMPDEST PUSH1 0x40 MLOAD SWAP5 PUSH1 0x24 CALLDATALOAD DUP7 MSTORE PUSH1 0x60 PUSH1 0x20 DUP8 ADD MSTORE PUSH1 0x60 DUP7 ADD SWAP2 PUSH2 0x2283 JUMP JUMPDEST TIMESTAMP PUSH3 0x278D00 ADD PUSH1 0x40 DUP6 ADD MSTORE CALLER SWAP5 PUSH1 0x1 PUSH1 0x1 PUSH1 0xA0 SHL SUB AND SWAP4 SWAP1 DUP2 SWAP1 SUB SWAP1 LOG4 PUSH1 0x1 PUSH1 0x0 SSTORE STOP JUMPDEST PUSH2 0x10BD SWAP2 POP PUSH1 0x20 RETURNDATASIZE PUSH1 0x20 GT PUSH2 0x10C3 JUMPI JUMPDEST PUSH2 0x10B5 DUP2 DUP4 PUSH2 0x1FC4 JUMP JUMPDEST DUP2 ADD SWAP1 PUSH2 0x2228 JUMP JUMPDEST DUP9 PUSH2 0x1057 JUMP JUMPDEST POP RETURNDATASIZE PUSH2 0x10AB JUMP JUMPDEST PUSH1 0x40 MLOAD RETURNDATASIZE PUSH1 0x0 DUP3 RETURNDATACOPY RETURNDATASIZE SWAP1 REVERT JUMPDEST ADD MLOAD SWAP1 POP DUP16 DUP1 PUSH2 0xF03 JUMP JUMPDEST SWAP1 PUSH1 0x5 DUP6 ADD PUSH1 0x0 MSTORE PUSH1 0x20 PUSH1 0x0 KECCAK256 SWAP2 PUSH1 0x0 JUMPDEST PUSH1 0x1F NOT DUP6 AND DUP2 LT PUSH2 0x1149 JUMPI POP PUSH1 0x4 SWAP8 SWAP7 SWAP5 PUSH1 0x1 DUP6 PUSH1 0x7 SWAP9 SWAP6 PUSH1 0x8 SWAP6 PUSH2 0x100 SWAP6 PUSH2 0xF5A SWAP10 PUSH1 0x1F NOT DUP2 AND LT PUSH2 0x1130 JUMPI JUMPDEST POP POP POP DUP2 SHL ADD PUSH1 0x5 DUP6 ADD SSTORE PUSH2 0xF1B JUMP JUMPDEST ADD MLOAD PUSH1 0x0 NOT PUSH1 0xF8 DUP5 PUSH1 0x3 SHL AND SHR NOT AND SWAP1 SSTORE DUP16 DUP1 DUP1 PUSH2 0x1120 JUMP JUMPDEST SWAP2 SWAP3 PUSH1 0x20 PUSH1 0x1 DUP2 SWAP3 DUP7 DUP6 ADD MLOAD DUP2 SSTORE ADD SWAP5 ADD SWAP3 ADD PUSH2 0x10F2 JUMP JUMPDEST PUSH1 0x5 DUP6 ADD PUSH1 0x0 MSTORE PUSH1 0x20 PUSH1 0x0 KECCAK256 PUSH1 0x1F DUP5 ADD PUSH1 0x5 SHR DUP2 ADD PUSH1 0x20 DUP6 LT PUSH2 0x11A1 JUMPI JUMPDEST PUSH1 0x1F DUP4 ADD PUSH1 0x5 SHR DUP3 ADD DUP2 LT PUSH2 0x1195 JUMPI POP POP PUSH2 0xED8 JUMP JUMPDEST PUSH1 0x0 DUP2 SSTORE PUSH1 0x1 ADD PUSH2 0x117F JUMP JUMPDEST POP DUP1 PUSH2 0x117F JUMP JUMPDEST PUSH4 0x4E487B71 PUSH1 0xE0 SHL PUSH1 0x0 MSTORE PUSH1 0x11 PUSH1 0x4 MSTORE PUSH1 0x24 PUSH1 0x0 REVERT JUMPDEST PUSH1 0x40 MLOAD PUSH3 0x461BCD PUSH1 0xE5 SHL DUP2 MSTORE PUSH1 0x20 PUSH1 0x4 DUP3 ADD MSTORE PUSH1 0x16 PUSH1 0x24 DUP3 ADD MSTORE PUSH22 0x115E18D959591CC81B595C98DA185B9D081B1A5B5A5D PUSH1 0x52 SHL PUSH1 0x44 DUP3 ADD MSTORE PUSH1 0x64 SWAP1 REVERT JUMPDEST PUSH1 0x40 MLOAD PUSH3 0x461BCD PUSH1 0xE5 SHL DUP2 MSTORE PUSH1 0x20 PUSH1 0x4 DUP3 ADD MSTORE PUSH1 0x13 PUSH1 0x24 DUP3 ADD MSTORE PUSH19 0x125B9CDD59999A58DA595B9D0818DC99591A5D PUSH1 0x6A SHL PUSH1 0x44 DUP3 ADD MSTORE PUSH1 0x64 SWAP1 REVERT JUMPDEST PUSH1 0x40 MLOAD PUSH3 0x461BCD PUSH1 0xE5 SHL DUP2 MSTORE PUSH1 0x20 PUSH1 0x4 DUP3 ADD MSTORE PUSH1 0x16 PUSH1 0x24 DUP3 ADD MSTORE PUSH22 0x5573657220637265646974206E6F7420616374697665 PUSH1 0x50 SHL PUSH1 0x44 DUP3 ADD MSTORE PUSH1 0x64 SWAP1 REVERT JUMPDEST PUSH1 0x40 MLOAD PUSH3 0x461BCD PUSH1 0xE5 SHL DUP2 MSTORE PUSH1 0x20 PUSH1 0x4 DUP3 ADD MSTORE PUSH1 0x18 PUSH1 0x24 DUP3 ADD MSTORE PUSH32 0x4D65726368616E74206E6F742077686974656C69737465640000000000000000 PUSH1 0x44 DUP3 ADD MSTORE PUSH1 0x64 SWAP1 REVERT JUMPDEST CALLVALUE PUSH2 0x177 JUMPI PUSH1 0x20 CALLDATASIZE PUSH1 0x3 NOT ADD SLT PUSH2 0x177 JUMPI PUSH2 0x140 PUSH2 0x12D6 PUSH2 0x1E3E JUMP JUMPDEST PUSH1 0x0 DUP3 PUSH1 0x40 MLOAD PUSH2 0x12E5 DUP2 PUSH2 0x1FA8 JUMP JUMPDEST DUP3 DUP2 MSTORE DUP3 PUSH1 0x20 DUP3 ADD MSTORE DUP3 PUSH1 0x40 DUP3 ADD MSTORE DUP3 PUSH1 0x60 DUP3 ADD MSTORE DUP3 PUSH1 0x80 DUP3 ADD MSTORE DUP3 PUSH1 0xA0 DUP3 ADD MSTORE DUP3 PUSH1 0xC0 DUP3 ADD MSTORE DUP3 PUSH1 0xE0 DUP3 ADD MSTORE DUP3 PUSH2 0x100 DUP3 ADD MSTORE DUP3 PUSH2 0x120 DUP3 ADD MSTORE ADD MSTORE PUSH2 0x132B DUP2 PUSH2 0x2349 JUMP JUMPDEST SWAP2 PUSH1 0x1 DUP1 PUSH1 0xA0 SHL SUB AND PUSH1 0x0 MSTORE PUSH1 0x2 PUSH1 0x20 MSTORE PUSH1 0x40 PUSH1 0x0 KECCAK256 SWAP2 PUSH1 0x5 PUSH1 0x20 MSTORE PUSH2 0x1455 PUSH2 0x13D1 PUSH1 0x40 PUSH1 0x0 KECCAK256 PUSH1 0xA PUSH1 0x40 MLOAD SWAP7 PUSH2 0x1361 DUP9 PUSH2 0x1FA8 JUMP JUMPDEST DUP1 SLOAD DUP9 MSTORE PUSH1 0x1 DUP2 ADD SLOAD PUSH1 0x20 DUP10 ADD MSTORE PUSH1 0x2 DUP2 ADD SLOAD PUSH1 0x40 DUP10 ADD MSTORE PUSH1 0x3 DUP2 ADD SLOAD PUSH1 0x60 DUP10 ADD MSTORE PUSH1 0x4 DUP2 ADD SLOAD PUSH1 0x80 DUP10 ADD MSTORE PUSH1 0x5 DUP2 ADD SLOAD PUSH1 0xA0 DUP10 ADD MSTORE PUSH1 0xFF PUSH1 0x6 DUP3 ADD SLOAD AND ISZERO ISZERO PUSH1 0xC0 DUP10 ADD MSTORE PUSH1 0x7 DUP2 ADD SLOAD PUSH1 0xE0 DUP10 ADD MSTORE PUSH1 0x8 DUP2 ADD SLOAD PUSH2 0x100 DUP10 ADD MSTORE PUSH1 0x9 DUP2 ADD SLOAD PUSH2 0x120 DUP10 ADD MSTORE ADD SLOAD DUP8 DUP8 ADD MSTORE PUSH2 0x22FA JUMP JUMPDEST PUSH1 0x40 MLOAD SWAP6 DUP6 DUP8 SWAP7 MLOAD DUP8 MSTORE PUSH1 0x20 DUP2 ADD MLOAD PUSH1 0x20 DUP9 ADD MSTORE PUSH1 0x40 DUP2 ADD MLOAD PUSH1 0x40 DUP9 ADD MSTORE PUSH1 0x60 DUP2 ADD MLOAD PUSH1 0x60 DUP9 ADD MSTORE PUSH1 0x80 DUP2 ADD MLOAD PUSH1 0x80 DUP9 ADD MSTORE PUSH1 0xA0 DUP2 ADD MLOAD PUSH1 0xA0 DUP9 ADD MSTORE PUSH1 0xC0 DUP2 ADD MLOAD ISZERO ISZERO PUSH1 0xC0 DUP9 ADD MSTORE PUSH1 0xE0 DUP2 ADD MLOAD PUSH1 0xE0 DUP9 ADD MSTORE PUSH2 0x100 DUP2 ADD MLOAD PUSH2 0x100 DUP9 ADD MSTORE PUSH2 0x120 DUP2 ADD MLOAD PUSH2 0x120 DUP9 ADD MSTORE ADD MLOAD PUSH2 0x140 DUP7 ADD MSTORE PUSH2 0x1C0 DUP1 PUSH2 0x160 DUP8 ADD MSTORE DUP6 ADD SWAP1 PUSH2 0x1EC2 JUMP JUMPDEST SWAP2 PUSH2 0x180 DUP5 ADD MSTORE PUSH2 0x1A0 DUP4 ADD MSTORE SUB SWAP1 RETURN JUMPDEST PUSH2 0x1E21 JUMP JUMPDEST CALLVALUE PUSH2 0x177 JUMPI PUSH1 0x0 CALLDATASIZE PUSH1 0x3 NOT ADD SLT PUSH2 0x177 JUMPI PUSH1 0x20 PUSH1 0x40 MLOAD PUSH2 0x352 DUP2 MSTORE RETURN JUMPDEST CALLVALUE PUSH2 0x177 JUMPI PUSH1 0x40 CALLDATASIZE PUSH1 0x3 NOT ADD SLT PUSH2 0x177 JUMPI PUSH2 0x14A1 PUSH2 0x1E3E JUMP JUMPDEST PUSH1 0x1 PUSH1 0x1 PUSH1 0xA0 SHL SUB AND PUSH1 0x0 SWAP1 DUP2 MSTORE PUSH1 0x5 PUSH1 0x20 MSTORE PUSH1 0x40 SWAP1 KECCAK256 DUP1 SLOAD PUSH1 0x24 CALLDATALOAD SWAP2 SWAP1 DUP3 LT ISZERO PUSH2 0x177 JUMPI PUSH1 0x20 SWAP2 PUSH2 0x14D2 SWAP2 PUSH2 0x1E94 JUMP JUMPDEST SWAP1 SLOAD PUSH1 0x40 MLOAD SWAP2 PUSH1 0x3 SHL SHR DUP2 MSTORE RETURN JUMPDEST CALLVALUE PUSH2 0x177 JUMPI PUSH1 0x0 CALLDATASIZE PUSH1 0x3 NOT ADD SLT PUSH2 0x177 JUMPI PUSH2 0x14F9 PUSH2 0x208B JUMP JUMPDEST PUSH1 0x40 MLOAD PUSH4 0x70A08231 PUSH1 0xE0 SHL DUP2 MSTORE ADDRESS PUSH1 0x4 DUP3 ADD MSTORE PUSH1 0x20 PUSH1 0x1 PUSH1 0x1 PUSH1 0xA0 SHL SUB PUSH32 0x0 DUP2 AND DUP3 DUP5 PUSH1 0x24 DUP2 DUP5 GAS STATICCALL SWAP4 DUP5 ISZERO PUSH2 0x10CA JUMPI PUSH1 0x0 SWAP5 PUSH2 0x1658 JUMPI JUMPDEST POP DUP4 ISZERO PUSH2 0x161D JUMPI DUP3 PUSH1 0x0 SWAP2 PUSH1 0x44 DUP5 PUSH1 0x1 SLOAD AND PUSH1 0x40 MLOAD SWAP5 DUP6 SWAP4 DUP5 SWAP3 PUSH4 0xA9059CBB PUSH1 0xE0 SHL DUP5 MSTORE PUSH1 0x4 DUP5 ADD MSTORE DUP10 PUSH1 0x24 DUP5 ADD MSTORE GAS CALL SWAP1 DUP2 ISZERO PUSH2 0x10CA JUMPI PUSH1 0x0 SWAP2 PUSH2 0x1600 JUMPI JUMPDEST POP ISZERO PUSH2 0x15C7 JUMPI SWAP1 PUSH32 0x7FCF532C15F0A6DB0BD6D0E038BEA71D30D808C7D98CB3BF7268A95BF5081B65 SWAP2 PUSH1 0x1 SLOAD AND SWAP3 PUSH1 0x40 MLOAD SWAP1 DUP2 MSTORE LOG2 STOP JUMPDEST PUSH1 0x40 MLOAD PUSH3 0x461BCD PUSH1 0xE5 SHL DUP2 MSTORE PUSH1 0x4 DUP2 ADD DUP4 SWAP1 MSTORE PUSH1 0x11 PUSH1 0x24 DUP3 ADD MSTORE PUSH17 0x15DA5D1A191C985DD85B0819985A5B1959 PUSH1 0x7A SHL PUSH1 0x44 DUP3 ADD MSTORE PUSH1 0x64 SWAP1 REVERT JUMPDEST PUSH2 0x1617 SWAP2 POP DUP4 RETURNDATASIZE DUP6 GT PUSH2 0x10C3 JUMPI PUSH2 0x10B5 DUP2 DUP4 PUSH2 0x1FC4 JUMP JUMPDEST DUP5 PUSH2 0x1590 JUMP JUMPDEST PUSH1 0x40 MLOAD PUSH3 0x461BCD PUSH1 0xE5 SHL DUP2 MSTORE PUSH1 0x4 DUP2 ADD DUP5 SWAP1 MSTORE PUSH1 0x13 PUSH1 0x24 DUP3 ADD MSTORE PUSH19 0x4E6F205553444320746F207769746864726177 PUSH1 0x68 SHL PUSH1 0x44 DUP3 ADD MSTORE PUSH1 0x64 SWAP1 REVERT JUMPDEST SWAP1 SWAP4 POP DUP3 DUP2 DUP2 RETURNDATASIZE DUP4 GT PUSH2 0x1680 JUMPI JUMPDEST PUSH2 0x1670 DUP2 DUP4 PUSH2 0x1FC4 JUMP JUMPDEST DUP2 ADD SUB SLT PUSH2 0x177 JUMPI MLOAD SWAP3 DUP5 PUSH2 0x1550 JUMP JUMPDEST POP RETURNDATASIZE PUSH2 0x1666 JUMP JUMPDEST CALLVALUE PUSH2 0x177 JUMPI PUSH1 0x20 CALLDATASIZE PUSH1 0x3 NOT ADD SLT PUSH2 0x177 JUMPI PUSH2 0x16A5 PUSH1 0x4 CALLDATALOAD ISZERO ISZERO PUSH2 0x20E3 JUMP JUMPDEST PUSH2 0x16B8 PUSH5 0x174876E800 PUSH1 0x4 CALLDATALOAD GT ISZERO PUSH2 0x212F JUMP JUMPDEST PUSH2 0x16C0 PUSH2 0x22A4 JUMP JUMPDEST CALLER PUSH1 0x0 MSTORE PUSH1 0x2 PUSH1 0x20 MSTORE PUSH1 0x40 PUSH1 0x0 KECCAK256 PUSH1 0xFF PUSH1 0x6 DUP3 ADD SLOAD AND ISZERO PUSH2 0x1B5C JUMPI PUSH1 0x4 CALLDATALOAD PUSH1 0x2 DUP3 ADD SLOAD LT PUSH2 0x1B17 JUMPI PUSH2 0x1738 PUSH1 0x20 PUSH2 0x170B PUSH2 0x1706 PUSH2 0x16FC CALLER PUSH2 0x2349 JUMP JUMPDEST SWAP2 SWAP1 PUSH1 0x4 CALLDATALOAD PUSH2 0x218E JUMP JUMPDEST PUSH2 0x218E JUMP JUMPDEST PUSH1 0x40 MLOAD PUSH4 0x23B872DD PUSH1 0xE0 SHL DUP2 MSTORE CALLER PUSH1 0x4 DUP3 ADD MSTORE ADDRESS PUSH1 0x24 DUP3 ADD MSTORE PUSH1 0x44 DUP2 ADD SWAP2 SWAP1 SWAP2 MSTORE SWAP2 DUP3 SWAP1 DUP2 SWAP1 PUSH1 0x64 DUP3 ADD SWAP1 JUMP JUMPDEST SUB DUP2 PUSH1 0x0 PUSH32 0x0 PUSH1 0x1 PUSH1 0x1 PUSH1 0xA0 SHL SUB AND GAS CALL DUP1 ISZERO PUSH2 0x10CA JUMPI PUSH2 0x177F SWAP2 PUSH1 0x0 SWAP2 PUSH2 0x1AF8 JUMPI POP PUSH2 0x2240 JUMP JUMPDEST PUSH1 0x1 PUSH1 0x7 SLOAD ADD SWAP1 DUP2 PUSH1 0x7 SSTORE PUSH1 0x40 MLOAD PUSH2 0x1796 DUP2 PUSH2 0x1F8C JUMP JUMPDEST DUP3 DUP2 MSTORE CALLER PUSH1 0x20 DUP3 ADD MSTORE PUSH1 0x0 PUSH1 0x40 DUP3 ADD MSTORE PUSH1 0x4 CALLDATALOAD PUSH1 0x60 DUP3 ADD MSTORE TIMESTAMP PUSH1 0x80 DUP3 ADD MSTORE PUSH1 0x40 MLOAD DUP1 PUSH1 0x40 DUP2 ADD LT PUSH1 0x1 PUSH1 0x1 PUSH1 0x40 SHL SUB PUSH1 0x40 DUP4 ADD GT OR PUSH2 0x8C2 JUMPI PUSH1 0x40 DUP2 ADD PUSH1 0x40 MSTORE PUSH1 0x10 DUP2 MSTORE PUSH16 0x10DC99591A5D0814995C185E5B595B9D PUSH1 0x82 SHL PUSH1 0x20 DUP3 ADD MSTORE PUSH1 0xA0 DUP3 ADD MSTORE PUSH1 0x1 PUSH1 0xC0 DUP3 ADD MSTORE PUSH1 0x0 PUSH1 0xE0 DUP3 ADD MSTORE PUSH1 0x1 PUSH2 0x100 DUP3 ADD MSTORE DUP3 PUSH1 0x0 MSTORE PUSH1 0x3 PUSH1 0x20 MSTORE PUSH1 0x40 PUSH1 0x0 KECCAK256 SWAP1 DUP1 MLOAD DUP3 SSTORE PUSH1 0x1 DUP3 ADD PUSH1 0x1 DUP1 PUSH1 0xA0 SHL SUB PUSH1 0x20 DUP4 ADD MLOAD AND SWAP1 PUSH1 0x1 PUSH1 0x1 PUSH1 0x60 SHL SUB PUSH1 0xA0 SHL SWAP2 DUP3 DUP3 SLOAD AND OR SWAP1 SSTORE PUSH1 0x2 DUP4 ADD SWAP1 PUSH1 0x1 DUP1 PUSH1 0xA0 SHL SUB PUSH1 0x40 DUP5 ADD MLOAD AND SWAP1 DUP3 SLOAD AND OR SWAP1 SSTORE PUSH1 0x60 DUP2 ADD MLOAD PUSH1 0x3 DUP4 ADD SSTORE PUSH1 0x80 DUP2 ADD MLOAD PUSH1 0x4 DUP4 ADD SSTORE PUSH1 0xA0 DUP2 ADD MLOAD DUP1 MLOAD SWAP1 PUSH1 0x1 PUSH1 0x1 PUSH1 0x40 SHL SUB DUP3 GT PUSH2 0x8C2 JUMPI PUSH2 0x1896 PUSH1 0x5 DUP6 ADD SLOAD PUSH2 0x1F52 JUMP JUMPDEST PUSH1 0x1F DUP2 GT PUSH2 0x1AB1 JUMPI JUMPDEST POP PUSH1 0x20 SWAP1 PUSH1 0x1F DUP4 GT PUSH1 0x1 EQ PUSH2 0x1A34 JUMPI PUSH2 0x191F SWAP4 DUP4 PUSH1 0x2 SWAP8 SWAP7 SWAP5 PUSH1 0x8 SWAP5 PUSH2 0x100 SWAP5 PUSH1 0x0 SWAP3 PUSH2 0x1A29 JUMPI JUMPDEST POP POP DUP2 PUSH1 0x1 SHL SWAP2 PUSH1 0x0 NOT SWAP1 PUSH1 0x3 SHL SHR NOT AND OR PUSH1 0x5 DUP6 ADD SSTORE JUMPDEST PUSH2 0x18FE PUSH1 0xC0 DUP3 ADD MLOAD ISZERO ISZERO PUSH1 0x6 DUP7 ADD SWAP1 PUSH1 0xFF DUP1 NOT DUP4 SLOAD AND SWAP2 ISZERO ISZERO AND OR SWAP1 SSTORE JUMP JUMPDEST PUSH1 0xE0 DUP2 ADD MLOAD PUSH1 0x7 DUP6 ADD SSTORE ADD MLOAD ISZERO ISZERO SWAP2 ADD SWAP1 PUSH1 0xFF DUP1 NOT DUP4 SLOAD AND SWAP2 ISZERO ISZERO AND OR SWAP1 SSTORE JUMP JUMPDEST CALLER PUSH1 0x0 MSTORE PUSH1 0x5 PUSH1 0x20 MSTORE PUSH2 0x1936 DUP4 PUSH1 0x40 PUSH1 0x0 KECCAK256 PUSH2 0x21E1 JUMP JUMPDEST PUSH2 0x1945 PUSH1 0x4 CALLDATALOAD DUP4 DUP4 ADD SLOAD PUSH2 0x221B JUMP JUMPDEST DUP3 DUP3 ADD SSTORE PUSH1 0x1 DUP2 ADD PUSH2 0x195A PUSH1 0x4 CALLDATALOAD DUP3 SLOAD PUSH2 0x218E JUMP JUMPDEST SWAP1 SSTORE TIMESTAMP PUSH1 0x4 DUP3 ADD SSTORE PUSH1 0x8 DUP2 ADD PUSH2 0x1973 PUSH1 0x4 CALLDATALOAD DUP3 SLOAD PUSH2 0x218E JUMP JUMPDEST SWAP1 SSTORE PUSH1 0x0 PUSH1 0xA DUP3 ADD SSTORE PUSH1 0x0 PUSH1 0x9 DUP3 ADD SSTORE CALLER PUSH1 0x0 MSTORE DUP2 PUSH1 0x20 MSTORE PUSH1 0x40 PUSH1 0x0 KECCAK256 PUSH1 0x7 DUP2 ADD SLOAD PUSH1 0x3 PUSH2 0x19A1 DUP3 CALLER PUSH2 0x24C2 JUMP JUMPDEST SWAP3 ADD DUP1 SLOAD DUP4 SUB PUSH2 0x19ED JUMPI JUMPDEST POP POP POP ADD SLOAD SWAP1 PUSH1 0x40 MLOAD SWAP2 PUSH1 0x4 CALLDATALOAD DUP4 MSTORE PUSH1 0x20 DUP4 ADD MSTORE PUSH32 0xB3DC754E3CD0ADCA79AEDB0CF9CBCADA6B0ED980DBB9D384B635F283985B9687 PUSH1 0x40 CALLER SWAP4 LOG3 PUSH1 0x1 PUSH1 0x0 SSTORE STOP JUMPDEST DUP3 SWAP1 SSTORE PUSH1 0x40 MLOAD SWAP2 DUP3 MSTORE PUSH1 0x20 DUP3 ADD MSTORE PUSH32 0x4F43648F37BC26EE5BC39C60C1C1E2481A9FB9FEB9F86419C91B4645585FF3BC PUSH1 0x40 CALLER SWAP3 LOG2 DUP4 DUP1 DUP1 PUSH2 0x19AC JUMP JUMPDEST ADD MLOAD SWAP1 POP DUP11 DUP1 PUSH2 0x18C7 JUMP JUMPDEST SWAP1 PUSH1 0x5 DUP6 ADD PUSH1 0x0 MSTORE PUSH1 0x20 PUSH1 0x0 KECCAK256 SWAP2 PUSH1 0x0 JUMPDEST PUSH1 0x1F NOT DUP6 AND DUP2 LT PUSH2 0x1A99 JUMPI POP SWAP4 PUSH1 0x1 DUP5 PUSH1 0x8 SWAP5 PUSH2 0x100 SWAP5 PUSH2 0x191F SWAP9 PUSH1 0x2 SWAP12 SWAP11 SWAP9 PUSH1 0x1F NOT DUP2 AND LT PUSH2 0x1A80 JUMPI JUMPDEST POP POP POP DUP2 SHL ADD PUSH1 0x5 DUP6 ADD SSTORE PUSH2 0x18DF JUMP JUMPDEST ADD MLOAD PUSH1 0x0 NOT PUSH1 0xF8 DUP5 PUSH1 0x3 SHL AND SHR NOT AND SWAP1 SSTORE DUP11 DUP1 DUP1 PUSH2 0x1A70 JUMP JUMPDEST SWAP2 SWAP3 PUSH1 0x20 PUSH1 0x1 DUP2 SWAP3 DUP7 DUP6 ADD MLOAD DUP2 SSTORE ADD SWAP5 ADD SWAP3 ADD PUSH2 0x1A45 JUMP JUMPDEST PUSH1 0x5 DUP6 ADD PUSH1 0x0 MSTORE PUSH1 0x20 PUSH1 0x0 KECCAK256 PUSH1 0x1F DUP5 ADD PUSH1 0x5 SHR DUP2 ADD PUSH1 0x20 DUP6 LT PUSH2 0x1AF1 JUMPI JUMPDEST PUSH1 0x1F DUP4 ADD PUSH1 0x5 SHR DUP3 ADD DUP2 LT PUSH2 0x1AE5 JUMPI POP POP PUSH2 0x189F JUMP JUMPDEST PUSH1 0x0 DUP2 SSTORE PUSH1 0x1 ADD PUSH2 0x1ACF JUMP JUMPDEST POP DUP1 PUSH2 0x1ACF JUMP JUMPDEST PUSH2 0x1B11 SWAP2 POP PUSH1 0x20 RETURNDATASIZE PUSH1 0x20 GT PUSH2 0x10C3 JUMPI PUSH2 0x10B5 DUP2 DUP4 PUSH2 0x1FC4 JUMP JUMPDEST DUP4 PUSH2 0x1057 JUMP JUMPDEST PUSH1 0x40 MLOAD PUSH3 0x461BCD PUSH1 0xE5 SHL DUP2 MSTORE PUSH1 0x20 PUSH1 0x4 DUP3 ADD MSTORE PUSH1 0x1C PUSH1 0x24 DUP3 ADD MSTORE PUSH32 0x526570617920616D6F756E7420657863656564732062616C616E636500000000 PUSH1 0x44 DUP3 ADD MSTORE PUSH1 0x64 SWAP1 REVERT JUMPDEST PUSH1 0x40 MLOAD PUSH3 0x461BCD PUSH1 0xE5 SHL DUP2 MSTORE PUSH1 0x20 PUSH1 0x4 DUP3 ADD MSTORE PUSH1 0x11 PUSH1 0x24 DUP3 ADD MSTORE PUSH17 0x437265646974206E6F7420616374697665 PUSH1 0x78 SHL PUSH1 0x44 DUP3 ADD MSTORE PUSH1 0x64 SWAP1 REVERT JUMPDEST CALLVALUE PUSH2 0x177 JUMPI PUSH1 0x20 DUP1 PUSH1 0x3 NOT CALLDATASIZE ADD SLT PUSH2 0x177 JUMPI PUSH1 0x40 MLOAD SWAP1 PUSH2 0x1BB4 DUP3 PUSH2 0x1F8C JUMP JUMPDEST PUSH1 0x0 DUP3 MSTORE PUSH1 0x0 DUP2 DUP4 ADD MSTORE PUSH1 0x0 PUSH1 0x40 DUP4 ADD MSTORE PUSH1 0x0 PUSH1 0x60 DUP4 ADD MSTORE PUSH1 0x0 PUSH1 0x80 DUP4 ADD MSTORE PUSH1 0x60 PUSH1 0xA0 DUP4 ADD MSTORE PUSH1 0x0 PUSH1 0xC0 DUP4 ADD MSTORE PUSH1 0x0 PUSH1 0xE0 DUP4 ADD MSTORE PUSH1 0x0 PUSH2 0x100 DUP1 SWAP4 ADD MSTORE PUSH1 0x4 CALLDATALOAD PUSH1 0x0 MSTORE PUSH1 0x3 DUP2 MSTORE PUSH1 0x40 PUSH1 0x0 KECCAK256 PUSH1 0x40 MLOAD DUP1 SWAP4 PUSH2 0x1C0E DUP3 PUSH2 0x1F8C JUMP JUMPDEST DUP3 SLOAD DUP3 MSTORE PUSH1 0x1 DUP4 ADD SLOAD PUSH1 0x1 PUSH1 0x1 PUSH1 0xA0 SHL SUB SWAP1 DUP2 AND DUP6 DUP5 ADD SWAP1 DUP2 MSTORE PUSH1 0x2 DUP6 ADD SLOAD DUP3 AND PUSH1 0x40 DUP6 ADD SWAP1 DUP2 MSTORE PUSH1 0x3 DUP7 ADD SLOAD PUSH1 0x60 DUP7 ADD SWAP1 DUP2 MSTORE PUSH1 0x4 DUP8 ADD SLOAD PUSH1 0x80 DUP8 ADD SWAP1 DUP2 MSTORE SWAP3 SWAP5 SWAP4 SWAP2 SWAP3 SWAP2 PUSH2 0x1C60 PUSH1 0x5 DUP10 ADD PUSH2 0x1FE5 JUMP JUMPDEST SWAP4 PUSH1 0xA0 DUP9 ADD SWAP5 DUP6 MSTORE DUP2 PUSH1 0xFF PUSH1 0x8 DUP2 PUSH1 0x6 DUP14 ADD SLOAD AND SWAP12 PUSH1 0xC0 DUP13 ADD SWAP13 ISZERO ISZERO DUP14 MSTORE PUSH1 0xE0 PUSH1 0x7 DUP3 ADD SLOAD SWAP13 ADD SWAP12 DUP13 MSTORE ADD SLOAD AND SWAP8 DUP8 DUP14 ADD SWAP9 ISZERO ISZERO DUP10 MSTORE DUP12 PUSH1 0x40 MLOAD SWAP14 DUP15 SWAP14 DUP15 MSTORE MLOAD SWAP1 DUP14 ADD MSTORE MLOAD AND PUSH1 0x40 DUP12 ADD MSTORE MLOAD AND PUSH1 0x60 DUP10 ADD MSTORE MLOAD PUSH1 0x80 DUP9 ADD MSTORE MLOAD PUSH1 0xA0 DUP8 ADD MSTORE MLOAD SWAP3 PUSH2 0x1CD8 PUSH2 0x120 SWAP5 DUP6 PUSH1 0xC0 DUP10 ADD MSTORE PUSH2 0x140 DUP9 ADD SWAP1 PUSH2 0x1E54 JUMP JUMPDEST SWAP5 MLOAD ISZERO ISZERO PUSH1 0xE0 DUP8 ADD MSTORE MLOAD SWAP1 DUP6 ADD MSTORE MLOAD ISZERO ISZERO SWAP1 DUP4 ADD MSTORE SUB SWAP1 RETURN JUMPDEST CALLVALUE PUSH2 0x177 JUMPI PUSH1 0x0 CALLDATASIZE PUSH1 0x3 NOT ADD SLT PUSH2 0x177 JUMPI PUSH1 0x20 PUSH1 0x40 MLOAD PUSH5 0x174876E800 DUP2 MSTORE RETURN JUMPDEST CALLVALUE PUSH2 0x177 JUMPI PUSH1 0x20 CALLDATASIZE PUSH1 0x3 NOT ADD SLT PUSH2 0x177 JUMPI PUSH1 0x1 PUSH1 0x1 PUSH1 0xA0 SHL SUB PUSH2 0x1D32 PUSH2 0x1E3E JUMP JUMPDEST AND PUSH1 0x0 MSTORE PUSH1 0x2 PUSH1 0x20 MSTORE PUSH2 0x160 PUSH1 0x40 PUSH1 0x0 KECCAK256 DUP1 SLOAD SWAP1 PUSH1 0x1 DUP2 ADD SLOAD SWAP1 PUSH1 0x2 DUP2 ADD SLOAD PUSH1 0x3 DUP3 ADD SLOAD PUSH1 0x4 DUP4 ADD SLOAD PUSH1 0x5 DUP5 ADD SLOAD PUSH1 0xFF PUSH1 0x6 DUP7 ADD SLOAD AND SWAP2 PUSH1 0x7 DUP7 ADD SLOAD SWAP4 PUSH1 0x8 DUP8 ADD SLOAD SWAP6 PUSH1 0xA PUSH1 0x9 DUP10 ADD SLOAD SWAP9 ADD SLOAD SWAP9 PUSH1 0x40 MLOAD SWAP11 DUP12 MSTORE PUSH1 0x20 DUP12 ADD MSTORE PUSH1 0x40 DUP11 ADD MSTORE PUSH1 0x60 DUP10 ADD MSTORE PUSH1 0x80 DUP9 ADD MSTORE PUSH1 0xA0 DUP8 ADD MSTORE ISZERO ISZERO PUSH1 0xC0 DUP7 ADD MSTORE PUSH1 0xE0 DUP6 ADD MSTORE PUSH2 0x100 DUP5 ADD MSTORE PUSH2 0x120 DUP4 ADD MSTORE PUSH2 0x140 DUP3 ADD MSTORE RETURN JUMPDEST CALLVALUE PUSH2 0x177 JUMPI PUSH1 0x0 CALLDATASIZE PUSH1 0x3 NOT ADD SLT PUSH2 0x177 JUMPI PUSH1 0x40 MLOAD PUSH32 0x0 PUSH1 0x1 PUSH1 0x1 PUSH1 0xA0 SHL SUB AND DUP2 MSTORE PUSH1 0x20 SWAP1 RETURN JUMPDEST CALLVALUE PUSH2 0x177 JUMPI PUSH1 0x0 CALLDATASIZE PUSH1 0x3 NOT ADD SLT PUSH2 0x177 JUMPI PUSH1 0x20 PUSH1 0x40 MLOAD PUSH2 0x1F4 DUP2 MSTORE RETURN JUMPDEST CALLVALUE PUSH2 0x177 JUMPI PUSH1 0x0 CALLDATASIZE PUSH1 0x3 NOT ADD SLT PUSH2 0x177 JUMPI PUSH1 0x20 PUSH1 0x40 MLOAD PUSH2 0x12C DUP2 MSTORE RETURN JUMPDEST PUSH1 0x4 CALLDATALOAD SWAP1 PUSH1 0x1 PUSH1 0x1 PUSH1 0xA0 SHL SUB DUP3 AND DUP3 SUB PUSH2 0x177 JUMPI JUMP JUMPDEST SWAP2 SWAP1 DUP3 MLOAD SWAP3 DUP4 DUP3 MSTORE PUSH1 0x0 JUMPDEST DUP5 DUP2 LT PUSH2 0x1E80 JUMPI POP POP DUP3 PUSH1 0x0 PUSH1 0x20 DUP1 SWAP5 SWAP6 DUP5 ADD ADD MSTORE PUSH1 0x1F DUP1 NOT SWAP2 ADD AND ADD ADD SWAP1 JUMP JUMPDEST PUSH1 0x20 DUP2 DUP4 ADD DUP2 ADD MLOAD DUP5 DUP4 ADD DUP3 ADD MSTORE ADD PUSH2 0x1E5F JUMP JUMPDEST DUP1 SLOAD DUP3 LT ISZERO PUSH2 0x1EAC JUMPI PUSH1 0x0 MSTORE PUSH1 0x20 PUSH1 0x0 KECCAK256 ADD SWAP1 PUSH1 0x0 SWAP1 JUMP JUMPDEST PUSH4 0x4E487B71 PUSH1 0xE0 SHL PUSH1 0x0 MSTORE PUSH1 0x32 PUSH1 0x4 MSTORE PUSH1 0x24 PUSH1 0x0 REVERT JUMPDEST SWAP1 DUP2 MLOAD DUP1 DUP3 MSTORE PUSH1 0x20 DUP1 DUP1 SWAP4 ADD SWAP4 ADD SWAP2 PUSH1 0x0 JUMPDEST DUP3 DUP2 LT PUSH2 0x1EE2 JUMPI POP POP POP POP SWAP1 JUMP JUMPDEST DUP4 MLOAD DUP6 MSTORE SWAP4 DUP2 ADD SWAP4 SWAP3 DUP2 ADD SWAP3 PUSH1 0x1 ADD PUSH2 0x1ED4 JUMP JUMPDEST SWAP2 DUP2 PUSH1 0x1F DUP5 ADD SLT ISZERO PUSH2 0x177 JUMPI DUP3 CALLDATALOAD SWAP2 PUSH1 0x1 PUSH1 0x1 PUSH1 0x40 SHL SUB DUP4 GT PUSH2 0x177 JUMPI PUSH1 0x20 DUP4 DUP2 DUP7 ADD SWAP6 ADD ADD GT PUSH2 0x177 JUMPI JUMP JUMPDEST PUSH1 0x40 SWAP1 PUSH1 0x3 NOT ADD SLT PUSH2 0x177 JUMPI PUSH1 0x4 CALLDATALOAD PUSH1 0x1 PUSH1 0x1 PUSH1 0xA0 SHL SUB DUP2 AND DUP2 SUB PUSH2 0x177 JUMPI SWAP1 PUSH1 0x24 CALLDATALOAD DUP1 ISZERO ISZERO DUP2 SUB PUSH2 0x177 JUMPI SWAP1 JUMP JUMPDEST SWAP1 PUSH1 0x1 DUP3 DUP2 SHR SWAP3 AND DUP1 ISZERO PUSH2 0x1F82 JUMPI JUMPDEST PUSH1 0x20 DUP4 LT EQ PUSH2 0x1F6C JUMPI JUMP JUMPDEST PUSH4 0x4E487B71 PUSH1 0xE0 SHL PUSH1 0x0 MSTORE PUSH1 0x22 PUSH1 0x4 MSTORE PUSH1 0x24 PUSH1 0x0 REVERT JUMPDEST SWAP2 PUSH1 0x7F AND SWAP2 PUSH2 0x1F61 JUMP JUMPDEST PUSH2 0x120 DUP2 ADD SWAP1 DUP2 LT PUSH1 0x1 PUSH1 0x1 PUSH1 0x40 SHL SUB DUP3 GT OR PUSH2 0x8C2 JUMPI PUSH1 0x40 MSTORE JUMP JUMPDEST PUSH2 0x160 DUP2 ADD SWAP1 DUP2 LT PUSH1 0x1 PUSH1 0x1 PUSH1 0x40 SHL SUB DUP3 GT OR PUSH2 0x8C2 JUMPI PUSH1 0x40 MSTORE JUMP JUMPDEST SWAP1 PUSH1 0x1F DUP1 NOT SWAP2 ADD AND DUP2 ADD SWAP1 DUP2 LT PUSH1 0x1 PUSH1 0x1 PUSH1 0x40 SHL SUB DUP3 GT OR PUSH2 0x8C2 JUMPI PUSH1 0x40 MSTORE JUMP JUMPDEST SWAP1 PUSH1 0x40 MLOAD SWAP2 DUP3 PUSH1 0x0 DUP3 SLOAD SWAP3 PUSH2 0x1FF9 DUP5 PUSH2 0x1F52 JUMP JUMPDEST SWAP1 DUP2 DUP5 MSTORE PUSH1 0x1 SWAP5 DUP6 DUP2 AND SWAP1 DUP2 PUSH1 0x0 EQ PUSH2 0x2068 JUMPI POP PUSH1 0x1 EQ PUSH2 0x2025 JUMPI JUMPDEST POP POP PUSH2 0x2023 SWAP3 POP SUB DUP4 PUSH2 0x1FC4 JUMP JUMPDEST JUMP JUMPDEST SWAP1 SWAP4 SWAP2 POP PUSH1 0x0 MSTORE PUSH1 0x20 SWAP1 DUP2 PUSH1 0x0 KECCAK256 SWAP4 PUSH1 0x0 SWAP2 JUMPDEST DUP2 DUP4 LT PUSH2 0x2050 JUMPI POP POP PUSH2 0x2023 SWAP4 POP DUP3 ADD ADD CODESIZE DUP1 PUSH2 0x2015 JUMP JUMPDEST DUP6 SLOAD DUP9 DUP5 ADD DUP6 ADD MSTORE SWAP5 DUP6 ADD SWAP5 DUP8 SWAP5 POP SWAP2 DUP4 ADD SWAP2 PUSH2 0x2038 JUMP JUMPDEST SWAP2 POP POP PUSH2 0x2023 SWAP5 POP PUSH1 0x20 SWAP3 POP PUSH1 0xFF NOT AND DUP3 DUP5 ADD MSTORE ISZERO ISZERO PUSH1 0x5 SHL DUP3 ADD ADD CODESIZE DUP1 PUSH2 0x2015 JUMP JUMPDEST PUSH1 0x1 SLOAD PUSH1 0x1 PUSH1 0x1 PUSH1 0xA0 SHL SUB AND CALLER SUB PUSH2 0x209F JUMPI JUMP JUMPDEST PUSH1 0x64 PUSH1 0x40 MLOAD PUSH3 0x461BCD PUSH1 0xE5 SHL DUP2 MSTORE PUSH1 0x20 PUSH1 0x4 DUP3 ADD MSTORE PUSH1 0x20 PUSH1 0x24 DUP3 ADD MSTORE PUSH32 0x4F776E61626C653A2063616C6C6572206973206E6F7420746865206F776E6572 PUSH1 0x44 DUP3 ADD MSTORE REVERT JUMPDEST ISZERO PUSH2 0x20EA JUMPI JUMP JUMPDEST PUSH1 0x40 MLOAD PUSH3 0x461BCD PUSH1 0xE5 SHL DUP2 MSTORE PUSH1 0x20 PUSH1 0x4 DUP3 ADD MSTORE PUSH1 0x1D PUSH1 0x24 DUP3 ADD MSTORE PUSH32 0x416D6F756E74206D7573742062652067726561746572207468616E2030000000 PUSH1 0x44 DUP3 ADD MSTORE PUSH1 0x64 SWAP1 REVERT JUMPDEST ISZERO PUSH2 0x2136 JUMPI JUMP JUMPDEST PUSH1 0x40 MLOAD PUSH3 0x461BCD PUSH1 0xE5 SHL DUP2 MSTORE PUSH1 0x20 PUSH1 0x4 DUP3 ADD MSTORE PUSH1 0x1C PUSH1 0x24 DUP3 ADD MSTORE PUSH32 0x416D6F756E742065786365656473206D6178696D756D206C696D697400000000 PUSH1 0x44 DUP3 ADD MSTORE PUSH1 0x64 SWAP1 REVERT JUMPDEST DUP2 DUP2 MUL SWAP3 SWAP2 DUP2 ISZERO SWAP2 DUP5 DIV EQ OR ISZERO PUSH2 0x11A8 JUMPI JUMP JUMPDEST SWAP2 SWAP1 DUP3 ADD DUP1 SWAP3 GT PUSH2 0x11A8 JUMPI JUMP JUMPDEST SWAP3 SWAP2 SWAP3 PUSH1 0x1 PUSH1 0x1 PUSH1 0x40 SHL SUB DUP3 GT PUSH2 0x8C2 JUMPI PUSH1 0x40 MLOAD SWAP2 PUSH2 0x21C4 PUSH1 0x1F DUP3 ADD PUSH1 0x1F NOT AND PUSH1 0x20 ADD DUP5 PUSH2 0x1FC4 JUMP JUMPDEST DUP3 SWAP5 DUP2 DUP5 MSTORE DUP2 DUP4 ADD GT PUSH2 0x177 JUMPI DUP3 DUP2 PUSH1 0x20 SWAP4 DUP5 PUSH1 0x0 SWAP7 ADD CALLDATACOPY ADD ADD MSTORE JUMP JUMPDEST DUP1 SLOAD PUSH9 0x10000000000000000 DUP2 LT ISZERO PUSH2 0x8C2 JUMPI PUSH2 0x2203 SWAP2 PUSH1 0x1 DUP3 ADD DUP2 SSTORE PUSH2 0x1E94 JUMP JUMPDEST DUP2 SWAP3 SWAP2 SLOAD SWAP1 PUSH1 0x3 SHL SWAP2 DUP3 SHL SWAP2 PUSH1 0x0 NOT SWAP1 SHL NOT AND OR SWAP1 SSTORE JUMP JUMPDEST SWAP2 SWAP1 DUP3 SUB SWAP2 DUP3 GT PUSH2 0x11A8 JUMPI JUMP JUMPDEST SWAP1 DUP2 PUSH1 0x20 SWAP2 SUB SLT PUSH2 0x177 JUMPI MLOAD DUP1 ISZERO ISZERO DUP2 SUB PUSH2 0x177 JUMPI SWAP1 JUMP JUMPDEST ISZERO PUSH2 0x2247 JUMPI JUMP JUMPDEST PUSH1 0x40 MLOAD PUSH3 0x461BCD PUSH1 0xE5 SHL DUP2 MSTORE PUSH1 0x20 PUSH1 0x4 DUP3 ADD MSTORE PUSH1 0x14 PUSH1 0x24 DUP3 ADD MSTORE PUSH20 0x1554D110C81D1C985B9CD9995C8819985A5B1959 PUSH1 0x62 SHL PUSH1 0x44 DUP3 ADD MSTORE PUSH1 0x64 SWAP1 REVERT JUMPDEST SWAP1 DUP1 PUSH1 0x20 SWAP4 SWAP3 DUP2 DUP5 MSTORE DUP5 DUP5 ADD CALLDATACOPY PUSH1 0x0 DUP3 DUP3 ADD DUP5 ADD MSTORE PUSH1 0x1F ADD PUSH1 0x1F NOT AND ADD ADD SWAP1 JUMP JUMPDEST PUSH1 0x2 PUSH1 0x0 SLOAD EQ PUSH2 0x22B5 JUMPI PUSH1 0x2 PUSH1 0x0 SSTORE JUMP JUMPDEST PUSH1 0x40 MLOAD PUSH3 0x461BCD PUSH1 0xE5 SHL DUP2 MSTORE PUSH1 0x20 PUSH1 0x4 DUP3 ADD MSTORE PUSH1 0x1F PUSH1 0x24 DUP3 ADD MSTORE PUSH32 0x5265656E7472616E637947756172643A207265656E7472616E742063616C6C00 PUSH1 0x44 DUP3 ADD MSTORE PUSH1 0x64 SWAP1 REVERT JUMPDEST SWAP1 PUSH1 0x40 MLOAD SWAP2 DUP3 DUP2 SLOAD SWAP2 DUP3 DUP3 MSTORE PUSH1 0x20 SWAP3 DUP4 DUP4 ADD SWAP2 PUSH1 0x0 MSTORE DUP4 PUSH1 0x0 KECCAK256 SWAP4 PUSH1 0x0 SWAP1 JUMPDEST DUP3 DUP3 LT PUSH2 0x232F JUMPI POP POP POP PUSH2 0x2023 SWAP3 POP SUB DUP4 PUSH2 0x1FC4 JUMP JUMPDEST DUP6 SLOAD DUP5 MSTORE PUSH1 0x1 SWAP6 DUP7 ADD SWAP6 DUP9 SWAP6 POP SWAP4 DUP2 ADD SWAP4 SWAP1 SWAP2 ADD SWAP1 PUSH2 0x2319 JUMP JUMPDEST PUSH1 0x0 DUP1 SWAP2 PUSH1 0x1 DUP1 PUSH1 0xA0 SHL SUB AND SWAP1 DUP2 DUP4 MSTORE PUSH1 0x20 SWAP2 PUSH1 0x2 DUP4 MSTORE PUSH1 0x40 SWAP3 DUP4 DUP6 KECCAK256 SWAP4 PUSH1 0x2 DUP6 ADD SLOAD SWAP3 DUP4 ISZERO PUSH2 0x24B7 JUMPI SWAP1 PUSH2 0x238C SWAP3 SWAP2 PUSH1 0x4 DUP1 SWAP8 ADD SLOAD PUSH3 0x15180 SWAP5 DUP6 SWAP2 TIMESTAMP PUSH2 0x221B JUMP JUMPDEST DIV SWAP5 DUP1 PUSH1 0x2 SHL SWAP1 DUP2 DIV DUP9 SUB PUSH2 0x24A4 JUMPI PUSH2 0x23A9 PUSH2 0x2710 SWAP7 DUP8 SWAP3 PUSH2 0x217B JUMP JUMPDEST DIV SWAP1 DUP9 MSTORE PUSH1 0x5 DUP1 DUP5 MSTORE PUSH2 0x23BD DUP4 DUP11 KECCAK256 PUSH2 0x22FA JUMP JUMPDEST SWAP2 DUP10 JUMPDEST DUP4 MLOAD DUP2 LT ISZERO PUSH2 0x2496 JUMPI DUP6 DUP2 DUP5 SHL DUP6 ADD ADD MLOAD DUP12 MSTORE PUSH1 0x3 DUP1 DUP8 MSTORE DUP6 DUP13 KECCAK256 SWAP1 PUSH1 0xFF DUP1 PUSH1 0x6 DUP5 ADD SLOAD AND ISZERO SWAP1 DUP2 PUSH2 0x2487 JUMPI JUMPDEST POP DUP1 PUSH2 0x247A JUMPI JUMPDEST PUSH2 0x241F JUMPI JUMPDEST POP POP PUSH1 0x0 NOT DUP2 EQ PUSH2 0x240C JUMPI PUSH1 0x1 ADD PUSH2 0x23C0 JUMP JUMPDEST PUSH4 0x4E487B71 PUSH1 0xE0 SHL DUP12 MSTORE PUSH1 0x11 DUP11 MSTORE PUSH1 0x24 DUP12 REVERT JUMPDEST DUP9 PUSH2 0x2431 PUSH1 0x7 DUP5 SWAP14 SWAP6 SWAP14 ADD SLOAD TIMESTAMP PUSH2 0x221B JUMP JUMPDEST DIV SWAP2 ADD SLOAD PUSH2 0x1F4 SWAP1 DUP2 DUP2 MUL SWAP2 DUP2 DUP4 DIV EQ SWAP1 ISZERO OR ISZERO PUSH2 0x2467 JUMPI PUSH2 0x2458 PUSH2 0x245F SWAP4 SWAP3 DUP12 SWAP3 PUSH2 0x217B JUMP JUMPDEST DIV SWAP1 PUSH2 0x218E JUMP JUMPDEST SWAP8 CODESIZE DUP1 PUSH2 0x23F9 JUMP JUMPDEST PUSH4 0x4E487B71 PUSH1 0xE0 SHL DUP14 MSTORE PUSH1 0x11 DUP13 MSTORE PUSH1 0x24 DUP14 REVERT JUMPDEST POP PUSH1 0x7 DUP3 ADD SLOAD TIMESTAMP GT PUSH2 0x23F4 JUMP JUMPDEST SWAP1 POP PUSH1 0x8 DUP4 ADD SLOAD AND ISZERO CODESIZE PUSH2 0x23ED JUMP JUMPDEST POP SWAP10 SWAP8 POP POP POP POP POP POP POP SWAP2 POP JUMP JUMPDEST PUSH4 0x4E487B71 PUSH1 0xE0 SHL DUP10 MSTORE PUSH1 0x11 DUP9 MSTORE PUSH1 0x24 DUP10 REVERT JUMPDEST POP POP POP POP POP POP SWAP1 DUP2 SWAP1 JUMP JUMPDEST PUSH2 0x1F4 SWAP2 PUSH2 0x3E8 DUP2 GT ISZERO PUSH2 0x25E6 JUMPI POP SWAP1 PUSH1 0xC8 DUP2 ADD DUP1 SWAP2 GT PUSH2 0x11A8 JUMPI SWAP1 JUMPDEST PUSH1 0x1 PUSH1 0x1 PUSH1 0xA0 SHL SUB AND PUSH1 0x0 SWAP1 DUP2 MSTORE PUSH1 0x2 PUSH1 0x20 MSTORE PUSH1 0x40 DUP2 KECCAK256 PUSH1 0x7 DUP2 ADD SLOAD SWAP1 DUP2 ISZERO SWAP1 DUP2 ISZERO PUSH2 0x2531 JUMPI JUMPDEST POP POP POP POP PUSH2 0x12C DUP1 DUP3 LT PUSH2 0x2529 JUMPI JUMPDEST POP PUSH2 0x352 DUP1 DUP3 GT PUSH2 0x2524 JUMPI POP SWAP1 JUMP JUMPDEST SWAP1 POP SWAP1 JUMP JUMPDEST SWAP1 POP CODESIZE PUSH2 0x2515 JUMP JUMPDEST PUSH1 0x8 ADD SLOAD SWAP1 PUSH1 0x64 DUP3 MUL SWAP2 DUP1 DUP4 DIV PUSH1 0x64 EQ SWAP1 ISZERO OR ISZERO PUSH2 0x25D2 JUMPI PUSH2 0x25BE JUMPI DIV PUSH1 0x5F DUP2 GT ISZERO PUSH2 0x2582 JUMPI POP PUSH1 0x64 DUP3 ADD DUP1 SWAP3 GT PUSH2 0x256E JUMPI POP JUMPDEST CODESIZE DUP1 DUP1 DUP1 PUSH2 0x2506 JUMP JUMPDEST PUSH4 0x4E487B71 PUSH1 0xE0 SHL DUP2 MSTORE PUSH1 0x11 PUSH1 0x4 MSTORE PUSH1 0x24 SWAP1 REVERT JUMPDEST PUSH1 0x50 DUP2 GT ISZERO PUSH2 0x259D JUMPI POP PUSH1 0x32 DUP3 ADD DUP1 SWAP3 GT PUSH2 0x256E JUMPI POP PUSH2 0x2565 JUMP JUMPDEST PUSH1 0x32 GT PUSH2 0x25AB JUMPI JUMPDEST POP PUSH2 0x2565 JUMP JUMPDEST PUSH1 0x63 NOT DUP3 ADD SWAP2 DUP3 GT PUSH2 0x256E JUMPI POP CODESIZE PUSH2 0x25A5 JUMP JUMPDEST PUSH4 0x4E487B71 PUSH1 0xE0 SHL DUP4 MSTORE PUSH1 0x12 PUSH1 0x4 MSTORE PUSH1 0x24 DUP4 REVERT JUMPDEST PUSH4 0x4E487B71 PUSH1 0xE0 SHL DUP5 MSTORE PUSH1 0x11 PUSH1 0x4 MSTORE PUSH1 0x24 DUP5 REVERT JUMPDEST DUP3 DUP2 GT ISZERO PUSH2 0x2601 JUMPI POP SWAP1 PUSH1 0x64 DUP2 ADD DUP1 SWAP2 GT PUSH2 0x11A8 JUMPI SWAP1 PUSH2 0x24DF JUMP JUMPDEST PUSH1 0x64 LT ISZERO PUSH2 0x24DF JUMPI PUSH2 0x226 SWAP2 POP PUSH2 0x24DF JUMP JUMPDEST SWAP1 PUSH2 0x2EE DUP2 LT ISZERO PUSH2 0x2680 JUMPI PUSH2 0x28A DUP2 LT ISZERO PUSH2 0x2665 JUMPI PUSH2 0x226 GT ISZERO PUSH2 0x264B JUMPI PUSH1 0x28 DUP2 MUL SWAP1 DUP1 DUP3 DIV PUSH1 0x28 EQ SWAP1 ISZERO OR ISZERO PUSH2 0x11A8 JUMPI PUSH1 0x64 SWAP1 DIV SWAP1 JUMP JUMPDEST PUSH1 0x3C DUP2 MUL SWAP1 DUP1 DUP3 DIV PUSH1 0x3C EQ SWAP1 ISZERO OR ISZERO PUSH2 0x11A8 JUMPI PUSH1 0x64 SWAP1 DIV SWAP1 JUMP JUMPDEST POP PUSH1 0x50 DUP2 MUL SWAP1 DUP1 DUP3 DIV PUSH1 0x50 EQ SWAP1 ISZERO OR ISZERO PUSH2 0x11A8 JUMPI PUSH1 0x64 SWAP1 DIV SWAP1 JUMP JUMPDEST POP SWAP1 JUMP INVALID LOG2 PUSH5 0x6970667358 0x22 SLT KECCAK256 LOG0 MUL 0xF6 PUSH8 0x3DB06390479BC7E5 PUSH5 0xB41F8DB65C PUSH1 0x82 PUSH12 0x7C57CB8711362CA25C67A464 PUSH20 0x6F6C634300081400330000000000000000000000 "},"methodIdentifiers":{"ANNUAL_INTEREST_RATE()":"b6783393","LATE_FEE_RATE()":"11661e3e","MAX_CREDIT_LIMIT()":"22b16a70","MAX_CREDIT_SCORE()":"54203e09","MIN_CREDIT_LIMIT()":"c938dafc","MIN_CREDIT_SCORE()":"0a49cf4d","MIN_PAYMENT_PERCENTAGE()":"56077675","REPAYMENT_PERIOD_DAYS()":"ff9d2e27","calculateAccruedCharges(address)":"e8186e56","creditFactors(address)":"a2f7c70d","getContractStats()":"dfe6b5d6","getTransaction(uint256)":"33ea3dc8","getUserCreditProfile(address)":"6b0ad6fe","getUserTransactions(address)":"ef925399","merchants(address)":"ee14e939","owner()":"8da5cb5b","registerMerchant(address,string,string,uint256)":"b8e77d7b","renounceOwnership()":"715018a6","repay(uint256)":"371fd8e6","setMerchantWhitelist(address,bool)":"9712c91b","setUserCreditStatus(address,bool)":"983c82ab","setupUserCredit(address,uint256,uint256)":"eaabf093","spend(address,uint256,string)":"6e3f5764","transactions(uint256)":"9ace38c2","transferOwnership(address)":"f2fde38b","usdcToken()":"11eac855","userCredits(address)":"20babb92","userTransactionIds(address,uint256)":"46227037","withdraw()":"3ccfd60b"}}}}}