{"contracts/SwipeFiCreditV3.sol":{"SwipeFiCreditV3":{"abi":[{"inputs":[{"internalType":"address","name":"_usdcToken","type":"address"},{"internalType":"address","name":"_spndToken","type":"address"}],"stateMutability":"nonpayable","type":"constructor"},{"anonymous":false,"inputs":[{"indexed":true,"internalType":"address","name":"user","type":"address"},{"indexed":false,"internalType":"uint256","name":"amount","type":"uint256"}],"name":"BTCCashbackClaimed","type":"event"},{"anonymous":false,"inputs":[{"indexed":true,"internalType":"address","name":"user","type":"address"},{"indexed":false,"internalType":"uint256","name":"amount","type":"uint256"},{"indexed":false,"internalType":"uint256","name":"transactionId","type":"uint256"}],"name":"BTCCashbackEarned","type":"event"},{"anonymous":false,"inputs":[{"indexed":true,"internalType":"address","name":"user","type":"address"},{"indexed":false,"internalType":"uint256","name":"limit","type":"uint256"},{"indexed":false,"internalType":"uint256","name":"creditScore","type":"uint256"}],"name":"CreditLimitSet","type":"event"},{"anonymous":false,"inputs":[{"indexed":true,"internalType":"uint256","name":"transactionId","type":"uint256"},{"indexed":true,"internalType":"address","name":"user","type":"address"},{"indexed":false,"internalType":"uint256","name":"amount","type":"uint256"},{"indexed":false,"internalType":"uint256","name":"newBalance","type":"uint256"}],"name":"CreditRepaid","type":"event"},{"anonymous":false,"inputs":[{"indexed":true,"internalType":"address","name":"user","type":"address"},{"indexed":false,"internalType":"uint256","name":"newScore","type":"uint256"},{"indexed":false,"internalType":"uint256","name":"factors","type":"uint256"}],"name":"CreditScoreUpdated","type":"event"},{"anonymous":false,"inputs":[{"indexed":true,"internalType":"uint256","name":"transactionId","type":"uint256"},{"indexed":true,"internalType":"address","name":"user","type":"address"},{"indexed":true,"internalType":"address","name":"merchant","type":"address"},{"indexed":false,"internalType":"uint256","name":"amount","type":"uint256"},{"indexed":false,"internalType":"string","name":"purpose","type":"string"},{"indexed":false,"internalType":"uint256","name":"dueDate","type":"uint256"},{"indexed":false,"internalType":"uint256","name":"spndRewards","type":"uint256"},{"indexed":false,"internalType":"uint256","name":"btcCashback","type":"uint256"}],"name":"CreditSpent","type":"event"},{"anonymous":false,"inputs":[{"indexed":true,"internalType":"address","name":"user","type":"address"},{"indexed":false,"internalType":"uint256","name":"amount","type":"uint256"}],"name":"InterestAccrued","type":"event"},{"anonymous":false,"inputs":[{"indexed":true,"internalType":"address","name":"user","type":"address"},{"indexed":false,"internalType":"uint256","name":"amount","type":"uint256"},{"indexed":false,"internalType":"uint256","name":"dueDate","type":"uint256"}],"name":"LateFeeAccrued","type":"event"},{"anonymous":false,"inputs":[{"indexed":true,"internalType":"address","name":"merchant","type":"address"},{"indexed":false,"internalType":"string","name":"name","type":"string"},{"indexed":false,"internalType":"string","name":"category","type":"string"}],"name":"MerchantRegistered","type":"event"},{"anonymous":false,"inputs":[{"indexed":true,"internalType":"address","name":"merchant","type":"address"},{"indexed":false,"internalType":"bool","name":"status","type":"bool"}],"name":"MerchantWhitelisted","type":"event"},{"anonymous":false,"inputs":[{"indexed":true,"internalType":"address","name":"previousOwner","type":"address"},{"indexed":true,"internalType":"address","name":"newOwner","type":"address"}],"name":"OwnershipTransferred","type":"event"},{"anonymous":false,"inputs":[{"indexed":true,"internalType":"address","name":"user","type":"address"},{"indexed":false,"internalType":"uint256","name":"amount","type":"uint256"}],"name":"SPNDRewardsClaimed","type":"event"},{"anonymous":false,"inputs":[{"indexed":true,"internalType":"address","name":"user","type":"address"},{"indexed":false,"internalType":"uint256","name":"amount","type":"uint256"},{"indexed":false,"internalType":"uint256","name":"transactionId","type":"uint256"}],"name":"SPNDRewardsEarned","type":"event"},{"anonymous":false,"inputs":[{"indexed":true,"internalType":"address","name":"owner","type":"address"},{"indexed":false,"internalType":"uint256","name":"amount","type":"uint256"}],"name":"Withdrawal","type":"event"},{"inputs":[],"name":"ANNUAL_INTEREST_RATE","outputs":[{"internalType":"uint256","name":"","type":"uint256"}],"stateMutability":"view","type":"function"},{"inputs":[],"name":"BASE_SPND_REWARD_RATE","outputs":[{"internalType":"uint256","name":"","type":"uint256"}],"stateMutability":"view","type":"function"},{"inputs":[],"name":"BTC_CASHBACK_RATE","outputs":[{"internalType":"uint256","name":"","type":"uint256"}],"stateMutability":"view","type":"function"},{"inputs":[],"name":"EXPONENTIAL_MULTIPLIER","outputs":[{"internalType":"uint256","name":"","type":"uint256"}],"stateMutability":"view","type":"function"},{"inputs":[],"name":"LATE_FEE_RATE","outputs":[{"internalType":"uint256","name":"","type":"uint256"}],"stateMutability":"view","type":"function"},{"inputs":[],"name":"MAX_CREDIT_LIMIT","outputs":[{"internalType":"uint256","name":"","type":"uint256"}],"stateMutability":"view","type":"function"},{"inputs":[],"name":"MAX_CREDIT_SCORE","outputs":[{"internalType":"uint256","name":"","type":"uint256"}],"stateMutability":"view","type":"function"},{"inputs":[],"name":"MIN_CREDIT_LIMIT","outputs":[{"internalType":"uint256","name":"","type":"uint256"}],"stateMutability":"view","type":"function"},{"inputs":[],"name":"MIN_CREDIT_SCORE","outputs":[{"internalType":"uint256","name":"","type":"uint256"}],"stateMutability":"view","type":"function"},{"inputs":[],"name":"MIN_PAYMENT_PERCENTAGE","outputs":[{"internalType":"uint256","name":"","type":"uint256"}],"stateMutability":"view","type":"function"},{"inputs":[],"name":"REPAYMENT_PERIOD_DAYS","outputs":[{"internalType":"uint256","name":"","type":"uint256"}],"stateMutability":"view","type":"function"},{"inputs":[],"name":"SPND_REWARD_TIER_SIZE","outputs":[{"internalType":"uint256","name":"","type":"uint256"}],"stateMutability":"view","type":"function"},{"inputs":[{"internalType":"address","name":"user","type":"address"}],"name":"calculateAccruedCharges","outputs":[{"internalType":"uint256","name":"interest","type":"uint256"},{"internalType":"uint256","name":"lateFees","type":"uint256"}],"stateMutability":"view","type":"function"},{"inputs":[],"name":"claimBTCCashback","outputs":[],"stateMutability":"nonpayable","type":"function"},{"inputs":[{"internalType":"address","name":"","type":"address"}],"name":"creditFactors","outputs":[{"internalType":"uint256","name":"transactionHistory","type":"uint256"},{"internalType":"uint256","name":"paymentHistory","type":"uint256"},{"internalType":"uint256","name":"creditUtilization","type":"uint256"},{"internalType":"uint256","name":"accountAge","type":"uint256"},{"internalType":"uint256","name":"onchainActivity","type":"uint256"}],"stateMutability":"view","type":"function"},{"inputs":[],"name":"getContractStats","outputs":[{"internalType":"uint256","name":"totalUsers","type":"uint256"},{"internalType":"uint256","name":"totalVolume","type":"uint256"},{"internalType":"uint256","name":"totalOutstanding","type":"uint256"},{"internalType":"uint256","name":"totalMerchants","type":"uint256"}],"stateMutability":"view","type":"function"},{"inputs":[{"internalType":"uint256","name":"transactionId","type":"uint256"}],"name":"getTransaction","outputs":[{"components":[{"internalType":"uint256","name":"id","type":"uint256"},{"internalType":"address","name":"user","type":"address"},{"internalType":"address","name":"merchant","type":"address"},{"internalType":"uint256","name":"amount","type":"uint256"},{"internalType":"uint256","name":"timestamp","type":"uint256"},{"internalType":"string","name":"purpose","type":"string"},{"internalType":"bool","name":"isRepayment","type":"bool"},{"internalType":"uint256","name":"dueDate","type":"uint256"},{"internalType":"bool","name":"isPaid","type":"bool"},{"internalType":"uint256","name":"spndRewards","type":"uint256"},{"internalType":"uint256","name":"btcCashback","type":"uint256"}],"internalType":"struct SwipeFiCreditV3.Transaction","name":"","type":"tuple"}],"stateMutability":"view","type":"function"},{"inputs":[{"internalType":"address","name":"user","type":"address"}],"name":"getUserCreditProfile","outputs":[{"components":[{"internalType":"uint256","name":"maxCreditLimit","type":"uint256"},{"internalType":"uint256","name":"availableCredit","type":"uint256"},{"internalType":"uint256","name":"outstandingBalance","type":"uint256"},{"internalType":"uint256","name":"creditScore","type":"uint256"},{"internalType":"uint256","name":"lastPaymentDate","type":"uint256"},{"internalType":"uint256","name":"lastSpendDate","type":"uint256"},{"internalType":"bool","name":"isActive","type":"bool"},{"internalType":"uint256","name":"totalSpent","type":"uint256"},{"internalType":"uint256","name":"totalRepaid","type":"uint256"},{"internalType":"uint256","name":"lateFeesAccrued","type":"uint256"},{"internalType":"uint256","name":"interestAccrued","type":"uint256"},{"internalType":"uint256","name":"spndRewardsEarned","type":"uint256"},{"internalType":"uint256","name":"btcCashbackEarned","type":"uint256"},{"internalType":"uint256","name":"spndRewardsClaimed","type":"uint256"},{"internalType":"uint256","name":"btcCashbackClaimed","type":"uint256"}],"internalType":"struct SwipeFiCreditV3.UserCredit","name":"credit","type":"tuple"},{"internalType":"uint256[]","name":"transactionIds","type":"uint256[]"},{"internalType":"uint256","name":"accruedInterest","type":"uint256"},{"internalType":"uint256","name":"accruedLateFees","type":"uint256"}],"stateMutability":"view","type":"function"},{"inputs":[{"internalType":"address","name":"user","type":"address"}],"name":"getUserRewards","outputs":[{"internalType":"uint256","name":"spndEarned","type":"uint256"},{"internalType":"uint256","name":"spndClaimed","type":"uint256"},{"internalType":"uint256","name":"btcEarned","type":"uint256"},{"internalType":"uint256","name":"btcClaimed","type":"uint256"},{"internalType":"uint256","name":"spndAvailable","type":"uint256"},{"internalType":"uint256","name":"btcAvailable","type":"uint256"}],"stateMutability":"view","type":"function"},{"inputs":[{"internalType":"address","name":"user","type":"address"}],"name":"getUserTransactions","outputs":[{"internalType":"uint256[]","name":"","type":"uint256[]"}],"stateMutability":"view","type":"function"},{"inputs":[{"internalType":"address","name":"","type":"address"}],"name":"merchants","outputs":[{"internalType":"string","name":"name","type":"string"},{"internalType":"string","name":"category","type":"string"},{"internalType":"bool","name":"isWhitelisted","type":"bool"},{"internalType":"uint256","name":"maxTransactionLimit","type":"uint256"},{"internalType":"uint256","name":"totalVolume","type":"uint256"}],"stateMutability":"view","type":"function"},{"inputs":[],"name":"owner","outputs":[{"internalType":"address","name":"","type":"address"}],"stateMutability":"view","type":"function"},{"inputs":[{"internalType":"address","name":"merchant","type":"address"},{"internalType":"string","name":"name","type":"string"},{"internalType":"string","name":"category","type":"string"},{"internalType":"uint256","name":"maxTransactionLimit","type":"uint256"}],"name":"registerMerchant","outputs":[],"stateMutability":"nonpayable","type":"function"},{"inputs":[],"name":"renounceOwnership","outputs":[],"stateMutability":"nonpayable","type":"function"},{"inputs":[{"internalType":"uint256","name":"amount","type":"uint256"}],"name":"repay","outputs":[],"stateMutability":"nonpayable","type":"function"},{"inputs":[{"internalType":"address","name":"merchant","type":"address"},{"internalType":"bool","name":"status","type":"bool"}],"name":"setMerchantWhitelist","outputs":[],"stateMutability":"nonpayable","type":"function"},{"inputs":[{"internalType":"address","name":"user","type":"address"},{"internalType":"bool","name":"status","type":"bool"}],"name":"setUserCreditStatus","outputs":[],"stateMutability":"nonpayable","type":"function"},{"inputs":[{"internalType":"address","name":"user","type":"address"},{"internalType":"uint256","name":"requestedLimit","type":"uint256"},{"internalType":"uint256","name":"onchainActivity","type":"uint256"}],"name":"setupUserCredit","outputs":[],"stateMutability":"nonpayable","type":"function"},{"inputs":[{"internalType":"address","name":"user","type":"address"},{"internalType":"uint256","name":"amount","type":"uint256"},{"internalType":"string","name":"purpose","type":"string"}],"name":"spend","outputs":[],"stateMutability":"nonpayable","type":"function"},{"inputs":[],"name":"spndToken","outputs":[{"internalType":"contract ISpendToken","name":"","type":"address"}],"stateMutability":"view","type":"function"},{"inputs":[{"internalType":"uint256","name":"","type":"uint256"}],"name":"transactions","outputs":[{"internalType":"uint256","name":"id","type":"uint256"},{"internalType":"address","name":"user","type":"address"},{"internalType":"address","name":"merchant","type":"address"},{"internalType":"uint256","name":"amount","type":"uint256"},{"internalType":"uint256","name":"timestamp","type":"uint256"},{"internalType":"string","name":"purpose","type":"string"},{"internalType":"bool","name":"isRepayment","type":"bool"},{"internalType":"uint256","name":"dueDate","type":"uint256"},{"internalType":"bool","name":"isPaid","type":"bool"},{"internalType":"uint256","name":"spndRewards","type":"uint256"},{"internalType":"uint256","name":"btcCashback","type":"uint256"}],"stateMutability":"view","type":"function"},{"inputs":[{"internalType":"address","name":"newOwner","type":"address"}],"name":"transferOwnership","outputs":[],"stateMutability":"nonpayable","type":"function"},{"inputs":[],"name":"usdcToken","outputs":[{"internalType":"contract IERC20","name":"","type":"address"}],"stateMutability":"view","type":"function"},{"inputs":[{"internalType":"address","name":"","type":"address"}],"name":"userCredits","outputs":[{"internalType":"uint256","name":"maxCreditLimit","type":"uint256"},{"internalType":"uint256","name":"availableCredit","type":"uint256"},{"internalType":"uint256","name":"outstandingBalance","type":"uint256"},{"internalType":"uint256","name":"creditScore","type":"uint256"},{"internalType":"uint256","name":"lastPaymentDate","type":"uint256"},{"internalType":"uint256","name":"lastSpendDate","type":"uint256"},{"internalType":"bool","name":"isActive","type":"bool"},{"internalType":"uint256","name":"totalSpent","type":"uint256"},{"internalType":"uint256","name":"totalRepaid","type":"uint256"},{"internalType":"uint256","name":"lateFeesAccrued","type":"uint256"},{"internalType":"uint256","name":"interestAccrued","type":"uint256"},{"internalType":"uint256","name":"spndRewardsEarned","type":"uint256"},{"internalType":"uint256","name":"btcCashbackEarned","type":"uint256"},{"internalType":"uint256","name":"spndRewardsClaimed","type":"uint256"},{"internalType":"uint256","name":"btcCashbackClaimed","type":"uint256"}],"stateMutability":"view","type":"function"},{"inputs":[{"internalType":"address","name":"","type":"address"},{"internalType":"uint256","name":"","type":"uint256"}],"name":"userTransactionIds","outputs":[{"internalType":"uint256","name":"","type":"uint256"}],"stateMutability":"view","type":"function"},{"inputs":[],"name":"withdraw","outputs":[],"stateMutability":"nonpayable","type":"function"}],"evm":{"bytecode":{"linkReferences":{},"object":"60c0346200019557601f62002ef338819003918201601f19168301916001600160401b038311848410176200019a57808492604094855283398101031262000195576200005a60206200005283620001b0565b9201620001b0565b600160008181558154336001600160a01b031982168117909355604051946001600160a01b039493859391929091908416907f8be0079c531659141344cd1fd0a4f28419497f9722a3daafe3b4186f6b6457e09080a316928315620001535750169081156200010e5760805260a052604051612d2d9081620001c68239608051818181610e4a0152818161134801528181611a4901528181611c7e01526123ca015260a051818181611431015261198a0152f35b60405162461bcd60e51b815260206004820152601460248201527f496e76616c69642053504e4420616464726573730000000000000000000000006044820152606490fd5b62461bcd60e51b815260206004820152601460248201527f496e76616c6964205553444320616464726573730000000000000000000000006044820152606490fd5b600080fd5b634e487b7160e01b600052604160045260246000fd5b51906001600160a01b0382168203620001955756fe6080604052600436101561001257600080fd5b60003560e01c8063078b0fb7146124165780630a49cf4d1461195257806311661e3e146123f957806311eac855146123b457806313de53a21461239857806320babb92146122bb57806322b16a701461229b57806333ea3dc8146120f5578063371fd8e614611bc75780633ccfd60b14611a1157806346227037146119b95780634770e3c91461197457806354203e091461195757806356077675146119525780636b0ad6fe1461172e5780636e3f576414610f92578063715018a614610f355780637371f30f14610dcd5780638284befb14610db15780638da5cb5b14610d885780639712c91b14610cb3578063983c82ab14610c6e5780639aa1c64a14610c525780639ace38c214610b88578063a2f7c70d14610b22578063b678339314610b05578063b8e77d7b14610696578063c938dafc14610677578063dfe6b5d614610646578063e3482f4114610627578063e8186e56146105f8578063eaabf09314610376578063ee14e939146102df578063ef9253991461028d578063f2fde38b146101c95763ff9d2e27146101a857600080fd5b346101c45760003660031901126101c4576020604051601e8152f35b600080fd5b346101c45760203660031901126101c4576101e2612494565b6101ea6126fe565b6001600160a01b0390811690811561023957600154826001600160601b0360a01b821617600155167f8be0079c531659141344cd1fd0a4f28419497f9722a3daafe3b4186f6b6457e0600080a3005b60405162461bcd60e51b815260206004820152602660248201527f4f776e61626c653a206e6577206f776e657220697320746865207a65726f206160448201526564647265737360d01b6064820152608490fd5b346101c45760203660031901126101c4576001600160a01b036102ae612494565b1660005260056020526102db6102c7604060002061296d565b604051918291602083526020830190612535565b0390f35b346101c45760203660031901126101c4576001600160a01b03610300612494565b166000526004602052610352604060002061031a81612658565b9061032760018201612658565b60ff60028301541691610360600460038301549201549260405196879660a0885260a08801906124c7565b9086820360208801526124c7565b9215156040850152606084015260808301520390f35b346101c45760603660031901126101c45761038f612494565b6024359061039b6126fe565b6001600160a01b038116156105bc576305f5e10082106105815764174876e80082116105465760407f9041c75488c26967b7ff124314a3051af63a1580f92c595ba3e93a83ad82799e916103fb6103f460443583612b35565b8095612c86565b9382516104078161261b565b858152856020820152600084820152816060820152426080820152600060a0820152600160c0820152600060e08201526000610100820152600061012082015260006101408201526000610160820152600061018082015260006101a082015260006101c082015260018060a01b0383166000526002602052600e6101c085600020928051845560208101516001850155868101516002850155606081015160038501556080810151600485015560a081015160058501556104de60c08201511515600686019060ff801983541691151516179055565b60e0810151600785015561010081015160088501556101208101516009850155610140810151600a850155610160810151600b850155610180810151600c8501556101a0810151600d8501550151910155825194855260208501526001600160a01b031692a2005b60405162461bcd60e51b81526020600482015260136024820152724c696d69742061626f7665206d6178696d756d60681b6044820152606490fd5b60405162461bcd60e51b81526020600482015260136024820152724c696d69742062656c6f77206d696e696d756d60681b6044820152606490fd5b60405162461bcd60e51b8152602060048201526014602482015273496e76616c69642075736572206164647265737360601b6044820152606490fd5b346101c45760203660031901126101c457604061061b610616612494565b6129bc565b82519182526020820152f35b346101c45760003660031901126101c4576020604051633b9aca008152f35b346101c45760003660031901126101c457608060405160008152600060208201526000604082015260006060820152f35b346101c45760003660031901126101c45760206040516305f5e1008152f35b346101c45760803660031901126101c4576106af612494565b6024356001600160401b0381116101c4576106ce903690600401612569565b91906044356001600160401b0381116101c4576106ef903690600401612569565b9390926106fa6126fe565b6001600160a01b03811615610ac0578115610a82576040519460a086018681106001600160401b038211176109a55760405261073736848661280e565b865261074436828761280e565b60208701526000604087015260643560608701526000608087015260018060a01b0382166000526004602052604060002086518051906001600160401b0382116109a557819061079484546125c5565b601f8111610a32575b50602090601f83116001146109c6576000926109bb575b50508160011b916000199060031b1c19161781555b60208701519687516001600160401b0381116109a5576107ec60018401546125c5565b601f811161095e575b506020601f82116001146108c2576108b295949392826004936080937f7476726b1d8882ab8352f5af9fb6c3dfab81c79b6a107ef114d5472393a759539c9d6000926108b7575b50508160011b916000199060031b1c19161760018501555b61087360408201511515600286019060ff801983541691151516179055565b6060810151600385015501519101556108996040519586956040875260408701916128f6565b84810360208601526001600160a01b03909216966128f6565b0390a2005b015190508d8061083c565b6001840160005260206000209960005b601f19841681106109465750926001837f7476726b1d8882ab8352f5af9fb6c3dfab81c79b6a107ef114d5472393a759539b9c6080946108b29a999897600497601f1981161061092d575b505050811b016001850155610854565b015160001960f88460031b161c191690558d808061091d565b828201518c556001909b019a602092830192016108d2565b600184016000526020600020601f830160051c81016020841061099e575b601f830160051c820181106109925750506107f5565b6000815560010161097c565b508061097c565b634e487b7160e01b600052604160045260246000fd5b0151905089806107b4565b9250836000526020600020906000935b601f1984168510610a17576001945083601f198116106109fe575b505050811b0181556107c9565b015160001960f88460031b161c191690558980806109f1565b818101518355602094850194600190930192909101906109d6565b909150836000526020600020601f840160051c810160208510610a7b575b90849392915b601f830160051c82018110610a6c57505061079d565b60008155859450600101610a56565b5080610a50565b60405162461bcd60e51b815260206004820152601660248201527513595c98da185b9d081b985b59481c995c5d5a5c995960521b6044820152606490fd5b60405162461bcd60e51b815260206004820152601860248201527f496e76616c6964206d65726368616e74206164647265737300000000000000006044820152606490fd5b346101c45760003660031901126101c45760206040516105dc8152f35b346101c45760203660031901126101c4576001600160a01b03610b43612494565b16600052600660205260a06040600020805490600181015490600281015460046003830154920154926040519485526020850152604084015260608301526080820152f35b346101c45760203660031901126101c45760043560005260036020526040600020805460018060a01b03918260018201541692600282015416600382015491600481015492610bd960058301612658565b93610c2d60ff6006850154169560078501549260ff60088701541694600a6009880154970154976040519b8c9b8c5260208c015260408b015260608a015260808901526101608060a08a01528801906124c7565b94151560c087015260e086015215156101008501526101208401526101408301520390f35b346101c45760003660031901126101c457602060405160328152f35b346101c457610cb1610c7f36612596565b90610c886126fe565b60018060a01b0316600052600260205260066040600020019060ff801983541691151516179055565b005b346101c457610cc136612596565b90610cca6126fe565b60018060a01b031690816000526004602052610cea6040600020546125c5565b15610d435760207ff9695fa7a4a836707ecab51a8a8622de8e7ff1c77a40da1935e9cdbd4260ce30918360005260048252610d388160026040600020019060ff801983541691151516179055565b6040519015158152a2005b60405162461bcd60e51b815260206004820152601760248201527f4d65726368616e74206e6f7420726567697374657265640000000000000000006044820152606490fd5b346101c45760003660031901126101c4576001546040516001600160a01b039091168152602090f35b346101c45760003660031901126101c457602060405160648152f35b346101c45760003660031901126101c457610de6612917565b33600052602060028152604060002090600e600c8301549201610e0b8154809461288e565b928315610ef05783610e1c91612801565b905560405163a9059cbb60e01b81523360048201526024810183905290808260448160006001600160a01b037f0000000000000000000000000000000000000000000000000000000000000000165af1918215610ee4577fd3c14526b5dcefb77a6af86a722718191295da83ccc21809a97ed38c3bc8b97692610ea791600091610eb7575b506128b3565b6040519283523392a26001600055005b610ed79150833d8511610edd575b610ecf8183612637565b81019061289b565b85610ea1565b503d610ec5565b6040513d6000823e3d90fd5b60405162461bcd60e51b815260048101849052601860248201527f4e6f2042544320636173686261636b20746f20636c61696d00000000000000006044820152606490fd5b346101c45760003660031901126101c457610f4e6126fe565b600180546001600160a01b031981169091556000906001600160a01b03167f8be0079c531659141344cd1fd0a4f28419497f9722a3daafe3b4186f6b6457e08280a3005b346101c45760603660031901126101c457610fab612494565b6044356001600160401b0381116101c457610fca903690600401612569565b9033600052600460205260ff60026040600020015416156116e9576001600160a01b03831660009081526002602052604090206006015460ff16156116ab576110166024351515612756565b61102964174876e80060243511156127a2565b611031612917565b60018060a01b03831660005260026020526040600020903360005260046020526040600020926024356001840154106116705760038401546024351161163257633b9aca0060078401540460328102908082046032149015171561161c578060640160641161161c576110ac612710916064016024356127ee565b04936024356019602435020460191460243515171561161c57600160075401938460075562278d004201421161161c576040516110e8816125ff565b8581526001600160a01b0388166020820152336040820152602435606082015242608082015261111936858761280e565b60a0820152600060c082015262278d00420160e082015260006101008201528661012082015261271060196024350204610140820152856000526003602052604060002090805182556001820160018060a01b03602083015116906001600160601b0360a01b9182825416179055600283019060018060a01b0360408401511690825416179055606081015160038301556080810151600483015560a08101518051906001600160401b0382116109a5576111d760058501546125c5565b601f81116115d5575b50602090601f831160011461155857600496959383600c9694600a946101409460009261154d575b50508160011b916000199060031b1c19161760058501555b61123f60c08201511515600686019060ff801983541691151516179055565b60e081015160078501556112696101008201511515600886019060ff801983541691151516179055565b6101208101516009850155015191015560018060a01b0389166000526005602052611298876040600020612854565b6112a8602435600183015461288e565b6001820155600281016112be6024358254612801565b90554260058201556112d66024356007830154612801565b6007820155600b81016112ea898254612801565b905501611301612710601960243502048254612801565b9055016113116024358254612801565b90556040516323b872dd60e01b81523060048201523360248083019190915235604482015260208160648160006001600160a01b037f0000000000000000000000000000000000000000000000000000000000000000165af18015610ee4576113819160009161152e57506128b3565b83611400575b6113c67fa0881164b8aee5df47056b7ca63d30cac436f45555e33665f95bf3eac8caa1b99260405192602435845260a0602085015260a08401916128f6565b4262278d00016040830152606082019490945261271060243560190204608082015233946001600160a01b03169381900390a46001600055005b6040516340c10f1960e01b81526001600160a01b0386166004820152602481018590526020818060448101038160007f00000000000000000000000000000000000000000000000000000000000000006001600160a01b03165af1908115610ee45760009161150f575b50156114d7576113c67fa0881164b8aee5df47056b7ca63d30cac436f45555e33665f95bf3eac8caa1b9926040518681528560208201527f9cbf5aabed084bcc07e28417e9aa86f51f9bb81331f0fe3361271085fa0a62f8604060018060a01b038a1692a2925050611387565b60405162461bcd60e51b815260206004820152601060248201526f14d41391081b5a5b9d0819985a5b195960821b6044820152606490fd5b611528915060203d602011610edd57610ecf8183612637565b8661146a565b611547915060203d602011610edd57610ecf8183612637565b87610ea1565b015190508f80611208565b906005850160005260206000209160005b601f19851681106115bd575093600184600a946101409460049b9a98600c9a98601f198116106115a4575b505050811b016005850155611220565b015160001960f88460031b161c191690558f8080611594565b91926020600181928685015181550194019201611569565b600585016000526020600020601f840160051c810160208510611615575b601f830160051c820181106116095750506111e0565b600081556001016115f3565b50806115f3565b634e487b7160e01b600052601160045260246000fd5b60405162461bcd60e51b8152602060048201526016602482015275115e18d959591cc81b595c98da185b9d081b1a5b5a5d60521b6044820152606490fd5b60405162461bcd60e51b8152602060048201526013602482015272125b9cdd59999a58da595b9d0818dc99591a5d606a1b6044820152606490fd5b60405162461bcd60e51b81526020600482015260166024820152755573657220637265646974206e6f742061637469766560501b6044820152606490fd5b60405162461bcd60e51b815260206004820152601860248201527f4d65726368616e74206e6f742077686974656c697374656400000000000000006044820152606490fd5b346101c45760203660031901126101c4576101c061174a612494565b6000826040516117598161261b565b8281528260208201528260408201528260608201528260808201528260a08201528260c08201528260e08201528261010082015282610120820152826101408201528261016082015282610180820152826101a082015201526117bb816129bc565b9160018060a01b03166000526002602052604060002091600560205261194161188d6040600020600e604051966117f18861261b565b8054885260018101546020890152600281015460408901526003810154606089015260048101546080890152600581015460a089015260ff600682015416151560c0890152600781015460e089015260088101546101008901526009810154610120890152600a810154610140890152600b810154610160890152600c810154610180890152600d8101546101a089015201548787015261296d565b604051958587965187526020810151602088015260408101516040880152606081015160608801526080810151608088015260a081015160a088015260c0810151151560c088015260e081015160e08801526101008101516101008801526101208101516101208801526101408101516101408801526101608101516101608801526101808101516101808801526101a08101516101a088015201516101c0860152610240806101e0870152850190612535565b916102008401526102208301520390f35b6124aa565b346101c45760003660031901126101c45760206040516103528152f35b346101c45760003660031901126101c4576040517f00000000000000000000000000000000000000000000000000000000000000006001600160a01b03168152602090f35b346101c45760403660031901126101c4576119d2612494565b6001600160a01b03166000908152600560205260409020805460243591908210156101c457602091611a0391612507565b90546040519160031b1c8152f35b346101c45760003660031901126101c457611a2a6126fe565b6040516370a0823160e01b815230600482015260206001600160a01b037f000000000000000000000000000000000000000000000000000000000000000081168284602481845afa938415610ee457600094611b98575b508315611b5d5760015460405163a9059cbb60e01b81529083166001600160a01b03166004820152602481018590529083908290816000816044810103925af1908115610ee457600091611b40575b5015611b0757907f7fcf532c15f0a6db0bd6d0e038bea71d30d808c7d98cb3bf7268a95bf5081b65916001541692604051908152a2005b60405162461bcd60e51b815260048101839052601160248201527015da5d1a191c985dd85b0819985a5b1959607a1b6044820152606490fd5b611b579150833d8511610edd57610ecf8183612637565b84611ad0565b60405162461bcd60e51b81526004810184905260136024820152724e6f205553444320746f20776974686472617760681b6044820152606490fd5b9093508281813d8311611bc0575b611bb08183612637565b810103126101c457519284611a81565b503d611ba6565b346101c45760203660031901126101c457611be56004351515612756565b611bf864174876e80060043511156127a2565b611c00612917565b336000526002602052604060002060ff600682015416156120bc5760043560028201541061207757611c786020611c4b611c46611c3c336129bc565b9190600435612801565b612801565b6040516323b872dd60e01b8152336004820152306024820152604481019190915291829081906064820190565b038160007f00000000000000000000000000000000000000000000000000000000000000006001600160a01b03165af18015610ee457611cbf9160009161205857506128b3565b6001600754018060075560405191611cd6836125ff565b8183523360208401526000604084015260043560608401524260808401526040518060408101106001600160401b036040830111176109a55760408101604052601081526f10dc99591a5d0814995c185e5b595b9d60821b602082015260a0840152600160c0840152600060e08401526001610100840152600061012084015260006101408401528160005260036020526040600020835181556001810160018060a01b03602086015116906001600160601b0360a01b9182825416179055600282019060018060a01b0360408701511690825416179055606084015160038201556080840151600482015560a08401518051906001600160401b0382116109a557611de560058401546125c5565b601f8111612011575b50602090601f8311600114611f98579582600a936101409360029899600092611f8d575b50508160011b916000199060031b1c19161760058501555b611e4960c08201511515600686019060ff801983541691151516179055565b60e08101516007850155611e736101008201511515600886019060ff801983541691151516179055565b61012081015160098501550151910155336000526005602052611e9a836040600020612854565b611ea96004358383015461288e565b8282015560018101611ebe6004358254612801565b905542600482015560088101611ed76004358254612801565b90556000600a820155600060098201553360005281602052604060002060078101546003611f058233612b35565b920180548303611f51575b50505001549060405191600435835260208301527fb3dc754e3cd0adca79aedb0cf9cbcada6b0ed980dbb9d384b635f283985b968760403393a36001600055005b82905560405191825260208201527f4f43648f37bc26ee5bc39c60c1c1e2481a9fb9feb9f86419c91b4645585ff3bc60403392a2838080611f10565b015190508980611e12565b906005840160005260206000209160005b601f1985168110611ff9575083610140936002989993600193600a97601f19811610611fe0575b505050811b016005850155611e2a565b015160001960f88460031b161c19169055898080611fd0565b91926020600181928685015181550194019201611fa9565b600584016000526020600020601f840160051c810160208510612051575b601f830160051c82018110612045575050611dee565b6000815560010161202f565b508061202f565b612071915060203d602011610edd57610ecf8183612637565b83610ea1565b60405162461bcd60e51b815260206004820152601c60248201527f526570617920616d6f756e7420657863656564732062616c616e6365000000006044820152606490fd5b60405162461bcd60e51b8152602060048201526011602482015270437265646974206e6f742061637469766560781b6044820152606490fd5b346101c45760203660031901126101c4576000610140604051612117816125ff565b828152826020820152826040820152826060820152826080820152606060a08201528260c08201528260e08201528261010082015282610120820152015260043560005260036020526040600020600a60405191612174836125ff565b8054835260018101546001600160a01b039081166020850152600282015416604084015260038101546060840152600481015460808401526121b860058201612658565b60a084015260ff600682015416151560c0840152600781015460e084015260ff6008820154161515610100840152600981015461012084015201546101408201526040518091602082528051602083015260018060a01b03602082015116604083015260018060a01b03604082015116606083015260608101516080830152608081015160a083015260a0810151610140612261610160928360c08701526101808601906124c7565b9260c0810151151560e086015260e08101516101008601526101008101511515610120860152610120810151828601520151908301520390f35b346101c45760003660031901126101c457602060405164174876e8008152f35b346101c45760203660031901126101c4576001600160a01b036122dc612494565b166000526002602052604060002080546001820154916002810154600382015460048301546005840154600685015460ff166007860154600887015491600988015493600a89015495600b8a015497600c8b015499600d8c01549b600e01549c6040519e8f91825260208201526040015260608d015260808c015260a08b0152151560c08a015260e08901526101008801526101208701526101408601526101608501526101808401526101a08301526101c08201526101e090f35b346101c45760003660031901126101c457602060405160198152f35b346101c45760003660031901126101c4576040517f00000000000000000000000000000000000000000000000000000000000000006001600160a01b03168152602090f35b346101c45760003660031901126101c45760206040516101f48152f35b346101c45760203660031901126101c4576001600160a01b03612437612494565b16600052600260205260c06040600020600b81015490600d81015490600e600c820154910154612467838561288e565b91612472828261288e565b93604051958652602086015260408501526060840152608083015260a0820152f35b600435906001600160a01b03821682036101c457565b346101c45760003660031901126101c457602060405161012c8152f35b919082519283825260005b8481106124f3575050826000602080949584010152601f8019910116010190565b6020818301810151848301820152016124d2565b805482101561251f5760005260206000200190600090565b634e487b7160e01b600052603260045260246000fd5b90815180825260208080930193019160005b828110612555575050505090565b835185529381019392810192600101612547565b9181601f840112156101c4578235916001600160401b0383116101c457602083818601950101116101c457565b60409060031901126101c4576004356001600160a01b03811681036101c4579060243580151581036101c45790565b90600182811c921680156125f5575b60208310146125df57565b634e487b7160e01b600052602260045260246000fd5b91607f16916125d4565b61016081019081106001600160401b038211176109a557604052565b6101e081019081106001600160401b038211176109a557604052565b90601f801991011681019081106001600160401b038211176109a557604052565b906040519182600082549261266c846125c5565b9081845260019485811690816000146126db5750600114612698575b505061269692500383612637565b565b9093915060005260209081600020936000915b8183106126c357505061269693508201013880612688565b855488840185015294850194879450918301916126ab565b91505061269694506020925060ff191682840152151560051b8201013880612688565b6001546001600160a01b0316330361271257565b606460405162461bcd60e51b815260206004820152602060248201527f4f776e61626c653a2063616c6c6572206973206e6f7420746865206f776e65726044820152fd5b1561275d57565b60405162461bcd60e51b815260206004820152601d60248201527f416d6f756e74206d7573742062652067726561746572207468616e20300000006044820152606490fd5b156127a957565b60405162461bcd60e51b815260206004820152601c60248201527f416d6f756e742065786365656473206d6178696d756d206c696d6974000000006044820152606490fd5b8181029291811591840414171561161c57565b9190820180921161161c57565b9291926001600160401b0382116109a55760405191612837601f8201601f191660200184612637565b8294818452818301116101c4578281602093846000960137010152565b8054680100000000000000008110156109a55761287691600182018155612507565b819291549060031b91821b91600019901b1916179055565b9190820391821161161c57565b908160209103126101c4575180151581036101c45790565b156128ba57565b60405162461bcd60e51b81526020600482015260146024820152731554d110c81d1c985b9cd9995c8819985a5b195960621b6044820152606490fd5b908060209392818452848401376000828201840152601f01601f1916010190565b600260005414612928576002600055565b60405162461bcd60e51b815260206004820152601f60248201527f5265656e7472616e637947756172643a207265656e7472616e742063616c6c006044820152606490fd5b9060405191828154918282526020928383019160005283600020936000905b8282106129a25750505061269692500383612637565b85548452600195860195889550938101939091019061298c565b6000809160018060a01b03169081835260209160028352604092838520936002850154928315612b2a57906129ff9291600480970154620151809485914261288e565b04948060021b9081048803612b1757612a1c6127109687926127ee565b049088526005808452612a30838a2061296d565b91895b8351811015612b09578581841b850101518b526003808752858c209060ff80600684015416159081612afa575b5080612aed575b612a92575b50506000198114612a7f57600101612a33565b634e487b7160e01b8b5260118a5260248bfd5b88612aa46007849d959d01544261288e565b049101546101f490818102918183041490151715612ada57612acb612ad293928b926127ee565b0490612801565b973880612a6c565b634e487b7160e01b8d5260118c5260248dfd5b5060078201544211612a67565b90506008830154161538612a60565b509997505050505050509150565b634e487b7160e01b895260118852602489fd5b505050505050908190565b6101f4916103e8811115612c5957509060c8810180911161161c57905b6001600160a01b031660009081526002602052604081206007810154908115908115612ba4575b5050505061012c808210612b9c575b50610352808211612b97575090565b905090565b905038612b88565b6008015490606482029180830460641490151715612c4557612c315704605f811115612bf5575060648201809211612be157505b38808080612b79565b634e487b7160e01b81526011600452602490fd5b6050811115612c10575060328201809211612be15750612bd8565b603211612c1e575b50612bd8565b6063198201918211612be1575038612c18565b634e487b7160e01b83526012600452602483fd5b634e487b7160e01b84526011600452602484fd5b82811115612c745750906064810180911161161c5790612b52565b60641015612b52576102269150612b52565b906102ee811015612cf35761028a811015612cd8576102261115612cbe5760288102908082046028149015171561161c576064900490565b603c810290808204603c149015171561161c576064900490565b5060508102908082046050149015171561161c576064900490565b509056fea2646970667358221220ba4356b8e6a176745457987ddd25781a38fc62c0f03659cfba802d15b6bc1bc064736f6c63430008140033","opcodes":"PUSH1 0xC0 CALLVALUE PUSH3 0x195 JUMPI PUSH1 0x1F PUSH3 0x2EF3 CODESIZE DUP2 SWAP1 SUB SWAP2 DUP3 ADD PUSH1 0x1F NOT AND DUP4 ADD SWAP2 PUSH1 0x1 PUSH1 0x1 PUSH1 0x40 SHL SUB DUP4 GT DUP5 DUP5 LT OR PUSH3 0x19A JUMPI DUP1 DUP5 SWAP3 PUSH1 0x40 SWAP5 DUP6 MSTORE DUP4 CODECOPY DUP2 ADD SUB SLT PUSH3 0x195 JUMPI PUSH3 0x5A PUSH1 0x20 PUSH3 0x52 DUP4 PUSH3 0x1B0 JUMP JUMPDEST SWAP3 ADD PUSH3 0x1B0 JUMP JUMPDEST PUSH1 0x1 PUSH1 0x0 DUP2 DUP2 SSTORE DUP2 SLOAD CALLER PUSH1 0x1 PUSH1 0x1 PUSH1 0xA0 SHL SUB NOT DUP3 AND DUP2 OR SWAP1 SWAP4 SSTORE PUSH1 0x40 MLOAD SWAP5 PUSH1 0x1 PUSH1 0x1 PUSH1 0xA0 SHL SUB SWAP5 SWAP4 DUP6 SWAP4 SWAP2 SWAP3 SWAP1 SWAP2 SWAP1 DUP5 AND SWAP1 PUSH32 0x8BE0079C531659141344CD1FD0A4F28419497F9722A3DAAFE3B4186F6B6457E0 SWAP1 DUP1 LOG3 AND SWAP3 DUP4 ISZERO PUSH3 0x153 JUMPI POP AND SWAP1 DUP2 ISZERO PUSH3 0x10E JUMPI PUSH1 0x80 MSTORE PUSH1 0xA0 MSTORE PUSH1 0x40 MLOAD PUSH2 0x2D2D SWAP1 DUP2 PUSH3 0x1C6 DUP3 CODECOPY PUSH1 0x80 MLOAD DUP2 DUP2 DUP2 PUSH2 0xE4A ADD MSTORE DUP2 DUP2 PUSH2 0x1348 ADD MSTORE DUP2 DUP2 PUSH2 0x1A49 ADD MSTORE DUP2 DUP2 PUSH2 0x1C7E ADD MSTORE PUSH2 0x23CA ADD MSTORE PUSH1 0xA0 MLOAD DUP2 DUP2 DUP2 PUSH2 0x1431 ADD MSTORE PUSH2 0x198A ADD MSTORE RETURN JUMPDEST PUSH1 0x40 MLOAD PUSH3 0x461BCD PUSH1 0xE5 SHL DUP2 MSTORE PUSH1 0x20 PUSH1 0x4 DUP3 ADD MSTORE PUSH1 0x14 PUSH1 0x24 DUP3 ADD MSTORE PUSH32 0x496E76616C69642053504E442061646472657373000000000000000000000000 PUSH1 0x44 DUP3 ADD MSTORE PUSH1 0x64 SWAP1 REVERT JUMPDEST PUSH3 0x461BCD PUSH1 0xE5 SHL DUP2 MSTORE PUSH1 0x20 PUSH1 0x4 DUP3 ADD MSTORE PUSH1 0x14 PUSH1 0x24 DUP3 ADD MSTORE PUSH32 0x496E76616C696420555344432061646472657373000000000000000000000000 PUSH1 0x44 DUP3 ADD MSTORE PUSH1 0x64 SWAP1 REVERT JUMPDEST PUSH1 0x0 DUP1 REVERT JUMPDEST PUSH4 0x4E487B71 PUSH1 0xE0 SHL PUSH1 0x0 MSTORE PUSH1 0x41 PUSH1 0x4 MSTORE PUSH1 0x24 PUSH1 0x0 REVERT JUMPDEST MLOAD SWAP1 PUSH1 0x1 PUSH1 0x1 PUSH1 0xA0 SHL SUB DUP3 AND DUP3 SUB PUSH3 0x195 JUMPI JUMP INVALID PUSH1 0x80 PUSH1 0x40 MSTORE PUSH1 0x4 CALLDATASIZE LT ISZERO PUSH2 0x12 JUMPI PUSH1 0x0 DUP1 REVERT JUMPDEST PUSH1 0x0 CALLDATALOAD PUSH1 0xE0 SHR DUP1 PUSH4 0x78B0FB7 EQ PUSH2 0x2416 JUMPI DUP1 PUSH4 0xA49CF4D EQ PUSH2 0x1952 JUMPI DUP1 PUSH4 0x11661E3E EQ PUSH2 0x23F9 JUMPI DUP1 PUSH4 0x11EAC855 EQ PUSH2 0x23B4 JUMPI DUP1 PUSH4 0x13DE53A2 EQ PUSH2 0x2398 JUMPI DUP1 PUSH4 0x20BABB92 EQ PUSH2 0x22BB JUMPI DUP1 PUSH4 0x22B16A70 EQ PUSH2 0x229B JUMPI DUP1 PUSH4 0x33EA3DC8 EQ PUSH2 0x20F5 JUMPI DUP1 PUSH4 0x371FD8E6 EQ PUSH2 0x1BC7 JUMPI DUP1 PUSH4 0x3CCFD60B EQ PUSH2 0x1A11 JUMPI DUP1 PUSH4 0x46227037 EQ PUSH2 0x19B9 JUMPI DUP1 PUSH4 0x4770E3C9 EQ PUSH2 0x1974 JUMPI DUP1 PUSH4 0x54203E09 EQ PUSH2 0x1957 JUMPI DUP1 PUSH4 0x56077675 EQ PUSH2 0x1952 JUMPI DUP1 PUSH4 0x6B0AD6FE EQ PUSH2 0x172E JUMPI DUP1 PUSH4 0x6E3F5764 EQ PUSH2 0xF92 JUMPI DUP1 PUSH4 0x715018A6 EQ PUSH2 0xF35 JUMPI DUP1 PUSH4 0x7371F30F EQ PUSH2 0xDCD JUMPI DUP1 PUSH4 0x8284BEFB EQ PUSH2 0xDB1 JUMPI DUP1 PUSH4 0x8DA5CB5B EQ PUSH2 0xD88 JUMPI DUP1 PUSH4 0x9712C91B EQ PUSH2 0xCB3 JUMPI DUP1 PUSH4 0x983C82AB EQ PUSH2 0xC6E JUMPI DUP1 PUSH4 0x9AA1C64A EQ PUSH2 0xC52 JUMPI DUP1 PUSH4 0x9ACE38C2 EQ PUSH2 0xB88 JUMPI DUP1 PUSH4 0xA2F7C70D EQ PUSH2 0xB22 JUMPI DUP1 PUSH4 0xB6783393 EQ PUSH2 0xB05 JUMPI DUP1 PUSH4 0xB8E77D7B EQ PUSH2 0x696 JUMPI DUP1 PUSH4 0xC938DAFC EQ PUSH2 0x677 JUMPI DUP1 PUSH4 0xDFE6B5D6 EQ PUSH2 0x646 JUMPI DUP1 PUSH4 0xE3482F41 EQ PUSH2 0x627 JUMPI DUP1 PUSH4 0xE8186E56 EQ PUSH2 0x5F8 JUMPI DUP1 PUSH4 0xEAABF093 EQ PUSH2 0x376 JUMPI DUP1 PUSH4 0xEE14E939 EQ PUSH2 0x2DF JUMPI DUP1 PUSH4 0xEF925399 EQ PUSH2 0x28D JUMPI DUP1 PUSH4 0xF2FDE38B EQ PUSH2 0x1C9 JUMPI PUSH4 0xFF9D2E27 EQ PUSH2 0x1A8 JUMPI PUSH1 0x0 DUP1 REVERT JUMPDEST CALLVALUE PUSH2 0x1C4 JUMPI PUSH1 0x0 CALLDATASIZE PUSH1 0x3 NOT ADD SLT PUSH2 0x1C4 JUMPI PUSH1 0x20 PUSH1 0x40 MLOAD PUSH1 0x1E DUP2 MSTORE RETURN JUMPDEST PUSH1 0x0 DUP1 REVERT JUMPDEST CALLVALUE PUSH2 0x1C4 JUMPI PUSH1 0x20 CALLDATASIZE PUSH1 0x3 NOT ADD SLT PUSH2 0x1C4 JUMPI PUSH2 0x1E2 PUSH2 0x2494 JUMP JUMPDEST PUSH2 0x1EA PUSH2 0x26FE JUMP JUMPDEST PUSH1 0x1 PUSH1 0x1 PUSH1 0xA0 SHL SUB SWAP1 DUP2 AND SWAP1 DUP2 ISZERO PUSH2 0x239 JUMPI PUSH1 0x1 SLOAD DUP3 PUSH1 0x1 PUSH1 0x1 PUSH1 0x60 SHL SUB PUSH1 0xA0 SHL DUP3 AND OR PUSH1 0x1 SSTORE AND PUSH32 0x8BE0079C531659141344CD1FD0A4F28419497F9722A3DAAFE3B4186F6B6457E0 PUSH1 0x0 DUP1 LOG3 STOP JUMPDEST PUSH1 0x40 MLOAD PUSH3 0x461BCD PUSH1 0xE5 SHL DUP2 MSTORE PUSH1 0x20 PUSH1 0x4 DUP3 ADD MSTORE PUSH1 0x26 PUSH1 0x24 DUP3 ADD MSTORE PUSH32 0x4F776E61626C653A206E6577206F776E657220697320746865207A65726F2061 PUSH1 0x44 DUP3 ADD MSTORE PUSH6 0x646472657373 PUSH1 0xD0 SHL PUSH1 0x64 DUP3 ADD MSTORE PUSH1 0x84 SWAP1 REVERT JUMPDEST CALLVALUE PUSH2 0x1C4 JUMPI PUSH1 0x20 CALLDATASIZE PUSH1 0x3 NOT ADD SLT PUSH2 0x1C4 JUMPI PUSH1 0x1 PUSH1 0x1 PUSH1 0xA0 SHL SUB PUSH2 0x2AE PUSH2 0x2494 JUMP JUMPDEST AND PUSH1 0x0 MSTORE PUSH1 0x5 PUSH1 0x20 MSTORE PUSH2 0x2DB PUSH2 0x2C7 PUSH1 0x40 PUSH1 0x0 KECCAK256 PUSH2 0x296D JUMP JUMPDEST PUSH1 0x40 MLOAD SWAP2 DUP3 SWAP2 PUSH1 0x20 DUP4 MSTORE PUSH1 0x20 DUP4 ADD SWAP1 PUSH2 0x2535 JUMP JUMPDEST SUB SWAP1 RETURN JUMPDEST CALLVALUE PUSH2 0x1C4 JUMPI PUSH1 0x20 CALLDATASIZE PUSH1 0x3 NOT ADD SLT PUSH2 0x1C4 JUMPI PUSH1 0x1 PUSH1 0x1 PUSH1 0xA0 SHL SUB PUSH2 0x300 PUSH2 0x2494 JUMP JUMPDEST AND PUSH1 0x0 MSTORE PUSH1 0x4 PUSH1 0x20 MSTORE PUSH2 0x352 PUSH1 0x40 PUSH1 0x0 KECCAK256 PUSH2 0x31A DUP2 PUSH2 0x2658 JUMP JUMPDEST SWAP1 PUSH2 0x327 PUSH1 0x1 DUP3 ADD PUSH2 0x2658 JUMP JUMPDEST PUSH1 0xFF PUSH1 0x2 DUP4 ADD SLOAD AND SWAP2 PUSH2 0x360 PUSH1 0x4 PUSH1 0x3 DUP4 ADD SLOAD SWAP3 ADD SLOAD SWAP3 PUSH1 0x40 MLOAD SWAP7 DUP8 SWAP7 PUSH1 0xA0 DUP9 MSTORE PUSH1 0xA0 DUP9 ADD SWAP1 PUSH2 0x24C7 JUMP JUMPDEST SWAP1 DUP7 DUP3 SUB PUSH1 0x20 DUP9 ADD MSTORE PUSH2 0x24C7 JUMP JUMPDEST SWAP3 ISZERO ISZERO PUSH1 0x40 DUP6 ADD MSTORE PUSH1 0x60 DUP5 ADD MSTORE PUSH1 0x80 DUP4 ADD MSTORE SUB SWAP1 RETURN JUMPDEST CALLVALUE PUSH2 0x1C4 JUMPI PUSH1 0x60 CALLDATASIZE PUSH1 0x3 NOT ADD SLT PUSH2 0x1C4 JUMPI PUSH2 0x38F PUSH2 0x2494 JUMP JUMPDEST PUSH1 0x24 CALLDATALOAD SWAP1 PUSH2 0x39B PUSH2 0x26FE JUMP JUMPDEST PUSH1 0x1 PUSH1 0x1 PUSH1 0xA0 SHL SUB DUP2 AND ISZERO PUSH2 0x5BC JUMPI PUSH4 0x5F5E100 DUP3 LT PUSH2 0x581 JUMPI PUSH5 0x174876E800 DUP3 GT PUSH2 0x546 JUMPI PUSH1 0x40 PUSH32 0x9041C75488C26967B7FF124314A3051AF63A1580F92C595BA3E93A83AD82799E SWAP2 PUSH2 0x3FB PUSH2 0x3F4 PUSH1 0x44 CALLDATALOAD DUP4 PUSH2 0x2B35 JUMP JUMPDEST DUP1 SWAP6 PUSH2 0x2C86 JUMP JUMPDEST SWAP4 DUP3 MLOAD PUSH2 0x407 DUP2 PUSH2 0x261B JUMP JUMPDEST DUP6 DUP2 MSTORE DUP6 PUSH1 0x20 DUP3 ADD MSTORE PUSH1 0x0 DUP5 DUP3 ADD MSTORE DUP2 PUSH1 0x60 DUP3 ADD MSTORE TIMESTAMP PUSH1 0x80 DUP3 ADD MSTORE PUSH1 0x0 PUSH1 0xA0 DUP3 ADD MSTORE PUSH1 0x1 PUSH1 0xC0 DUP3 ADD MSTORE PUSH1 0x0 PUSH1 0xE0 DUP3 ADD MSTORE PUSH1 0x0 PUSH2 0x100 DUP3 ADD MSTORE PUSH1 0x0 PUSH2 0x120 DUP3 ADD MSTORE PUSH1 0x0 PUSH2 0x140 DUP3 ADD MSTORE PUSH1 0x0 PUSH2 0x160 DUP3 ADD MSTORE PUSH1 0x0 PUSH2 0x180 DUP3 ADD MSTORE PUSH1 0x0 PUSH2 0x1A0 DUP3 ADD MSTORE PUSH1 0x0 PUSH2 0x1C0 DUP3 ADD MSTORE PUSH1 0x1 DUP1 PUSH1 0xA0 SHL SUB DUP4 AND PUSH1 0x0 MSTORE PUSH1 0x2 PUSH1 0x20 MSTORE PUSH1 0xE PUSH2 0x1C0 DUP6 PUSH1 0x0 KECCAK256 SWAP3 DUP1 MLOAD DUP5 SSTORE PUSH1 0x20 DUP2 ADD MLOAD PUSH1 0x1 DUP6 ADD SSTORE DUP7 DUP2 ADD MLOAD PUSH1 0x2 DUP6 ADD SSTORE PUSH1 0x60 DUP2 ADD MLOAD PUSH1 0x3 DUP6 ADD SSTORE PUSH1 0x80 DUP2 ADD MLOAD PUSH1 0x4 DUP6 ADD SSTORE PUSH1 0xA0 DUP2 ADD MLOAD PUSH1 0x5 DUP6 ADD SSTORE PUSH2 0x4DE PUSH1 0xC0 DUP3 ADD MLOAD ISZERO ISZERO PUSH1 0x6 DUP7 ADD SWAP1 PUSH1 0xFF DUP1 NOT DUP4 SLOAD AND SWAP2 ISZERO ISZERO AND OR SWAP1 SSTORE JUMP JUMPDEST PUSH1 0xE0 DUP2 ADD MLOAD PUSH1 0x7 DUP6 ADD SSTORE PUSH2 0x100 DUP2 ADD MLOAD PUSH1 0x8 DUP6 ADD SSTORE PUSH2 0x120 DUP2 ADD MLOAD PUSH1 0x9 DUP6 ADD SSTORE PUSH2 0x140 DUP2 ADD MLOAD PUSH1 0xA DUP6 ADD SSTORE PUSH2 0x160 DUP2 ADD MLOAD PUSH1 0xB DUP6 ADD SSTORE PUSH2 0x180 DUP2 ADD MLOAD PUSH1 0xC DUP6 ADD SSTORE PUSH2 0x1A0 DUP2 ADD MLOAD PUSH1 0xD DUP6 ADD SSTORE ADD MLOAD SWAP2 ADD SSTORE DUP3 MLOAD SWAP5 DUP6 MSTORE PUSH1 0x20 DUP6 ADD MSTORE PUSH1 0x1 PUSH1 0x1 PUSH1 0xA0 SHL SUB AND SWAP3 LOG2 STOP JUMPDEST PUSH1 0x40 MLOAD PUSH3 0x461BCD PUSH1 0xE5 SHL DUP2 MSTORE PUSH1 0x20 PUSH1 0x4 DUP3 ADD MSTORE PUSH1 0x13 PUSH1 0x24 DUP3 ADD MSTORE PUSH19 0x4C696D69742061626F7665206D6178696D756D PUSH1 0x68 SHL PUSH1 0x44 DUP3 ADD MSTORE PUSH1 0x64 SWAP1 REVERT JUMPDEST PUSH1 0x40 MLOAD PUSH3 0x461BCD PUSH1 0xE5 SHL DUP2 MSTORE PUSH1 0x20 PUSH1 0x4 DUP3 ADD MSTORE PUSH1 0x13 PUSH1 0x24 DUP3 ADD MSTORE PUSH19 0x4C696D69742062656C6F77206D696E696D756D PUSH1 0x68 SHL PUSH1 0x44 DUP3 ADD MSTORE PUSH1 0x64 SWAP1 REVERT JUMPDEST PUSH1 0x40 MLOAD PUSH3 0x461BCD PUSH1 0xE5 SHL DUP2 MSTORE PUSH1 0x20 PUSH1 0x4 DUP3 ADD MSTORE PUSH1 0x14 PUSH1 0x24 DUP3 ADD MSTORE PUSH20 0x496E76616C696420757365722061646472657373 PUSH1 0x60 SHL PUSH1 0x44 DUP3 ADD MSTORE PUSH1 0x64 SWAP1 REVERT JUMPDEST CALLVALUE PUSH2 0x1C4 JUMPI PUSH1 0x20 CALLDATASIZE PUSH1 0x3 NOT ADD SLT PUSH2 0x1C4 JUMPI PUSH1 0x40 PUSH2 0x61B PUSH2 0x616 PUSH2 0x2494 JUMP JUMPDEST PUSH2 0x29BC JUMP JUMPDEST DUP3 MLOAD SWAP2 DUP3 MSTORE PUSH1 0x20 DUP3 ADD MSTORE RETURN JUMPDEST CALLVALUE PUSH2 0x1C4 JUMPI PUSH1 0x0 CALLDATASIZE PUSH1 0x3 NOT ADD SLT PUSH2 0x1C4 JUMPI PUSH1 0x20 PUSH1 0x40 MLOAD PUSH4 0x3B9ACA00 DUP2 MSTORE RETURN JUMPDEST CALLVALUE PUSH2 0x1C4 JUMPI PUSH1 0x0 CALLDATASIZE PUSH1 0x3 NOT ADD SLT PUSH2 0x1C4 JUMPI PUSH1 0x80 PUSH1 0x40 MLOAD PUSH1 0x0 DUP2 MSTORE PUSH1 0x0 PUSH1 0x20 DUP3 ADD MSTORE PUSH1 0x0 PUSH1 0x40 DUP3 ADD MSTORE PUSH1 0x0 PUSH1 0x60 DUP3 ADD MSTORE RETURN JUMPDEST CALLVALUE PUSH2 0x1C4 JUMPI PUSH1 0x0 CALLDATASIZE PUSH1 0x3 NOT ADD SLT PUSH2 0x1C4 JUMPI PUSH1 0x20 PUSH1 0x40 MLOAD PUSH4 0x5F5E100 DUP2 MSTORE RETURN JUMPDEST CALLVALUE PUSH2 0x1C4 JUMPI PUSH1 0x80 CALLDATASIZE PUSH1 0x3 NOT ADD SLT PUSH2 0x1C4 JUMPI PUSH2 0x6AF PUSH2 0x2494 JUMP JUMPDEST PUSH1 0x24 CALLDATALOAD PUSH1 0x1 PUSH1 0x1 PUSH1 0x40 SHL SUB DUP2 GT PUSH2 0x1C4 JUMPI PUSH2 0x6CE SWAP1 CALLDATASIZE SWAP1 PUSH1 0x4 ADD PUSH2 0x2569 JUMP JUMPDEST SWAP2 SWAP1 PUSH1 0x44 CALLDATALOAD PUSH1 0x1 PUSH1 0x1 PUSH1 0x40 SHL SUB DUP2 GT PUSH2 0x1C4 JUMPI PUSH2 0x6EF SWAP1 CALLDATASIZE SWAP1 PUSH1 0x4 ADD PUSH2 0x2569 JUMP JUMPDEST SWAP4 SWAP1 SWAP3 PUSH2 0x6FA PUSH2 0x26FE JUMP JUMPDEST PUSH1 0x1 PUSH1 0x1 PUSH1 0xA0 SHL SUB DUP2 AND ISZERO PUSH2 0xAC0 JUMPI DUP2 ISZERO PUSH2 0xA82 JUMPI PUSH1 0x40 MLOAD SWAP5 PUSH1 0xA0 DUP7 ADD DUP7 DUP2 LT PUSH1 0x1 PUSH1 0x1 PUSH1 0x40 SHL SUB DUP3 GT OR PUSH2 0x9A5 JUMPI PUSH1 0x40 MSTORE PUSH2 0x737 CALLDATASIZE DUP5 DUP7 PUSH2 0x280E JUMP JUMPDEST DUP7 MSTORE PUSH2 0x744 CALLDATASIZE DUP3 DUP8 PUSH2 0x280E JUMP JUMPDEST PUSH1 0x20 DUP8 ADD MSTORE PUSH1 0x0 PUSH1 0x40 DUP8 ADD MSTORE PUSH1 0x64 CALLDATALOAD PUSH1 0x60 DUP8 ADD MSTORE PUSH1 0x0 PUSH1 0x80 DUP8 ADD MSTORE PUSH1 0x1 DUP1 PUSH1 0xA0 SHL SUB DUP3 AND PUSH1 0x0 MSTORE PUSH1 0x4 PUSH1 0x20 MSTORE PUSH1 0x40 PUSH1 0x0 KECCAK256 DUP7 MLOAD DUP1 MLOAD SWAP1 PUSH1 0x1 PUSH1 0x1 PUSH1 0x40 SHL SUB DUP3 GT PUSH2 0x9A5 JUMPI DUP2 SWAP1 PUSH2 0x794 DUP5 SLOAD PUSH2 0x25C5 JUMP JUMPDEST PUSH1 0x1F DUP2 GT PUSH2 0xA32 JUMPI JUMPDEST POP PUSH1 0x20 SWAP1 PUSH1 0x1F DUP4 GT PUSH1 0x1 EQ PUSH2 0x9C6 JUMPI PUSH1 0x0 SWAP3 PUSH2 0x9BB JUMPI JUMPDEST POP POP DUP2 PUSH1 0x1 SHL SWAP2 PUSH1 0x0 NOT SWAP1 PUSH1 0x3 SHL SHR NOT AND OR DUP2 SSTORE JUMPDEST PUSH1 0x20 DUP8 ADD MLOAD SWAP7 DUP8 MLOAD PUSH1 0x1 PUSH1 0x1 PUSH1 0x40 SHL SUB DUP2 GT PUSH2 0x9A5 JUMPI PUSH2 0x7EC PUSH1 0x1 DUP5 ADD SLOAD PUSH2 0x25C5 JUMP JUMPDEST PUSH1 0x1F DUP2 GT PUSH2 0x95E JUMPI JUMPDEST POP PUSH1 0x20 PUSH1 0x1F DUP3 GT PUSH1 0x1 EQ PUSH2 0x8C2 JUMPI PUSH2 0x8B2 SWAP6 SWAP5 SWAP4 SWAP3 DUP3 PUSH1 0x4 SWAP4 PUSH1 0x80 SWAP4 PUSH32 0x7476726B1D8882AB8352F5AF9FB6C3DFAB81C79B6A107EF114D5472393A75953 SWAP13 SWAP14 PUSH1 0x0 SWAP3 PUSH2 0x8B7 JUMPI JUMPDEST POP POP DUP2 PUSH1 0x1 SHL SWAP2 PUSH1 0x0 NOT SWAP1 PUSH1 0x3 SHL SHR NOT AND OR PUSH1 0x1 DUP6 ADD SSTORE JUMPDEST PUSH2 0x873 PUSH1 0x40 DUP3 ADD MLOAD ISZERO ISZERO PUSH1 0x2 DUP7 ADD SWAP1 PUSH1 0xFF DUP1 NOT DUP4 SLOAD AND SWAP2 ISZERO ISZERO AND OR SWAP1 SSTORE JUMP JUMPDEST PUSH1 0x60 DUP2 ADD MLOAD PUSH1 0x3 DUP6 ADD SSTORE ADD MLOAD SWAP2 ADD SSTORE PUSH2 0x899 PUSH1 0x40 MLOAD SWAP6 DUP7 SWAP6 PUSH1 0x40 DUP8 MSTORE PUSH1 0x40 DUP8 ADD SWAP2 PUSH2 0x28F6 JUMP JUMPDEST DUP5 DUP2 SUB PUSH1 0x20 DUP7 ADD MSTORE PUSH1 0x1 PUSH1 0x1 PUSH1 0xA0 SHL SUB SWAP1 SWAP3 AND SWAP7 PUSH2 0x28F6 JUMP JUMPDEST SUB SWAP1 LOG2 STOP JUMPDEST ADD MLOAD SWAP1 POP DUP14 DUP1 PUSH2 0x83C JUMP JUMPDEST PUSH1 0x1 DUP5 ADD PUSH1 0x0 MSTORE PUSH1 0x20 PUSH1 0x0 KECCAK256 SWAP10 PUSH1 0x0 JUMPDEST PUSH1 0x1F NOT DUP5 AND DUP2 LT PUSH2 0x946 JUMPI POP SWAP3 PUSH1 0x1 DUP4 PUSH32 0x7476726B1D8882AB8352F5AF9FB6C3DFAB81C79B6A107EF114D5472393A75953 SWAP12 SWAP13 PUSH1 0x80 SWAP5 PUSH2 0x8B2 SWAP11 SWAP10 SWAP9 SWAP8 PUSH1 0x4 SWAP8 PUSH1 0x1F NOT DUP2 AND LT PUSH2 0x92D JUMPI JUMPDEST POP POP POP DUP2 SHL ADD PUSH1 0x1 DUP6 ADD SSTORE PUSH2 0x854 JUMP JUMPDEST ADD MLOAD PUSH1 0x0 NOT PUSH1 0xF8 DUP5 PUSH1 0x3 SHL AND SHR NOT AND SWAP1 SSTORE DUP14 DUP1 DUP1 PUSH2 0x91D JUMP JUMPDEST DUP3 DUP3 ADD MLOAD DUP13 SSTORE PUSH1 0x1 SWAP1 SWAP12 ADD SWAP11 PUSH1 0x20 SWAP3 DUP4 ADD SWAP3 ADD PUSH2 0x8D2 JUMP JUMPDEST PUSH1 0x1 DUP5 ADD PUSH1 0x0 MSTORE PUSH1 0x20 PUSH1 0x0 KECCAK256 PUSH1 0x1F DUP4 ADD PUSH1 0x5 SHR DUP2 ADD PUSH1 0x20 DUP5 LT PUSH2 0x99E JUMPI JUMPDEST PUSH1 0x1F DUP4 ADD PUSH1 0x5 SHR DUP3 ADD DUP2 LT PUSH2 0x992 JUMPI POP POP PUSH2 0x7F5 JUMP JUMPDEST PUSH1 0x0 DUP2 SSTORE PUSH1 0x1 ADD PUSH2 0x97C JUMP JUMPDEST POP DUP1 PUSH2 0x97C JUMP JUMPDEST PUSH4 0x4E487B71 PUSH1 0xE0 SHL PUSH1 0x0 MSTORE PUSH1 0x41 PUSH1 0x4 MSTORE PUSH1 0x24 PUSH1 0x0 REVERT JUMPDEST ADD MLOAD SWAP1 POP DUP10 DUP1 PUSH2 0x7B4 JUMP JUMPDEST SWAP3 POP DUP4 PUSH1 0x0 MSTORE PUSH1 0x20 PUSH1 0x0 KECCAK256 SWAP1 PUSH1 0x0 SWAP4 JUMPDEST PUSH1 0x1F NOT DUP5 AND DUP6 LT PUSH2 0xA17 JUMPI PUSH1 0x1 SWAP5 POP DUP4 PUSH1 0x1F NOT DUP2 AND LT PUSH2 0x9FE JUMPI JUMPDEST POP POP POP DUP2 SHL ADD DUP2 SSTORE PUSH2 0x7C9 JUMP JUMPDEST ADD MLOAD PUSH1 0x0 NOT PUSH1 0xF8 DUP5 PUSH1 0x3 SHL AND SHR NOT AND SWAP1 SSTORE DUP10 DUP1 DUP1 PUSH2 0x9F1 JUMP JUMPDEST DUP2 DUP2 ADD MLOAD DUP4 SSTORE PUSH1 0x20 SWAP5 DUP6 ADD SWAP5 PUSH1 0x1 SWAP1 SWAP4 ADD SWAP3 SWAP1 SWAP2 ADD SWAP1 PUSH2 0x9D6 JUMP JUMPDEST SWAP1 SWAP2 POP DUP4 PUSH1 0x0 MSTORE PUSH1 0x20 PUSH1 0x0 KECCAK256 PUSH1 0x1F DUP5 ADD PUSH1 0x5 SHR DUP2 ADD PUSH1 0x20 DUP6 LT PUSH2 0xA7B JUMPI JUMPDEST SWAP1 DUP5 SWAP4 SWAP3 SWAP2 JUMPDEST PUSH1 0x1F DUP4 ADD PUSH1 0x5 SHR DUP3 ADD DUP2 LT PUSH2 0xA6C JUMPI POP POP PUSH2 0x79D JUMP JUMPDEST PUSH1 0x0 DUP2 SSTORE DUP6 SWAP5 POP PUSH1 0x1 ADD PUSH2 0xA56 JUMP JUMPDEST POP DUP1 PUSH2 0xA50 JUMP JUMPDEST PUSH1 0x40 MLOAD PUSH3 0x461BCD PUSH1 0xE5 SHL DUP2 MSTORE PUSH1 0x20 PUSH1 0x4 DUP3 ADD MSTORE PUSH1 0x16 PUSH1 0x24 DUP3 ADD MSTORE PUSH22 0x13595C98DA185B9D081B985B59481C995C5D5A5C9959 PUSH1 0x52 SHL PUSH1 0x44 DUP3 ADD MSTORE PUSH1 0x64 SWAP1 REVERT JUMPDEST PUSH1 0x40 MLOAD PUSH3 0x461BCD PUSH1 0xE5 SHL DUP2 MSTORE PUSH1 0x20 PUSH1 0x4 DUP3 ADD MSTORE PUSH1 0x18 PUSH1 0x24 DUP3 ADD MSTORE PUSH32 0x496E76616C6964206D65726368616E7420616464726573730000000000000000 PUSH1 0x44 DUP3 ADD MSTORE PUSH1 0x64 SWAP1 REVERT JUMPDEST CALLVALUE PUSH2 0x1C4 JUMPI PUSH1 0x0 CALLDATASIZE PUSH1 0x3 NOT ADD SLT PUSH2 0x1C4 JUMPI PUSH1 0x20 PUSH1 0x40 MLOAD PUSH2 0x5DC DUP2 MSTORE RETURN JUMPDEST CALLVALUE PUSH2 0x1C4 JUMPI PUSH1 0x20 CALLDATASIZE PUSH1 0x3 NOT ADD SLT PUSH2 0x1C4 JUMPI PUSH1 0x1 PUSH1 0x1 PUSH1 0xA0 SHL SUB PUSH2 0xB43 PUSH2 0x2494 JUMP JUMPDEST AND PUSH1 0x0 MSTORE PUSH1 0x6 PUSH1 0x20 MSTORE PUSH1 0xA0 PUSH1 0x40 PUSH1 0x0 KECCAK256 DUP1 SLOAD SWAP1 PUSH1 0x1 DUP2 ADD SLOAD SWAP1 PUSH1 0x2 DUP2 ADD SLOAD PUSH1 0x4 PUSH1 0x3 DUP4 ADD SLOAD SWAP3 ADD SLOAD SWAP3 PUSH1 0x40 MLOAD SWAP5 DUP6 MSTORE PUSH1 0x20 DUP6 ADD MSTORE PUSH1 0x40 DUP5 ADD MSTORE PUSH1 0x60 DUP4 ADD MSTORE PUSH1 0x80 DUP3 ADD MSTORE RETURN JUMPDEST CALLVALUE PUSH2 0x1C4 JUMPI PUSH1 0x20 CALLDATASIZE PUSH1 0x3 NOT ADD SLT PUSH2 0x1C4 JUMPI PUSH1 0x4 CALLDATALOAD PUSH1 0x0 MSTORE PUSH1 0x3 PUSH1 0x20 MSTORE PUSH1 0x40 PUSH1 0x0 KECCAK256 DUP1 SLOAD PUSH1 0x1 DUP1 PUSH1 0xA0 SHL SUB SWAP2 DUP3 PUSH1 0x1 DUP3 ADD SLOAD AND SWAP3 PUSH1 0x2 DUP3 ADD SLOAD AND PUSH1 0x3 DUP3 ADD SLOAD SWAP2 PUSH1 0x4 DUP2 ADD SLOAD SWAP3 PUSH2 0xBD9 PUSH1 0x5 DUP4 ADD PUSH2 0x2658 JUMP JUMPDEST SWAP4 PUSH2 0xC2D PUSH1 0xFF PUSH1 0x6 DUP6 ADD SLOAD AND SWAP6 PUSH1 0x7 DUP6 ADD SLOAD SWAP3 PUSH1 0xFF PUSH1 0x8 DUP8 ADD SLOAD AND SWAP5 PUSH1 0xA PUSH1 0x9 DUP9 ADD SLOAD SWAP8 ADD SLOAD SWAP8 PUSH1 0x40 MLOAD SWAP12 DUP13 SWAP12 DUP13 MSTORE PUSH1 0x20 DUP13 ADD MSTORE PUSH1 0x40 DUP12 ADD MSTORE PUSH1 0x60 DUP11 ADD MSTORE PUSH1 0x80 DUP10 ADD MSTORE PUSH2 0x160 DUP1 PUSH1 0xA0 DUP11 ADD MSTORE DUP9 ADD SWAP1 PUSH2 0x24C7 JUMP JUMPDEST SWAP5 ISZERO ISZERO PUSH1 0xC0 DUP8 ADD MSTORE PUSH1 0xE0 DUP7 ADD MSTORE ISZERO ISZERO PUSH2 0x100 DUP6 ADD MSTORE PUSH2 0x120 DUP5 ADD MSTORE PUSH2 0x140 DUP4 ADD MSTORE SUB SWAP1 RETURN JUMPDEST CALLVALUE PUSH2 0x1C4 JUMPI PUSH1 0x0 CALLDATASIZE PUSH1 0x3 NOT ADD SLT PUSH2 0x1C4 JUMPI PUSH1 0x20 PUSH1 0x40 MLOAD PUSH1 0x32 DUP2 MSTORE RETURN JUMPDEST CALLVALUE PUSH2 0x1C4 JUMPI PUSH2 0xCB1 PUSH2 0xC7F CALLDATASIZE PUSH2 0x2596 JUMP JUMPDEST SWAP1 PUSH2 0xC88 PUSH2 0x26FE JUMP JUMPDEST PUSH1 0x1 DUP1 PUSH1 0xA0 SHL SUB AND PUSH1 0x0 MSTORE PUSH1 0x2 PUSH1 0x20 MSTORE PUSH1 0x6 PUSH1 0x40 PUSH1 0x0 KECCAK256 ADD SWAP1 PUSH1 0xFF DUP1 NOT DUP4 SLOAD AND SWAP2 ISZERO ISZERO AND OR SWAP1 SSTORE JUMP JUMPDEST STOP JUMPDEST CALLVALUE PUSH2 0x1C4 JUMPI PUSH2 0xCC1 CALLDATASIZE PUSH2 0x2596 JUMP JUMPDEST SWAP1 PUSH2 0xCCA PUSH2 0x26FE JUMP JUMPDEST PUSH1 0x1 DUP1 PUSH1 0xA0 SHL SUB AND SWAP1 DUP2 PUSH1 0x0 MSTORE PUSH1 0x4 PUSH1 0x20 MSTORE PUSH2 0xCEA PUSH1 0x40 PUSH1 0x0 KECCAK256 SLOAD PUSH2 0x25C5 JUMP JUMPDEST ISZERO PUSH2 0xD43 JUMPI PUSH1 0x20 PUSH32 0xF9695FA7A4A836707ECAB51A8A8622DE8E7FF1C77A40DA1935E9CDBD4260CE30 SWAP2 DUP4 PUSH1 0x0 MSTORE PUSH1 0x4 DUP3 MSTORE PUSH2 0xD38 DUP2 PUSH1 0x2 PUSH1 0x40 PUSH1 0x0 KECCAK256 ADD SWAP1 PUSH1 0xFF DUP1 NOT DUP4 SLOAD AND SWAP2 ISZERO ISZERO AND OR SWAP1 SSTORE JUMP JUMPDEST PUSH1 0x40 MLOAD SWAP1 ISZERO ISZERO DUP2 MSTORE LOG2 STOP JUMPDEST PUSH1 0x40 MLOAD PUSH3 0x461BCD PUSH1 0xE5 SHL DUP2 MSTORE PUSH1 0x20 PUSH1 0x4 DUP3 ADD MSTORE PUSH1 0x17 PUSH1 0x24 DUP3 ADD MSTORE PUSH32 0x4D65726368616E74206E6F742072656769737465726564000000000000000000 PUSH1 0x44 DUP3 ADD MSTORE PUSH1 0x64 SWAP1 REVERT JUMPDEST CALLVALUE PUSH2 0x1C4 JUMPI PUSH1 0x0 CALLDATASIZE PUSH1 0x3 NOT ADD SLT PUSH2 0x1C4 JUMPI PUSH1 0x1 SLOAD PUSH1 0x40 MLOAD PUSH1 0x1 PUSH1 0x1 PUSH1 0xA0 SHL SUB SWAP1 SWAP2 AND DUP2 MSTORE PUSH1 0x20 SWAP1 RETURN JUMPDEST CALLVALUE PUSH2 0x1C4 JUMPI PUSH1 0x0 CALLDATASIZE PUSH1 0x3 NOT ADD SLT PUSH2 0x1C4 JUMPI PUSH1 0x20 PUSH1 0x40 MLOAD PUSH1 0x64 DUP2 MSTORE RETURN JUMPDEST CALLVALUE PUSH2 0x1C4 JUMPI PUSH1 0x0 CALLDATASIZE PUSH1 0x3 NOT ADD SLT PUSH2 0x1C4 JUMPI PUSH2 0xDE6 PUSH2 0x2917 JUMP JUMPDEST CALLER PUSH1 0x0 MSTORE PUSH1 0x20 PUSH1 0x2 DUP2 MSTORE PUSH1 0x40 PUSH1 0x0 KECCAK256 SWAP1 PUSH1 0xE PUSH1 0xC DUP4 ADD SLOAD SWAP3 ADD PUSH2 0xE0B DUP2 SLOAD DUP1 SWAP5 PUSH2 0x288E JUMP JUMPDEST SWAP3 DUP4 ISZERO PUSH2 0xEF0 JUMPI DUP4 PUSH2 0xE1C SWAP2 PUSH2 0x2801 JUMP JUMPDEST SWAP1 SSTORE PUSH1 0x40 MLOAD PUSH4 0xA9059CBB PUSH1 0xE0 SHL DUP2 MSTORE CALLER PUSH1 0x4 DUP3 ADD MSTORE PUSH1 0x24 DUP2 ADD DUP4 SWAP1 MSTORE SWAP1 DUP1 DUP3 PUSH1 0x44 DUP2 PUSH1 0x0 PUSH1 0x1 PUSH1 0x1 PUSH1 0xA0 SHL SUB PUSH32 0x0 AND GAS CALL SWAP2 DUP3 ISZERO PUSH2 0xEE4 JUMPI PUSH32 0xD3C14526B5DCEFB77A6AF86A722718191295DA83CCC21809A97ED38C3BC8B976 SWAP3 PUSH2 0xEA7 SWAP2 PUSH1 0x0 SWAP2 PUSH2 0xEB7 JUMPI JUMPDEST POP PUSH2 0x28B3 JUMP JUMPDEST PUSH1 0x40 MLOAD SWAP3 DUP4 MSTORE CALLER SWAP3 LOG2 PUSH1 0x1 PUSH1 0x0 SSTORE STOP JUMPDEST PUSH2 0xED7 SWAP2 POP DUP4 RETURNDATASIZE DUP6 GT PUSH2 0xEDD JUMPI JUMPDEST PUSH2 0xECF DUP2 DUP4 PUSH2 0x2637 JUMP JUMPDEST DUP2 ADD SWAP1 PUSH2 0x289B JUMP JUMPDEST DUP6 PUSH2 0xEA1 JUMP JUMPDEST POP RETURNDATASIZE PUSH2 0xEC5 JUMP JUMPDEST PUSH1 0x40 MLOAD RETURNDATASIZE PUSH1 0x0 DUP3 RETURNDATACOPY RETURNDATASIZE SWAP1 REVERT JUMPDEST PUSH1 0x40 MLOAD PUSH3 0x461BCD PUSH1 0xE5 SHL DUP2 MSTORE PUSH1 0x4 DUP2 ADD DUP5 SWAP1 MSTORE PUSH1 0x18 PUSH1 0x24 DUP3 ADD MSTORE PUSH32 0x4E6F2042544320636173686261636B20746F20636C61696D0000000000000000 PUSH1 0x44 DUP3 ADD MSTORE PUSH1 0x64 SWAP1 REVERT JUMPDEST CALLVALUE PUSH2 0x1C4 JUMPI PUSH1 0x0 CALLDATASIZE PUSH1 0x3 NOT ADD SLT PUSH2 0x1C4 JUMPI PUSH2 0xF4E PUSH2 0x26FE JUMP JUMPDEST PUSH1 0x1 DUP1 SLOAD PUSH1 0x1 PUSH1 0x1 PUSH1 0xA0 SHL SUB NOT DUP2 AND SWAP1 SWAP2 SSTORE PUSH1 0x0 SWAP1 PUSH1 0x1 PUSH1 0x1 PUSH1 0xA0 SHL SUB AND PUSH32 0x8BE0079C531659141344CD1FD0A4F28419497F9722A3DAAFE3B4186F6B6457E0 DUP3 DUP1 LOG3 STOP JUMPDEST CALLVALUE PUSH2 0x1C4 JUMPI PUSH1 0x60 CALLDATASIZE PUSH1 0x3 NOT ADD SLT PUSH2 0x1C4 JUMPI PUSH2 0xFAB PUSH2 0x2494 JUMP JUMPDEST PUSH1 0x44 CALLDATALOAD PUSH1 0x1 PUSH1 0x1 PUSH1 0x40 SHL SUB DUP2 GT PUSH2 0x1C4 JUMPI PUSH2 0xFCA SWAP1 CALLDATASIZE SWAP1 PUSH1 0x4 ADD PUSH2 0x2569 JUMP JUMPDEST SWAP1 CALLER PUSH1 0x0 MSTORE PUSH1 0x4 PUSH1 0x20 MSTORE PUSH1 0xFF PUSH1 0x2 PUSH1 0x40 PUSH1 0x0 KECCAK256 ADD SLOAD AND ISZERO PUSH2 0x16E9 JUMPI PUSH1 0x1 PUSH1 0x1 PUSH1 0xA0 SHL SUB DUP4 AND PUSH1 0x0 SWAP1 DUP2 MSTORE PUSH1 0x2 PUSH1 0x20 MSTORE PUSH1 0x40 SWAP1 KECCAK256 PUSH1 0x6 ADD SLOAD PUSH1 0xFF AND ISZERO PUSH2 0x16AB JUMPI PUSH2 0x1016 PUSH1 0x24 CALLDATALOAD ISZERO ISZERO PUSH2 0x2756 JUMP JUMPDEST PUSH2 0x1029 PUSH5 0x174876E800 PUSH1 0x24 CALLDATALOAD GT ISZERO PUSH2 0x27A2 JUMP JUMPDEST PUSH2 0x1031 PUSH2 0x2917 JUMP JUMPDEST PUSH1 0x1 DUP1 PUSH1 0xA0 SHL SUB DUP4 AND PUSH1 0x0 MSTORE PUSH1 0x2 PUSH1 0x20 MSTORE PUSH1 0x40 PUSH1 0x0 KECCAK256 SWAP1 CALLER PUSH1 0x0 MSTORE PUSH1 0x4 PUSH1 0x20 MSTORE PUSH1 0x40 PUSH1 0x0 KECCAK256 SWAP3 PUSH1 0x24 CALLDATALOAD PUSH1 0x1 DUP5 ADD SLOAD LT PUSH2 0x1670 JUMPI PUSH1 0x3 DUP5 ADD SLOAD PUSH1 0x24 CALLDATALOAD GT PUSH2 0x1632 JUMPI PUSH4 0x3B9ACA00 PUSH1 0x7 DUP5 ADD SLOAD DIV PUSH1 0x32 DUP2 MUL SWAP1 DUP1 DUP3 DIV PUSH1 0x32 EQ SWAP1 ISZERO OR ISZERO PUSH2 0x161C JUMPI DUP1 PUSH1 0x64 ADD PUSH1 0x64 GT PUSH2 0x161C JUMPI PUSH2 0x10AC PUSH2 0x2710 SWAP2 PUSH1 0x64 ADD PUSH1 0x24 CALLDATALOAD PUSH2 0x27EE JUMP JUMPDEST DIV SWAP4 PUSH1 0x24 CALLDATALOAD PUSH1 0x19 PUSH1 0x24 CALLDATALOAD MUL DIV PUSH1 0x19 EQ PUSH1 0x24 CALLDATALOAD ISZERO OR ISZERO PUSH2 0x161C JUMPI PUSH1 0x1 PUSH1 0x7 SLOAD ADD SWAP4 DUP5 PUSH1 0x7 SSTORE PUSH3 0x278D00 TIMESTAMP ADD TIMESTAMP GT PUSH2 0x161C JUMPI PUSH1 0x40 MLOAD PUSH2 0x10E8 DUP2 PUSH2 0x25FF JUMP JUMPDEST DUP6 DUP2 MSTORE PUSH1 0x1 PUSH1 0x1 PUSH1 0xA0 SHL SUB DUP9 AND PUSH1 0x20 DUP3 ADD MSTORE CALLER PUSH1 0x40 DUP3 ADD MSTORE PUSH1 0x24 CALLDATALOAD PUSH1 0x60 DUP3 ADD MSTORE TIMESTAMP PUSH1 0x80 DUP3 ADD MSTORE PUSH2 0x1119 CALLDATASIZE DUP6 DUP8 PUSH2 0x280E JUMP JUMPDEST PUSH1 0xA0 DUP3 ADD MSTORE PUSH1 0x0 PUSH1 0xC0 DUP3 ADD MSTORE PUSH3 0x278D00 TIMESTAMP ADD PUSH1 0xE0 DUP3 ADD MSTORE PUSH1 0x0 PUSH2 0x100 DUP3 ADD MSTORE DUP7 PUSH2 0x120 DUP3 ADD MSTORE PUSH2 0x2710 PUSH1 0x19 PUSH1 0x24 CALLDATALOAD MUL DIV PUSH2 0x140 DUP3 ADD MSTORE DUP6 PUSH1 0x0 MSTORE PUSH1 0x3 PUSH1 0x20 MSTORE PUSH1 0x40 PUSH1 0x0 KECCAK256 SWAP1 DUP1 MLOAD DUP3 SSTORE PUSH1 0x1 DUP3 ADD PUSH1 0x1 DUP1 PUSH1 0xA0 SHL SUB PUSH1 0x20 DUP4 ADD MLOAD AND SWAP1 PUSH1 0x1 PUSH1 0x1 PUSH1 0x60 SHL SUB PUSH1 0xA0 SHL SWAP2 DUP3 DUP3 SLOAD AND OR SWAP1 SSTORE PUSH1 0x2 DUP4 ADD SWAP1 PUSH1 0x1 DUP1 PUSH1 0xA0 SHL SUB PUSH1 0x40 DUP5 ADD MLOAD AND SWAP1 DUP3 SLOAD AND OR SWAP1 SSTORE PUSH1 0x60 DUP2 ADD MLOAD PUSH1 0x3 DUP4 ADD SSTORE PUSH1 0x80 DUP2 ADD MLOAD PUSH1 0x4 DUP4 ADD SSTORE PUSH1 0xA0 DUP2 ADD MLOAD DUP1 MLOAD SWAP1 PUSH1 0x1 PUSH1 0x1 PUSH1 0x40 SHL SUB DUP3 GT PUSH2 0x9A5 JUMPI PUSH2 0x11D7 PUSH1 0x5 DUP6 ADD SLOAD PUSH2 0x25C5 JUMP JUMPDEST PUSH1 0x1F DUP2 GT PUSH2 0x15D5 JUMPI JUMPDEST POP PUSH1 0x20 SWAP1 PUSH1 0x1F DUP4 GT PUSH1 0x1 EQ PUSH2 0x1558 JUMPI PUSH1 0x4 SWAP7 SWAP6 SWAP4 DUP4 PUSH1 0xC SWAP7 SWAP5 PUSH1 0xA SWAP5 PUSH2 0x140 SWAP5 PUSH1 0x0 SWAP3 PUSH2 0x154D JUMPI JUMPDEST POP POP DUP2 PUSH1 0x1 SHL SWAP2 PUSH1 0x0 NOT SWAP1 PUSH1 0x3 SHL SHR NOT AND OR PUSH1 0x5 DUP6 ADD SSTORE JUMPDEST PUSH2 0x123F PUSH1 0xC0 DUP3 ADD MLOAD ISZERO ISZERO PUSH1 0x6 DUP7 ADD SWAP1 PUSH1 0xFF DUP1 NOT DUP4 SLOAD AND SWAP2 ISZERO ISZERO AND OR SWAP1 SSTORE JUMP JUMPDEST PUSH1 0xE0 DUP2 ADD MLOAD PUSH1 0x7 DUP6 ADD SSTORE PUSH2 0x1269 PUSH2 0x100 DUP3 ADD MLOAD ISZERO ISZERO PUSH1 0x8 DUP7 ADD SWAP1 PUSH1 0xFF DUP1 NOT DUP4 SLOAD AND SWAP2 ISZERO ISZERO AND OR SWAP1 SSTORE JUMP JUMPDEST PUSH2 0x120 DUP2 ADD MLOAD PUSH1 0x9 DUP6 ADD SSTORE ADD MLOAD SWAP2 ADD SSTORE PUSH1 0x1 DUP1 PUSH1 0xA0 SHL SUB DUP10 AND PUSH1 0x0 MSTORE PUSH1 0x5 PUSH1 0x20 MSTORE PUSH2 0x1298 DUP8 PUSH1 0x40 PUSH1 0x0 KECCAK256 PUSH2 0x2854 JUMP JUMPDEST PUSH2 0x12A8 PUSH1 0x24 CALLDATALOAD PUSH1 0x1 DUP4 ADD SLOAD PUSH2 0x288E JUMP JUMPDEST PUSH1 0x1 DUP3 ADD SSTORE PUSH1 0x2 DUP2 ADD PUSH2 0x12BE PUSH1 0x24 CALLDATALOAD DUP3 SLOAD PUSH2 0x2801 JUMP JUMPDEST SWAP1 SSTORE TIMESTAMP PUSH1 0x5 DUP3 ADD SSTORE PUSH2 0x12D6 PUSH1 0x24 CALLDATALOAD PUSH1 0x7 DUP4 ADD SLOAD PUSH2 0x2801 JUMP JUMPDEST PUSH1 0x7 DUP3 ADD SSTORE PUSH1 0xB DUP2 ADD PUSH2 0x12EA DUP10 DUP3 SLOAD PUSH2 0x2801 JUMP JUMPDEST SWAP1 SSTORE ADD PUSH2 0x1301 PUSH2 0x2710 PUSH1 0x19 PUSH1 0x24 CALLDATALOAD MUL DIV DUP3 SLOAD PUSH2 0x2801 JUMP JUMPDEST SWAP1 SSTORE ADD PUSH2 0x1311 PUSH1 0x24 CALLDATALOAD DUP3 SLOAD PUSH2 0x2801 JUMP JUMPDEST SWAP1 SSTORE PUSH1 0x40 MLOAD PUSH4 0x23B872DD PUSH1 0xE0 SHL DUP2 MSTORE ADDRESS PUSH1 0x4 DUP3 ADD MSTORE CALLER PUSH1 0x24 DUP1 DUP4 ADD SWAP2 SWAP1 SWAP2 MSTORE CALLDATALOAD PUSH1 0x44 DUP3 ADD MSTORE PUSH1 0x20 DUP2 PUSH1 0x64 DUP2 PUSH1 0x0 PUSH1 0x1 PUSH1 0x1 PUSH1 0xA0 SHL SUB PUSH32 0x0 AND GAS CALL DUP1 ISZERO PUSH2 0xEE4 JUMPI PUSH2 0x1381 SWAP2 PUSH1 0x0 SWAP2 PUSH2 0x152E JUMPI POP PUSH2 0x28B3 JUMP JUMPDEST DUP4 PUSH2 0x1400 JUMPI JUMPDEST PUSH2 0x13C6 PUSH32 0xA0881164B8AEE5DF47056B7CA63D30CAC436F45555E33665F95BF3EAC8CAA1B9 SWAP3 PUSH1 0x40 MLOAD SWAP3 PUSH1 0x24 CALLDATALOAD DUP5 MSTORE PUSH1 0xA0 PUSH1 0x20 DUP6 ADD MSTORE PUSH1 0xA0 DUP5 ADD SWAP2 PUSH2 0x28F6 JUMP JUMPDEST TIMESTAMP PUSH3 0x278D00 ADD PUSH1 0x40 DUP4 ADD MSTORE PUSH1 0x60 DUP3 ADD SWAP5 SWAP1 SWAP5 MSTORE PUSH2 0x2710 PUSH1 0x24 CALLDATALOAD PUSH1 0x19 MUL DIV PUSH1 0x80 DUP3 ADD MSTORE CALLER SWAP5 PUSH1 0x1 PUSH1 0x1 PUSH1 0xA0 SHL SUB AND SWAP4 DUP2 SWAP1 SUB SWAP1 LOG4 PUSH1 0x1 PUSH1 0x0 SSTORE STOP JUMPDEST PUSH1 0x40 MLOAD PUSH4 0x40C10F19 PUSH1 0xE0 SHL DUP2 MSTORE PUSH1 0x1 PUSH1 0x1 PUSH1 0xA0 SHL SUB DUP7 AND PUSH1 0x4 DUP3 ADD MSTORE PUSH1 0x24 DUP2 ADD DUP6 SWAP1 MSTORE PUSH1 0x20 DUP2 DUP1 PUSH1 0x44 DUP2 ADD SUB DUP2 PUSH1 0x0 PUSH32 0x0 PUSH1 0x1 PUSH1 0x1 PUSH1 0xA0 SHL SUB AND GAS CALL SWAP1 DUP2 ISZERO PUSH2 0xEE4 JUMPI PUSH1 0x0 SWAP2 PUSH2 0x150F JUMPI JUMPDEST POP ISZERO PUSH2 0x14D7 JUMPI PUSH2 0x13C6 PUSH32 0xA0881164B8AEE5DF47056B7CA63D30CAC436F45555E33665F95BF3EAC8CAA1B9 SWAP3 PUSH1 0x40 MLOAD DUP7 DUP2 MSTORE DUP6 PUSH1 0x20 DUP3 ADD MSTORE PUSH32 0x9CBF5AABED084BCC07E28417E9AA86F51F9BB81331F0FE3361271085FA0A62F8 PUSH1 0x40 PUSH1 0x1 DUP1 PUSH1 0xA0 SHL SUB DUP11 AND SWAP3 LOG2 SWAP3 POP POP PUSH2 0x1387 JUMP JUMPDEST PUSH1 0x40 MLOAD PUSH3 0x461BCD PUSH1 0xE5 SHL DUP2 MSTORE PUSH1 0x20 PUSH1 0x4 DUP3 ADD MSTORE PUSH1 0x10 PUSH1 0x24 DUP3 ADD MSTORE PUSH16 0x14D41391081B5A5B9D0819985A5B1959 PUSH1 0x82 SHL PUSH1 0x44 DUP3 ADD MSTORE PUSH1 0x64 SWAP1 REVERT JUMPDEST PUSH2 0x1528 SWAP2 POP PUSH1 0x20 RETURNDATASIZE PUSH1 0x20 GT PUSH2 0xEDD JUMPI PUSH2 0xECF DUP2 DUP4 PUSH2 0x2637 JUMP JUMPDEST DUP7 PUSH2 0x146A JUMP JUMPDEST PUSH2 0x1547 SWAP2 POP PUSH1 0x20 RETURNDATASIZE PUSH1 0x20 GT PUSH2 0xEDD JUMPI PUSH2 0xECF DUP2 DUP4 PUSH2 0x2637 JUMP JUMPDEST DUP8 PUSH2 0xEA1 JUMP JUMPDEST ADD MLOAD SWAP1 POP DUP16 DUP1 PUSH2 0x1208 JUMP JUMPDEST SWAP1 PUSH1 0x5 DUP6 ADD PUSH1 0x0 MSTORE PUSH1 0x20 PUSH1 0x0 KECCAK256 SWAP2 PUSH1 0x0 JUMPDEST PUSH1 0x1F NOT DUP6 AND DUP2 LT PUSH2 0x15BD JUMPI POP SWAP4 PUSH1 0x1 DUP5 PUSH1 0xA SWAP5 PUSH2 0x140 SWAP5 PUSH1 0x4 SWAP12 SWAP11 SWAP9 PUSH1 0xC SWAP11 SWAP9 PUSH1 0x1F NOT DUP2 AND LT PUSH2 0x15A4 JUMPI JUMPDEST POP POP POP DUP2 SHL ADD PUSH1 0x5 DUP6 ADD SSTORE PUSH2 0x1220 JUMP JUMPDEST ADD MLOAD PUSH1 0x0 NOT PUSH1 0xF8 DUP5 PUSH1 0x3 SHL AND SHR NOT AND SWAP1 SSTORE DUP16 DUP1 DUP1 PUSH2 0x1594 JUMP JUMPDEST SWAP2 SWAP3 PUSH1 0x20 PUSH1 0x1 DUP2 SWAP3 DUP7 DUP6 ADD MLOAD DUP2 SSTORE ADD SWAP5 ADD SWAP3 ADD PUSH2 0x1569 JUMP JUMPDEST PUSH1 0x5 DUP6 ADD PUSH1 0x0 MSTORE PUSH1 0x20 PUSH1 0x0 KECCAK256 PUSH1 0x1F DUP5 ADD PUSH1 0x5 SHR DUP2 ADD PUSH1 0x20 DUP6 LT PUSH2 0x1615 JUMPI JUMPDEST PUSH1 0x1F DUP4 ADD PUSH1 0x5 SHR DUP3 ADD DUP2 LT PUSH2 0x1609 JUMPI POP POP PUSH2 0x11E0 JUMP JUMPDEST PUSH1 0x0 DUP2 SSTORE PUSH1 0x1 ADD PUSH2 0x15F3 JUMP JUMPDEST POP DUP1 PUSH2 0x15F3 JUMP JUMPDEST PUSH4 0x4E487B71 PUSH1 0xE0 SHL PUSH1 0x0 MSTORE PUSH1 0x11 PUSH1 0x4 MSTORE PUSH1 0x24 PUSH1 0x0 REVERT JUMPDEST PUSH1 0x40 MLOAD PUSH3 0x461BCD PUSH1 0xE5 SHL DUP2 MSTORE PUSH1 0x20 PUSH1 0x4 DUP3 ADD MSTORE PUSH1 0x16 PUSH1 0x24 DUP3 ADD MSTORE PUSH22 0x115E18D959591CC81B595C98DA185B9D081B1A5B5A5D PUSH1 0x52 SHL PUSH1 0x44 DUP3 ADD MSTORE PUSH1 0x64 SWAP1 REVERT JUMPDEST PUSH1 0x40 MLOAD PUSH3 0x461BCD PUSH1 0xE5 SHL DUP2 MSTORE PUSH1 0x20 PUSH1 0x4 DUP3 ADD MSTORE PUSH1 0x13 PUSH1 0x24 DUP3 ADD MSTORE PUSH19 0x125B9CDD59999A58DA595B9D0818DC99591A5D PUSH1 0x6A SHL PUSH1 0x44 DUP3 ADD MSTORE PUSH1 0x64 SWAP1 REVERT JUMPDEST PUSH1 0x40 MLOAD PUSH3 0x461BCD PUSH1 0xE5 SHL DUP2 MSTORE PUSH1 0x20 PUSH1 0x4 DUP3 ADD MSTORE PUSH1 0x16 PUSH1 0x24 DUP3 ADD MSTORE PUSH22 0x5573657220637265646974206E6F7420616374697665 PUSH1 0x50 SHL PUSH1 0x44 DUP3 ADD MSTORE PUSH1 0x64 SWAP1 REVERT JUMPDEST PUSH1 0x40 MLOAD PUSH3 0x461BCD PUSH1 0xE5 SHL DUP2 MSTORE PUSH1 0x20 PUSH1 0x4 DUP3 ADD MSTORE PUSH1 0x18 PUSH1 0x24 DUP3 ADD MSTORE PUSH32 0x4D65726368616E74206E6F742077686974656C69737465640000000000000000 PUSH1 0x44 DUP3 ADD MSTORE PUSH1 0x64 SWAP1 REVERT JUMPDEST CALLVALUE PUSH2 0x1C4 JUMPI PUSH1 0x20 CALLDATASIZE PUSH1 0x3 NOT ADD SLT PUSH2 0x1C4 JUMPI PUSH2 0x1C0 PUSH2 0x174A PUSH2 0x2494 JUMP JUMPDEST PUSH1 0x0 DUP3 PUSH1 0x40 MLOAD PUSH2 0x1759 DUP2 PUSH2 0x261B JUMP JUMPDEST DUP3 DUP2 MSTORE DUP3 PUSH1 0x20 DUP3 ADD MSTORE DUP3 PUSH1 0x40 DUP3 ADD MSTORE DUP3 PUSH1 0x60 DUP3 ADD MSTORE DUP3 PUSH1 0x80 DUP3 ADD MSTORE DUP3 PUSH1 0xA0 DUP3 ADD MSTORE DUP3 PUSH1 0xC0 DUP3 ADD MSTORE DUP3 PUSH1 0xE0 DUP3 ADD MSTORE DUP3 PUSH2 0x100 DUP3 ADD MSTORE DUP3 PUSH2 0x120 DUP3 ADD MSTORE DUP3 PUSH2 0x140 DUP3 ADD MSTORE DUP3 PUSH2 0x160 DUP3 ADD MSTORE DUP3 PUSH2 0x180 DUP3 ADD MSTORE DUP3 PUSH2 0x1A0 DUP3 ADD MSTORE ADD MSTORE PUSH2 0x17BB DUP2 PUSH2 0x29BC JUMP JUMPDEST SWAP2 PUSH1 0x1 DUP1 PUSH1 0xA0 SHL SUB AND PUSH1 0x0 MSTORE PUSH1 0x2 PUSH1 0x20 MSTORE PUSH1 0x40 PUSH1 0x0 KECCAK256 SWAP2 PUSH1 0x5 PUSH1 0x20 MSTORE PUSH2 0x1941 PUSH2 0x188D PUSH1 0x40 PUSH1 0x0 KECCAK256 PUSH1 0xE PUSH1 0x40 MLOAD SWAP7 PUSH2 0x17F1 DUP9 PUSH2 0x261B JUMP JUMPDEST DUP1 SLOAD DUP9 MSTORE PUSH1 0x1 DUP2 ADD SLOAD PUSH1 0x20 DUP10 ADD MSTORE PUSH1 0x2 DUP2 ADD SLOAD PUSH1 0x40 DUP10 ADD MSTORE PUSH1 0x3 DUP2 ADD SLOAD PUSH1 0x60 DUP10 ADD MSTORE PUSH1 0x4 DUP2 ADD SLOAD PUSH1 0x80 DUP10 ADD MSTORE PUSH1 0x5 DUP2 ADD SLOAD PUSH1 0xA0 DUP10 ADD MSTORE PUSH1 0xFF PUSH1 0x6 DUP3 ADD SLOAD AND ISZERO ISZERO PUSH1 0xC0 DUP10 ADD MSTORE PUSH1 0x7 DUP2 ADD SLOAD PUSH1 0xE0 DUP10 ADD MSTORE PUSH1 0x8 DUP2 ADD SLOAD PUSH2 0x100 DUP10 ADD MSTORE PUSH1 0x9 DUP2 ADD SLOAD PUSH2 0x120 DUP10 ADD MSTORE PUSH1 0xA DUP2 ADD SLOAD PUSH2 0x140 DUP10 ADD MSTORE PUSH1 0xB DUP2 ADD SLOAD PUSH2 0x160 DUP10 ADD MSTORE PUSH1 0xC DUP2 ADD SLOAD PUSH2 0x180 DUP10 ADD MSTORE PUSH1 0xD DUP2 ADD SLOAD PUSH2 0x1A0 DUP10 ADD MSTORE ADD SLOAD DUP8 DUP8 ADD MSTORE PUSH2 0x296D JUMP JUMPDEST PUSH1 0x40 MLOAD SWAP6 DUP6 DUP8 SWAP7 MLOAD DUP8 MSTORE PUSH1 0x20 DUP2 ADD MLOAD PUSH1 0x20 DUP9 ADD MSTORE PUSH1 0x40 DUP2 ADD MLOAD PUSH1 0x40 DUP9 ADD MSTORE PUSH1 0x60 DUP2 ADD MLOAD PUSH1 0x60 DUP9 ADD MSTORE PUSH1 0x80 DUP2 ADD MLOAD PUSH1 0x80 DUP9 ADD MSTORE PUSH1 0xA0 DUP2 ADD MLOAD PUSH1 0xA0 DUP9 ADD MSTORE PUSH1 0xC0 DUP2 ADD MLOAD ISZERO ISZERO PUSH1 0xC0 DUP9 ADD MSTORE PUSH1 0xE0 DUP2 ADD MLOAD PUSH1 0xE0 DUP9 ADD MSTORE PUSH2 0x100 DUP2 ADD MLOAD PUSH2 0x100 DUP9 ADD MSTORE PUSH2 0x120 DUP2 ADD MLOAD PUSH2 0x120 DUP9 ADD MSTORE PUSH2 0x140 DUP2 ADD MLOAD PUSH2 0x140 DUP9 ADD MSTORE PUSH2 0x160 DUP2 ADD MLOAD PUSH2 0x160 DUP9 ADD MSTORE PUSH2 0x180 DUP2 ADD MLOAD PUSH2 0x180 DUP9 ADD MSTORE PUSH2 0x1A0 DUP2 ADD MLOAD PUSH2 0x1A0 DUP9 ADD MSTORE ADD MLOAD PUSH2 0x1C0 DUP7 ADD MSTORE PUSH2 0x240 DUP1 PUSH2 0x1E0 DUP8 ADD MSTORE DUP6 ADD SWAP1 PUSH2 0x2535 JUMP JUMPDEST SWAP2 PUSH2 0x200 DUP5 ADD MSTORE PUSH2 0x220 DUP4 ADD MSTORE SUB SWAP1 RETURN JUMPDEST PUSH2 0x24AA JUMP JUMPDEST CALLVALUE PUSH2 0x1C4 JUMPI PUSH1 0x0 CALLDATASIZE PUSH1 0x3 NOT ADD SLT PUSH2 0x1C4 JUMPI PUSH1 0x20 PUSH1 0x40 MLOAD PUSH2 0x352 DUP2 MSTORE RETURN JUMPDEST CALLVALUE PUSH2 0x1C4 JUMPI PUSH1 0x0 CALLDATASIZE PUSH1 0x3 NOT ADD SLT PUSH2 0x1C4 JUMPI PUSH1 0x40 MLOAD PUSH32 0x0 PUSH1 0x1 PUSH1 0x1 PUSH1 0xA0 SHL SUB AND DUP2 MSTORE PUSH1 0x20 SWAP1 RETURN JUMPDEST CALLVALUE PUSH2 0x1C4 JUMPI PUSH1 0x40 CALLDATASIZE PUSH1 0x3 NOT ADD SLT PUSH2 0x1C4 JUMPI PUSH2 0x19D2 PUSH2 0x2494 JUMP JUMPDEST PUSH1 0x1 PUSH1 0x1 PUSH1 0xA0 SHL SUB AND PUSH1 0x0 SWAP1 DUP2 MSTORE PUSH1 0x5 PUSH1 0x20 MSTORE PUSH1 0x40 SWAP1 KECCAK256 DUP1 SLOAD PUSH1 0x24 CALLDATALOAD SWAP2 SWAP1 DUP3 LT ISZERO PUSH2 0x1C4 JUMPI PUSH1 0x20 SWAP2 PUSH2 0x1A03 SWAP2 PUSH2 0x2507 JUMP JUMPDEST SWAP1 SLOAD PUSH1 0x40 MLOAD SWAP2 PUSH1 0x3 SHL SHR DUP2 MSTORE RETURN JUMPDEST CALLVALUE PUSH2 0x1C4 JUMPI PUSH1 0x0 CALLDATASIZE PUSH1 0x3 NOT ADD SLT PUSH2 0x1C4 JUMPI PUSH2 0x1A2A PUSH2 0x26FE JUMP JUMPDEST PUSH1 0x40 MLOAD PUSH4 0x70A08231 PUSH1 0xE0 SHL DUP2 MSTORE ADDRESS PUSH1 0x4 DUP3 ADD MSTORE PUSH1 0x20 PUSH1 0x1 PUSH1 0x1 PUSH1 0xA0 SHL SUB PUSH32 0x0 DUP2 AND DUP3 DUP5 PUSH1 0x24 DUP2 DUP5 GAS STATICCALL SWAP4 DUP5 ISZERO PUSH2 0xEE4 JUMPI PUSH1 0x0 SWAP5 PUSH2 0x1B98 JUMPI JUMPDEST POP DUP4 ISZERO PUSH2 0x1B5D JUMPI PUSH1 0x1 SLOAD PUSH1 0x40 MLOAD PUSH4 0xA9059CBB PUSH1 0xE0 SHL DUP2 MSTORE SWAP1 DUP4 AND PUSH1 0x1 PUSH1 0x1 PUSH1 0xA0 SHL SUB AND PUSH1 0x4 DUP3 ADD MSTORE PUSH1 0x24 DUP2 ADD DUP6 SWAP1 MSTORE SWAP1 DUP4 SWAP1 DUP3 SWAP1 DUP2 PUSH1 0x0 DUP2 PUSH1 0x44 DUP2 ADD SUB SWAP3 GAS CALL SWAP1 DUP2 ISZERO PUSH2 0xEE4 JUMPI PUSH1 0x0 SWAP2 PUSH2 0x1B40 JUMPI JUMPDEST POP ISZERO PUSH2 0x1B07 JUMPI SWAP1 PUSH32 0x7FCF532C15F0A6DB0BD6D0E038BEA71D30D808C7D98CB3BF7268A95BF5081B65 SWAP2 PUSH1 0x1 SLOAD AND SWAP3 PUSH1 0x40 MLOAD SWAP1 DUP2 MSTORE LOG2 STOP JUMPDEST PUSH1 0x40 MLOAD PUSH3 0x461BCD PUSH1 0xE5 SHL DUP2 MSTORE PUSH1 0x4 DUP2 ADD DUP4 SWAP1 MSTORE PUSH1 0x11 PUSH1 0x24 DUP3 ADD MSTORE PUSH17 0x15DA5D1A191C985DD85B0819985A5B1959 PUSH1 0x7A SHL PUSH1 0x44 DUP3 ADD MSTORE PUSH1 0x64 SWAP1 REVERT JUMPDEST PUSH2 0x1B57 SWAP2 POP DUP4 RETURNDATASIZE DUP6 GT PUSH2 0xEDD JUMPI PUSH2 0xECF DUP2 DUP4 PUSH2 0x2637 JUMP JUMPDEST DUP5 PUSH2 0x1AD0 JUMP JUMPDEST PUSH1 0x40 MLOAD PUSH3 0x461BCD PUSH1 0xE5 SHL DUP2 MSTORE PUSH1 0x4 DUP2 ADD DUP5 SWAP1 MSTORE PUSH1 0x13 PUSH1 0x24 DUP3 ADD MSTORE PUSH19 0x4E6F205553444320746F207769746864726177 PUSH1 0x68 SHL PUSH1 0x44 DUP3 ADD MSTORE PUSH1 0x64 SWAP1 REVERT JUMPDEST SWAP1 SWAP4 POP DUP3 DUP2 DUP2 RETURNDATASIZE DUP4 GT PUSH2 0x1BC0 JUMPI JUMPDEST PUSH2 0x1BB0 DUP2 DUP4 PUSH2 0x2637 JUMP JUMPDEST DUP2 ADD SUB SLT PUSH2 0x1C4 JUMPI MLOAD SWAP3 DUP5 PUSH2 0x1A81 JUMP JUMPDEST POP RETURNDATASIZE PUSH2 0x1BA6 JUMP JUMPDEST CALLVALUE PUSH2 0x1C4 JUMPI PUSH1 0x20 CALLDATASIZE PUSH1 0x3 NOT ADD SLT PUSH2 0x1C4 JUMPI PUSH2 0x1BE5 PUSH1 0x4 CALLDATALOAD ISZERO ISZERO PUSH2 0x2756 JUMP JUMPDEST PUSH2 0x1BF8 PUSH5 0x174876E800 PUSH1 0x4 CALLDATALOAD GT ISZERO PUSH2 0x27A2 JUMP JUMPDEST PUSH2 0x1C00 PUSH2 0x2917 JUMP JUMPDEST CALLER PUSH1 0x0 MSTORE PUSH1 0x2 PUSH1 0x20 MSTORE PUSH1 0x40 PUSH1 0x0 KECCAK256 PUSH1 0xFF PUSH1 0x6 DUP3 ADD SLOAD AND ISZERO PUSH2 0x20BC JUMPI PUSH1 0x4 CALLDATALOAD PUSH1 0x2 DUP3 ADD SLOAD LT PUSH2 0x2077 JUMPI PUSH2 0x1C78 PUSH1 0x20 PUSH2 0x1C4B PUSH2 0x1C46 PUSH2 0x1C3C CALLER PUSH2 0x29BC JUMP JUMPDEST SWAP2 SWAP1 PUSH1 0x4 CALLDATALOAD PUSH2 0x2801 JUMP JUMPDEST PUSH2 0x2801 JUMP JUMPDEST PUSH1 0x40 MLOAD PUSH4 0x23B872DD PUSH1 0xE0 SHL DUP2 MSTORE CALLER PUSH1 0x4 DUP3 ADD MSTORE ADDRESS PUSH1 0x24 DUP3 ADD MSTORE PUSH1 0x44 DUP2 ADD SWAP2 SWAP1 SWAP2 MSTORE SWAP2 DUP3 SWAP1 DUP2 SWAP1 PUSH1 0x64 DUP3 ADD SWAP1 JUMP JUMPDEST SUB DUP2 PUSH1 0x0 PUSH32 0x0 PUSH1 0x1 PUSH1 0x1 PUSH1 0xA0 SHL SUB AND GAS CALL DUP1 ISZERO PUSH2 0xEE4 JUMPI PUSH2 0x1CBF SWAP2 PUSH1 0x0 SWAP2 PUSH2 0x2058 JUMPI POP PUSH2 0x28B3 JUMP JUMPDEST PUSH1 0x1 PUSH1 0x7 SLOAD ADD DUP1 PUSH1 0x7 SSTORE PUSH1 0x40 MLOAD SWAP2 PUSH2 0x1CD6 DUP4 PUSH2 0x25FF JUMP JUMPDEST DUP2 DUP4 MSTORE CALLER PUSH1 0x20 DUP5 ADD MSTORE PUSH1 0x0 PUSH1 0x40 DUP5 ADD MSTORE PUSH1 0x4 CALLDATALOAD PUSH1 0x60 DUP5 ADD MSTORE TIMESTAMP PUSH1 0x80 DUP5 ADD MSTORE PUSH1 0x40 MLOAD DUP1 PUSH1 0x40 DUP2 ADD LT PUSH1 0x1 PUSH1 0x1 PUSH1 0x40 SHL SUB PUSH1 0x40 DUP4 ADD GT OR PUSH2 0x9A5 JUMPI PUSH1 0x40 DUP2 ADD PUSH1 0x40 MSTORE PUSH1 0x10 DUP2 MSTORE PUSH16 0x10DC99591A5D0814995C185E5B595B9D PUSH1 0x82 SHL PUSH1 0x20 DUP3 ADD MSTORE PUSH1 0xA0 DUP5 ADD MSTORE PUSH1 0x1 PUSH1 0xC0 DUP5 ADD MSTORE PUSH1 0x0 PUSH1 0xE0 DUP5 ADD MSTORE PUSH1 0x1 PUSH2 0x100 DUP5 ADD MSTORE PUSH1 0x0 PUSH2 0x120 DUP5 ADD MSTORE PUSH1 0x0 PUSH2 0x140 DUP5 ADD MSTORE DUP2 PUSH1 0x0 MSTORE PUSH1 0x3 PUSH1 0x20 MSTORE PUSH1 0x40 PUSH1 0x0 KECCAK256 DUP4 MLOAD DUP2 SSTORE PUSH1 0x1 DUP2 ADD PUSH1 0x1 DUP1 PUSH1 0xA0 SHL SUB PUSH1 0x20 DUP7 ADD MLOAD AND SWAP1 PUSH1 0x1 PUSH1 0x1 PUSH1 0x60 SHL SUB PUSH1 0xA0 SHL SWAP2 DUP3 DUP3 SLOAD AND OR SWAP1 SSTORE PUSH1 0x2 DUP3 ADD SWAP1 PUSH1 0x1 DUP1 PUSH1 0xA0 SHL SUB PUSH1 0x40 DUP8 ADD MLOAD AND SWAP1 DUP3 SLOAD AND OR SWAP1 SSTORE PUSH1 0x60 DUP5 ADD MLOAD PUSH1 0x3 DUP3 ADD SSTORE PUSH1 0x80 DUP5 ADD MLOAD PUSH1 0x4 DUP3 ADD SSTORE PUSH1 0xA0 DUP5 ADD MLOAD DUP1 MLOAD SWAP1 PUSH1 0x1 PUSH1 0x1 PUSH1 0x40 SHL SUB DUP3 GT PUSH2 0x9A5 JUMPI PUSH2 0x1DE5 PUSH1 0x5 DUP5 ADD SLOAD PUSH2 0x25C5 JUMP JUMPDEST PUSH1 0x1F DUP2 GT PUSH2 0x2011 JUMPI JUMPDEST POP PUSH1 0x20 SWAP1 PUSH1 0x1F DUP4 GT PUSH1 0x1 EQ PUSH2 0x1F98 JUMPI SWAP6 DUP3 PUSH1 0xA SWAP4 PUSH2 0x140 SWAP4 PUSH1 0x2 SWAP9 SWAP10 PUSH1 0x0 SWAP3 PUSH2 0x1F8D JUMPI JUMPDEST POP POP DUP2 PUSH1 0x1 SHL SWAP2 PUSH1 0x0 NOT SWAP1 PUSH1 0x3 SHL SHR NOT AND OR PUSH1 0x5 DUP6 ADD SSTORE JUMPDEST PUSH2 0x1E49 PUSH1 0xC0 DUP3 ADD MLOAD ISZERO ISZERO PUSH1 0x6 DUP7 ADD SWAP1 PUSH1 0xFF DUP1 NOT DUP4 SLOAD AND SWAP2 ISZERO ISZERO AND OR SWAP1 SSTORE JUMP JUMPDEST PUSH1 0xE0 DUP2 ADD MLOAD PUSH1 0x7 DUP6 ADD SSTORE PUSH2 0x1E73 PUSH2 0x100 DUP3 ADD MLOAD ISZERO ISZERO PUSH1 0x8 DUP7 ADD SWAP1 PUSH1 0xFF DUP1 NOT DUP4 SLOAD AND SWAP2 ISZERO ISZERO AND OR SWAP1 SSTORE JUMP JUMPDEST PUSH2 0x120 DUP2 ADD MLOAD PUSH1 0x9 DUP6 ADD SSTORE ADD MLOAD SWAP2 ADD SSTORE CALLER PUSH1 0x0 MSTORE PUSH1 0x5 PUSH1 0x20 MSTORE PUSH2 0x1E9A DUP4 PUSH1 0x40 PUSH1 0x0 KECCAK256 PUSH2 0x2854 JUMP JUMPDEST PUSH2 0x1EA9 PUSH1 0x4 CALLDATALOAD DUP4 DUP4 ADD SLOAD PUSH2 0x288E JUMP JUMPDEST DUP3 DUP3 ADD SSTORE PUSH1 0x1 DUP2 ADD PUSH2 0x1EBE PUSH1 0x4 CALLDATALOAD DUP3 SLOAD PUSH2 0x2801 JUMP JUMPDEST SWAP1 SSTORE TIMESTAMP PUSH1 0x4 DUP3 ADD SSTORE PUSH1 0x8 DUP2 ADD PUSH2 0x1ED7 PUSH1 0x4 CALLDATALOAD DUP3 SLOAD PUSH2 0x2801 JUMP JUMPDEST SWAP1 SSTORE PUSH1 0x0 PUSH1 0xA DUP3 ADD SSTORE PUSH1 0x0 PUSH1 0x9 DUP3 ADD SSTORE CALLER PUSH1 0x0 MSTORE DUP2 PUSH1 0x20 MSTORE PUSH1 0x40 PUSH1 0x0 KECCAK256 PUSH1 0x7 DUP2 ADD SLOAD PUSH1 0x3 PUSH2 0x1F05 DUP3 CALLER PUSH2 0x2B35 JUMP JUMPDEST SWAP3 ADD DUP1 SLOAD DUP4 SUB PUSH2 0x1F51 JUMPI JUMPDEST POP POP POP ADD SLOAD SWAP1 PUSH1 0x40 MLOAD SWAP2 PUSH1 0x4 CALLDATALOAD DUP4 MSTORE PUSH1 0x20 DUP4 ADD MSTORE PUSH32 0xB3DC754E3CD0ADCA79AEDB0CF9CBCADA6B0ED980DBB9D384B635F283985B9687 PUSH1 0x40 CALLER SWAP4 LOG3 PUSH1 0x1 PUSH1 0x0 SSTORE STOP JUMPDEST DUP3 SWAP1 SSTORE PUSH1 0x40 MLOAD SWAP2 DUP3 MSTORE PUSH1 0x20 DUP3 ADD MSTORE PUSH32 0x4F43648F37BC26EE5BC39C60C1C1E2481A9FB9FEB9F86419C91B4645585FF3BC PUSH1 0x40 CALLER SWAP3 LOG2 DUP4 DUP1 DUP1 PUSH2 0x1F10 JUMP JUMPDEST ADD MLOAD SWAP1 POP DUP10 DUP1 PUSH2 0x1E12 JUMP JUMPDEST SWAP1 PUSH1 0x5 DUP5 ADD PUSH1 0x0 MSTORE PUSH1 0x20 PUSH1 0x0 KECCAK256 SWAP2 PUSH1 0x0 JUMPDEST PUSH1 0x1F NOT DUP6 AND DUP2 LT PUSH2 0x1FF9 JUMPI POP DUP4 PUSH2 0x140 SWAP4 PUSH1 0x2 SWAP9 SWAP10 SWAP4 PUSH1 0x1 SWAP4 PUSH1 0xA SWAP8 PUSH1 0x1F NOT DUP2 AND LT PUSH2 0x1FE0 JUMPI JUMPDEST POP POP POP DUP2 SHL ADD PUSH1 0x5 DUP6 ADD SSTORE PUSH2 0x1E2A JUMP JUMPDEST ADD MLOAD PUSH1 0x0 NOT PUSH1 0xF8 DUP5 PUSH1 0x3 SHL AND SHR NOT AND SWAP1 SSTORE DUP10 DUP1 DUP1 PUSH2 0x1FD0 JUMP JUMPDEST SWAP2 SWAP3 PUSH1 0x20 PUSH1 0x1 DUP2 SWAP3 DUP7 DUP6 ADD MLOAD DUP2 SSTORE ADD SWAP5 ADD SWAP3 ADD PUSH2 0x1FA9 JUMP JUMPDEST PUSH1 0x5 DUP5 ADD PUSH1 0x0 MSTORE PUSH1 0x20 PUSH1 0x0 KECCAK256 PUSH1 0x1F DUP5 ADD PUSH1 0x5 SHR DUP2 ADD PUSH1 0x20 DUP6 LT PUSH2 0x2051 JUMPI JUMPDEST PUSH1 0x1F DUP4 ADD PUSH1 0x5 SHR DUP3 ADD DUP2 LT PUSH2 0x2045 JUMPI POP POP PUSH2 0x1DEE JUMP JUMPDEST PUSH1 0x0 DUP2 SSTORE PUSH1 0x1 ADD PUSH2 0x202F JUMP JUMPDEST POP DUP1 PUSH2 0x202F JUMP JUMPDEST PUSH2 0x2071 SWAP2 POP PUSH1 0x20 RETURNDATASIZE PUSH1 0x20 GT PUSH2 0xEDD JUMPI PUSH2 0xECF DUP2 DUP4 PUSH2 0x2637 JUMP JUMPDEST DUP4 PUSH2 0xEA1 JUMP JUMPDEST PUSH1 0x40 MLOAD PUSH3 0x461BCD PUSH1 0xE5 SHL DUP2 MSTORE PUSH1 0x20 PUSH1 0x4 DUP3 ADD MSTORE PUSH1 0x1C PUSH1 0x24 DUP3 ADD MSTORE PUSH32 0x526570617920616D6F756E7420657863656564732062616C616E636500000000 PUSH1 0x44 DUP3 ADD MSTORE PUSH1 0x64 SWAP1 REVERT JUMPDEST PUSH1 0x40 MLOAD PUSH3 0x461BCD PUSH1 0xE5 SHL DUP2 MSTORE PUSH1 0x20 PUSH1 0x4 DUP3 ADD MSTORE PUSH1 0x11 PUSH1 0x24 DUP3 ADD MSTORE PUSH17 0x437265646974206E6F7420616374697665 PUSH1 0x78 SHL PUSH1 0x44 DUP3 ADD MSTORE PUSH1 0x64 SWAP1 REVERT JUMPDEST CALLVALUE PUSH2 0x1C4 JUMPI PUSH1 0x20 CALLDATASIZE PUSH1 0x3 NOT ADD SLT PUSH2 0x1C4 JUMPI PUSH1 0x0 PUSH2 0x140 PUSH1 0x40 MLOAD PUSH2 0x2117 DUP2 PUSH2 0x25FF JUMP JUMPDEST DUP3 DUP2 MSTORE DUP3 PUSH1 0x20 DUP3 ADD MSTORE DUP3 PUSH1 0x40 DUP3 ADD MSTORE DUP3 PUSH1 0x60 DUP3 ADD MSTORE DUP3 PUSH1 0x80 DUP3 ADD MSTORE PUSH1 0x60 PUSH1 0xA0 DUP3 ADD MSTORE DUP3 PUSH1 0xC0 DUP3 ADD MSTORE DUP3 PUSH1 0xE0 DUP3 ADD MSTORE DUP3 PUSH2 0x100 DUP3 ADD MSTORE DUP3 PUSH2 0x120 DUP3 ADD MSTORE ADD MSTORE PUSH1 0x4 CALLDATALOAD PUSH1 0x0 MSTORE PUSH1 0x3 PUSH1 0x20 MSTORE PUSH1 0x40 PUSH1 0x0 KECCAK256 PUSH1 0xA PUSH1 0x40 MLOAD SWAP2 PUSH2 0x2174 DUP4 PUSH2 0x25FF JUMP JUMPDEST DUP1 SLOAD DUP4 MSTORE PUSH1 0x1 DUP2 ADD SLOAD PUSH1 0x1 PUSH1 0x1 PUSH1 0xA0 SHL SUB SWAP1 DUP2 AND PUSH1 0x20 DUP6 ADD MSTORE PUSH1 0x2 DUP3 ADD SLOAD AND PUSH1 0x40 DUP5 ADD MSTORE PUSH1 0x3 DUP2 ADD SLOAD PUSH1 0x60 DUP5 ADD MSTORE PUSH1 0x4 DUP2 ADD SLOAD PUSH1 0x80 DUP5 ADD MSTORE PUSH2 0x21B8 PUSH1 0x5 DUP3 ADD PUSH2 0x2658 JUMP JUMPDEST PUSH1 0xA0 DUP5 ADD MSTORE PUSH1 0xFF PUSH1 0x6 DUP3 ADD SLOAD AND ISZERO ISZERO PUSH1 0xC0 DUP5 ADD MSTORE PUSH1 0x7 DUP2 ADD SLOAD PUSH1 0xE0 DUP5 ADD MSTORE PUSH1 0xFF PUSH1 0x8 DUP3 ADD SLOAD AND ISZERO ISZERO PUSH2 0x100 DUP5 ADD MSTORE PUSH1 0x9 DUP2 ADD SLOAD PUSH2 0x120 DUP5 ADD MSTORE ADD SLOAD PUSH2 0x140 DUP3 ADD MSTORE PUSH1 0x40 MLOAD DUP1 SWAP2 PUSH1 0x20 DUP3 MSTORE DUP1 MLOAD PUSH1 0x20 DUP4 ADD MSTORE PUSH1 0x1 DUP1 PUSH1 0xA0 SHL SUB PUSH1 0x20 DUP3 ADD MLOAD AND PUSH1 0x40 DUP4 ADD MSTORE PUSH1 0x1 DUP1 PUSH1 0xA0 SHL SUB PUSH1 0x40 DUP3 ADD MLOAD AND PUSH1 0x60 DUP4 ADD MSTORE PUSH1 0x60 DUP2 ADD MLOAD PUSH1 0x80 DUP4 ADD MSTORE PUSH1 0x80 DUP2 ADD MLOAD PUSH1 0xA0 DUP4 ADD MSTORE PUSH1 0xA0 DUP2 ADD MLOAD PUSH2 0x140 PUSH2 0x2261 PUSH2 0x160 SWAP3 DUP4 PUSH1 0xC0 DUP8 ADD MSTORE PUSH2 0x180 DUP7 ADD SWAP1 PUSH2 0x24C7 JUMP JUMPDEST SWAP3 PUSH1 0xC0 DUP2 ADD MLOAD ISZERO ISZERO PUSH1 0xE0 DUP7 ADD MSTORE PUSH1 0xE0 DUP2 ADD MLOAD PUSH2 0x100 DUP7 ADD MSTORE PUSH2 0x100 DUP2 ADD MLOAD ISZERO ISZERO PUSH2 0x120 DUP7 ADD MSTORE PUSH2 0x120 DUP2 ADD MLOAD DUP3 DUP7 ADD MSTORE ADD MLOAD SWAP1 DUP4 ADD MSTORE SUB SWAP1 RETURN JUMPDEST CALLVALUE PUSH2 0x1C4 JUMPI PUSH1 0x0 CALLDATASIZE PUSH1 0x3 NOT ADD SLT PUSH2 0x1C4 JUMPI PUSH1 0x20 PUSH1 0x40 MLOAD PUSH5 0x174876E800 DUP2 MSTORE RETURN JUMPDEST CALLVALUE PUSH2 0x1C4 JUMPI PUSH1 0x20 CALLDATASIZE PUSH1 0x3 NOT ADD SLT PUSH2 0x1C4 JUMPI PUSH1 0x1 PUSH1 0x1 PUSH1 0xA0 SHL SUB PUSH2 0x22DC PUSH2 0x2494 JUMP JUMPDEST AND PUSH1 0x0 MSTORE PUSH1 0x2 PUSH1 0x20 MSTORE PUSH1 0x40 PUSH1 0x0 KECCAK256 DUP1 SLOAD PUSH1 0x1 DUP3 ADD SLOAD SWAP2 PUSH1 0x2 DUP2 ADD SLOAD PUSH1 0x3 DUP3 ADD SLOAD PUSH1 0x4 DUP4 ADD SLOAD PUSH1 0x5 DUP5 ADD SLOAD PUSH1 0x6 DUP6 ADD SLOAD PUSH1 0xFF AND PUSH1 0x7 DUP7 ADD SLOAD PUSH1 0x8 DUP8 ADD SLOAD SWAP2 PUSH1 0x9 DUP9 ADD SLOAD SWAP4 PUSH1 0xA DUP10 ADD SLOAD SWAP6 PUSH1 0xB DUP11 ADD SLOAD SWAP8 PUSH1 0xC DUP12 ADD SLOAD SWAP10 PUSH1 0xD DUP13 ADD SLOAD SWAP12 PUSH1 0xE ADD SLOAD SWAP13 PUSH1 0x40 MLOAD SWAP15 DUP16 SWAP2 DUP3 MSTORE PUSH1 0x20 DUP3 ADD MSTORE PUSH1 0x40 ADD MSTORE PUSH1 0x60 DUP14 ADD MSTORE PUSH1 0x80 DUP13 ADD MSTORE PUSH1 0xA0 DUP12 ADD MSTORE ISZERO ISZERO PUSH1 0xC0 DUP11 ADD MSTORE PUSH1 0xE0 DUP10 ADD MSTORE PUSH2 0x100 DUP9 ADD MSTORE PUSH2 0x120 DUP8 ADD MSTORE PUSH2 0x140 DUP7 ADD MSTORE PUSH2 0x160 DUP6 ADD MSTORE PUSH2 0x180 DUP5 ADD MSTORE PUSH2 0x1A0 DUP4 ADD MSTORE PUSH2 0x1C0 DUP3 ADD MSTORE PUSH2 0x1E0 SWAP1 RETURN JUMPDEST CALLVALUE PUSH2 0x1C4 JUMPI PUSH1 0x0 CALLDATASIZE PUSH1 0x3 NOT ADD SLT PUSH2 0x1C4 JUMPI PUSH1 0x20 PUSH1 0x40 MLOAD PUSH1 0x19 DUP2 MSTORE RETURN JUMPDEST CALLVALUE PUSH2 0x1C4 JUMPI PUSH1 0x0 CALLDATASIZE PUSH1 0x3 NOT ADD SLT PUSH2 0x1C4 JUMPI PUSH1 0x40 MLOAD PUSH32 0x0 PUSH1 0x1 PUSH1 0x1 PUSH1 0xA0 SHL SUB AND DUP2 MSTORE PUSH1 0x20 SWAP1 RETURN JUMPDEST CALLVALUE PUSH2 0x1C4 JUMPI PUSH1 0x0 CALLDATASIZE PUSH1 0x3 NOT ADD SLT PUSH2 0x1C4 JUMPI PUSH1 0x20 PUSH1 0x40 MLOAD PUSH2 0x1F4 DUP2 MSTORE RETURN JUMPDEST CALLVALUE PUSH2 0x1C4 JUMPI PUSH1 0x20 CALLDATASIZE PUSH1 0x3 NOT ADD SLT PUSH2 0x1C4 JUMPI PUSH1 0x1 PUSH1 0x1 PUSH1 0xA0 SHL SUB PUSH2 0x2437 PUSH2 0x2494 JUMP JUMPDEST AND PUSH1 0x0 MSTORE PUSH1 0x2 PUSH1 0x20 MSTORE PUSH1 0xC0 PUSH1 0x40 PUSH1 0x0 KECCAK256 PUSH1 0xB DUP2 ADD SLOAD SWAP1 PUSH1 0xD DUP2 ADD SLOAD SWAP1 PUSH1 0xE PUSH1 0xC DUP3 ADD SLOAD SWAP2 ADD SLOAD PUSH2 0x2467 DUP4 DUP6 PUSH2 0x288E JUMP JUMPDEST SWAP2 PUSH2 0x2472 DUP3 DUP3 PUSH2 0x288E JUMP JUMPDEST SWAP4 PUSH1 0x40 MLOAD SWAP6 DUP7 MSTORE PUSH1 0x20 DUP7 ADD MSTORE PUSH1 0x40 DUP6 ADD MSTORE PUSH1 0x60 DUP5 ADD MSTORE PUSH1 0x80 DUP4 ADD MSTORE PUSH1 0xA0 DUP3 ADD MSTORE RETURN JUMPDEST PUSH1 0x4 CALLDATALOAD SWAP1 PUSH1 0x1 PUSH1 0x1 PUSH1 0xA0 SHL SUB DUP3 AND DUP3 SUB PUSH2 0x1C4 JUMPI JUMP JUMPDEST CALLVALUE PUSH2 0x1C4 JUMPI PUSH1 0x0 CALLDATASIZE PUSH1 0x3 NOT ADD SLT PUSH2 0x1C4 JUMPI PUSH1 0x20 PUSH1 0x40 MLOAD PUSH2 0x12C DUP2 MSTORE RETURN JUMPDEST SWAP2 SWAP1 DUP3 MLOAD SWAP3 DUP4 DUP3 MSTORE PUSH1 0x0 JUMPDEST DUP5 DUP2 LT PUSH2 0x24F3 JUMPI POP POP DUP3 PUSH1 0x0 PUSH1 0x20 DUP1 SWAP5 SWAP6 DUP5 ADD ADD MSTORE PUSH1 0x1F DUP1 NOT SWAP2 ADD AND ADD ADD SWAP1 JUMP JUMPDEST PUSH1 0x20 DUP2 DUP4 ADD DUP2 ADD MLOAD DUP5 DUP4 ADD DUP3 ADD MSTORE ADD PUSH2 0x24D2 JUMP JUMPDEST DUP1 SLOAD DUP3 LT ISZERO PUSH2 0x251F JUMPI PUSH1 0x0 MSTORE PUSH1 0x20 PUSH1 0x0 KECCAK256 ADD SWAP1 PUSH1 0x0 SWAP1 JUMP JUMPDEST PUSH4 0x4E487B71 PUSH1 0xE0 SHL PUSH1 0x0 MSTORE PUSH1 0x32 PUSH1 0x4 MSTORE PUSH1 0x24 PUSH1 0x0 REVERT JUMPDEST SWAP1 DUP2 MLOAD DUP1 DUP3 MSTORE PUSH1 0x20 DUP1 DUP1 SWAP4 ADD SWAP4 ADD SWAP2 PUSH1 0x0 JUMPDEST DUP3 DUP2 LT PUSH2 0x2555 JUMPI POP POP POP POP SWAP1 JUMP JUMPDEST DUP4 MLOAD DUP6 MSTORE SWAP4 DUP2 ADD SWAP4 SWAP3 DUP2 ADD SWAP3 PUSH1 0x1 ADD PUSH2 0x2547 JUMP JUMPDEST SWAP2 DUP2 PUSH1 0x1F DUP5 ADD SLT ISZERO PUSH2 0x1C4 JUMPI DUP3 CALLDATALOAD SWAP2 PUSH1 0x1 PUSH1 0x1 PUSH1 0x40 SHL SUB DUP4 GT PUSH2 0x1C4 JUMPI PUSH1 0x20 DUP4 DUP2 DUP7 ADD SWAP6 ADD ADD GT PUSH2 0x1C4 JUMPI JUMP JUMPDEST PUSH1 0x40 SWAP1 PUSH1 0x3 NOT ADD SLT PUSH2 0x1C4 JUMPI PUSH1 0x4 CALLDATALOAD PUSH1 0x1 PUSH1 0x1 PUSH1 0xA0 SHL SUB DUP2 AND DUP2 SUB PUSH2 0x1C4 JUMPI SWAP1 PUSH1 0x24 CALLDATALOAD DUP1 ISZERO ISZERO DUP2 SUB PUSH2 0x1C4 JUMPI SWAP1 JUMP JUMPDEST SWAP1 PUSH1 0x1 DUP3 DUP2 SHR SWAP3 AND DUP1 ISZERO PUSH2 0x25F5 JUMPI JUMPDEST PUSH1 0x20 DUP4 LT EQ PUSH2 0x25DF JUMPI JUMP JUMPDEST PUSH4 0x4E487B71 PUSH1 0xE0 SHL PUSH1 0x0 MSTORE PUSH1 0x22 PUSH1 0x4 MSTORE PUSH1 0x24 PUSH1 0x0 REVERT JUMPDEST SWAP2 PUSH1 0x7F AND SWAP2 PUSH2 0x25D4 JUMP JUMPDEST PUSH2 0x160 DUP2 ADD SWAP1 DUP2 LT PUSH1 0x1 PUSH1 0x1 PUSH1 0x40 SHL SUB DUP3 GT OR PUSH2 0x9A5 JUMPI PUSH1 0x40 MSTORE JUMP JUMPDEST PUSH2 0x1E0 DUP2 ADD SWAP1 DUP2 LT PUSH1 0x1 PUSH1 0x1 PUSH1 0x40 SHL SUB DUP3 GT OR PUSH2 0x9A5 JUMPI PUSH1 0x40 MSTORE JUMP JUMPDEST SWAP1 PUSH1 0x1F DUP1 NOT SWAP2 ADD AND DUP2 ADD SWAP1 DUP2 LT PUSH1 0x1 PUSH1 0x1 PUSH1 0x40 SHL SUB DUP3 GT OR PUSH2 0x9A5 JUMPI PUSH1 0x40 MSTORE JUMP JUMPDEST SWAP1 PUSH1 0x40 MLOAD SWAP2 DUP3 PUSH1 0x0 DUP3 SLOAD SWAP3 PUSH2 0x266C DUP5 PUSH2 0x25C5 JUMP JUMPDEST SWAP1 DUP2 DUP5 MSTORE PUSH1 0x1 SWAP5 DUP6 DUP2 AND SWAP1 DUP2 PUSH1 0x0 EQ PUSH2 0x26DB JUMPI POP PUSH1 0x1 EQ PUSH2 0x2698 JUMPI JUMPDEST POP POP PUSH2 0x2696 SWAP3 POP SUB DUP4 PUSH2 0x2637 JUMP JUMPDEST JUMP JUMPDEST SWAP1 SWAP4 SWAP2 POP PUSH1 0x0 MSTORE PUSH1 0x20 SWAP1 DUP2 PUSH1 0x0 KECCAK256 SWAP4 PUSH1 0x0 SWAP2 JUMPDEST DUP2 DUP4 LT PUSH2 0x26C3 JUMPI POP POP PUSH2 0x2696 SWAP4 POP DUP3 ADD ADD CODESIZE DUP1 PUSH2 0x2688 JUMP JUMPDEST DUP6 SLOAD DUP9 DUP5 ADD DUP6 ADD MSTORE SWAP5 DUP6 ADD SWAP5 DUP8 SWAP5 POP SWAP2 DUP4 ADD SWAP2 PUSH2 0x26AB JUMP JUMPDEST SWAP2 POP POP PUSH2 0x2696 SWAP5 POP PUSH1 0x20 SWAP3 POP PUSH1 0xFF NOT AND DUP3 DUP5 ADD MSTORE ISZERO ISZERO PUSH1 0x5 SHL DUP3 ADD ADD CODESIZE DUP1 PUSH2 0x2688 JUMP JUMPDEST PUSH1 0x1 SLOAD PUSH1 0x1 PUSH1 0x1 PUSH1 0xA0 SHL SUB AND CALLER SUB PUSH2 0x2712 JUMPI JUMP JUMPDEST PUSH1 0x64 PUSH1 0x40 MLOAD PUSH3 0x461BCD PUSH1 0xE5 SHL DUP2 MSTORE PUSH1 0x20 PUSH1 0x4 DUP3 ADD MSTORE PUSH1 0x20 PUSH1 0x24 DUP3 ADD MSTORE PUSH32 0x4F776E61626C653A2063616C6C6572206973206E6F7420746865206F776E6572 PUSH1 0x44 DUP3 ADD MSTORE REVERT JUMPDEST ISZERO PUSH2 0x275D JUMPI JUMP JUMPDEST PUSH1 0x40 MLOAD PUSH3 0x461BCD PUSH1 0xE5 SHL DUP2 MSTORE PUSH1 0x20 PUSH1 0x4 DUP3 ADD MSTORE PUSH1 0x1D PUSH1 0x24 DUP3 ADD MSTORE PUSH32 0x416D6F756E74206D7573742062652067726561746572207468616E2030000000 PUSH1 0x44 DUP3 ADD MSTORE PUSH1 0x64 SWAP1 REVERT JUMPDEST ISZERO PUSH2 0x27A9 JUMPI JUMP JUMPDEST PUSH1 0x40 MLOAD PUSH3 0x461BCD PUSH1 0xE5 SHL DUP2 MSTORE PUSH1 0x20 PUSH1 0x4 DUP3 ADD MSTORE PUSH1 0x1C PUSH1 0x24 DUP3 ADD MSTORE PUSH32 0x416D6F756E742065786365656473206D6178696D756D206C696D697400000000 PUSH1 0x44 DUP3 ADD MSTORE PUSH1 0x64 SWAP1 REVERT JUMPDEST DUP2 DUP2 MUL SWAP3 SWAP2 DUP2 ISZERO SWAP2 DUP5 DIV EQ OR ISZERO PUSH2 0x161C JUMPI JUMP JUMPDEST SWAP2 SWAP1 DUP3 ADD DUP1 SWAP3 GT PUSH2 0x161C JUMPI JUMP JUMPDEST SWAP3 SWAP2 SWAP3 PUSH1 0x1 PUSH1 0x1 PUSH1 0x40 SHL SUB DUP3 GT PUSH2 0x9A5 JUMPI PUSH1 0x40 MLOAD SWAP2 PUSH2 0x2837 PUSH1 0x1F DUP3 ADD PUSH1 0x1F NOT AND PUSH1 0x20 ADD DUP5 PUSH2 0x2637 JUMP JUMPDEST DUP3 SWAP5 DUP2 DUP5 MSTORE DUP2 DUP4 ADD GT PUSH2 0x1C4 JUMPI DUP3 DUP2 PUSH1 0x20 SWAP4 DUP5 PUSH1 0x0 SWAP7 ADD CALLDATACOPY ADD ADD MSTORE JUMP JUMPDEST DUP1 SLOAD PUSH9 0x10000000000000000 DUP2 LT ISZERO PUSH2 0x9A5 JUMPI PUSH2 0x2876 SWAP2 PUSH1 0x1 DUP3 ADD DUP2 SSTORE PUSH2 0x2507 JUMP JUMPDEST DUP2 SWAP3 SWAP2 SLOAD SWAP1 PUSH1 0x3 SHL SWAP2 DUP3 SHL SWAP2 PUSH1 0x0 NOT SWAP1 SHL NOT AND OR SWAP1 SSTORE JUMP JUMPDEST SWAP2 SWAP1 DUP3 SUB SWAP2 DUP3 GT PUSH2 0x161C JUMPI JUMP JUMPDEST SWAP1 DUP2 PUSH1 0x20 SWAP2 SUB SLT PUSH2 0x1C4 JUMPI MLOAD DUP1 ISZERO ISZERO DUP2 SUB PUSH2 0x1C4 JUMPI SWAP1 JUMP JUMPDEST ISZERO PUSH2 0x28BA JUMPI JUMP JUMPDEST PUSH1 0x40 MLOAD PUSH3 0x461BCD PUSH1 0xE5 SHL DUP2 MSTORE PUSH1 0x20 PUSH1 0x4 DUP3 ADD MSTORE PUSH1 0x14 PUSH1 0x24 DUP3 ADD MSTORE PUSH20 0x1554D110C81D1C985B9CD9995C8819985A5B1959 PUSH1 0x62 SHL PUSH1 0x44 DUP3 ADD MSTORE PUSH1 0x64 SWAP1 REVERT JUMPDEST SWAP1 DUP1 PUSH1 0x20 SWAP4 SWAP3 DUP2 DUP5 MSTORE DUP5 DUP5 ADD CALLDATACOPY PUSH1 0x0 DUP3 DUP3 ADD DUP5 ADD MSTORE PUSH1 0x1F ADD PUSH1 0x1F NOT AND ADD ADD SWAP1 JUMP JUMPDEST PUSH1 0x2 PUSH1 0x0 SLOAD EQ PUSH2 0x2928 JUMPI PUSH1 0x2 PUSH1 0x0 SSTORE JUMP JUMPDEST PUSH1 0x40 MLOAD PUSH3 0x461BCD PUSH1 0xE5 SHL DUP2 MSTORE PUSH1 0x20 PUSH1 0x4 DUP3 ADD MSTORE PUSH1 0x1F PUSH1 0x24 DUP3 ADD MSTORE PUSH32 0x5265656E7472616E637947756172643A207265656E7472616E742063616C6C00 PUSH1 0x44 DUP3 ADD MSTORE PUSH1 0x64 SWAP1 REVERT JUMPDEST SWAP1 PUSH1 0x40 MLOAD SWAP2 DUP3 DUP2 SLOAD SWAP2 DUP3 DUP3 MSTORE PUSH1 0x20 SWAP3 DUP4 DUP4 ADD SWAP2 PUSH1 0x0 MSTORE DUP4 PUSH1 0x0 KECCAK256 SWAP4 PUSH1 0x0 SWAP1 JUMPDEST DUP3 DUP3 LT PUSH2 0x29A2 JUMPI POP POP POP PUSH2 0x2696 SWAP3 POP SUB DUP4 PUSH2 0x2637 JUMP JUMPDEST DUP6 SLOAD DUP5 MSTORE PUSH1 0x1 SWAP6 DUP7 ADD SWAP6 DUP9 SWAP6 POP SWAP4 DUP2 ADD SWAP4 SWAP1 SWAP2 ADD SWAP1 PUSH2 0x298C JUMP JUMPDEST PUSH1 0x0 DUP1 SWAP2 PUSH1 0x1 DUP1 PUSH1 0xA0 SHL SUB AND SWAP1 DUP2 DUP4 MSTORE PUSH1 0x20 SWAP2 PUSH1 0x2 DUP4 MSTORE PUSH1 0x40 SWAP3 DUP4 DUP6 KECCAK256 SWAP4 PUSH1 0x2 DUP6 ADD SLOAD SWAP3 DUP4 ISZERO PUSH2 0x2B2A JUMPI SWAP1 PUSH2 0x29FF SWAP3 SWAP2 PUSH1 0x4 DUP1 SWAP8 ADD SLOAD PUSH3 0x15180 SWAP5 DUP6 SWAP2 TIMESTAMP PUSH2 0x288E JUMP JUMPDEST DIV SWAP5 DUP1 PUSH1 0x2 SHL SWAP1 DUP2 DIV DUP9 SUB PUSH2 0x2B17 JUMPI PUSH2 0x2A1C PUSH2 0x2710 SWAP7 DUP8 SWAP3 PUSH2 0x27EE JUMP JUMPDEST DIV SWAP1 DUP9 MSTORE PUSH1 0x5 DUP1 DUP5 MSTORE PUSH2 0x2A30 DUP4 DUP11 KECCAK256 PUSH2 0x296D JUMP JUMPDEST SWAP2 DUP10 JUMPDEST DUP4 MLOAD DUP2 LT ISZERO PUSH2 0x2B09 JUMPI DUP6 DUP2 DUP5 SHL DUP6 ADD ADD MLOAD DUP12 MSTORE PUSH1 0x3 DUP1 DUP8 MSTORE DUP6 DUP13 KECCAK256 SWAP1 PUSH1 0xFF DUP1 PUSH1 0x6 DUP5 ADD SLOAD AND ISZERO SWAP1 DUP2 PUSH2 0x2AFA JUMPI JUMPDEST POP DUP1 PUSH2 0x2AED JUMPI JUMPDEST PUSH2 0x2A92 JUMPI JUMPDEST POP POP PUSH1 0x0 NOT DUP2 EQ PUSH2 0x2A7F JUMPI PUSH1 0x1 ADD PUSH2 0x2A33 JUMP JUMPDEST PUSH4 0x4E487B71 PUSH1 0xE0 SHL DUP12 MSTORE PUSH1 0x11 DUP11 MSTORE PUSH1 0x24 DUP12 REVERT JUMPDEST DUP9 PUSH2 0x2AA4 PUSH1 0x7 DUP5 SWAP14 SWAP6 SWAP14 ADD SLOAD TIMESTAMP PUSH2 0x288E JUMP JUMPDEST DIV SWAP2 ADD SLOAD PUSH2 0x1F4 SWAP1 DUP2 DUP2 MUL SWAP2 DUP2 DUP4 DIV EQ SWAP1 ISZERO OR ISZERO PUSH2 0x2ADA JUMPI PUSH2 0x2ACB PUSH2 0x2AD2 SWAP4 SWAP3 DUP12 SWAP3 PUSH2 0x27EE JUMP JUMPDEST DIV SWAP1 PUSH2 0x2801 JUMP JUMPDEST SWAP8 CODESIZE DUP1 PUSH2 0x2A6C JUMP JUMPDEST PUSH4 0x4E487B71 PUSH1 0xE0 SHL DUP14 MSTORE PUSH1 0x11 DUP13 MSTORE PUSH1 0x24 DUP14 REVERT JUMPDEST POP PUSH1 0x7 DUP3 ADD SLOAD TIMESTAMP GT PUSH2 0x2A67 JUMP JUMPDEST SWAP1 POP PUSH1 0x8 DUP4 ADD SLOAD AND ISZERO CODESIZE PUSH2 0x2A60 JUMP JUMPDEST POP SWAP10 SWAP8 POP POP POP POP POP POP POP SWAP2 POP JUMP JUMPDEST PUSH4 0x4E487B71 PUSH1 0xE0 SHL DUP10 MSTORE PUSH1 0x11 DUP9 MSTORE PUSH1 0x24 DUP10 REVERT JUMPDEST POP POP POP POP POP POP SWAP1 DUP2 SWAP1 JUMP JUMPDEST PUSH2 0x1F4 SWAP2 PUSH2 0x3E8 DUP2 GT ISZERO PUSH2 0x2C59 JUMPI POP SWAP1 PUSH1 0xC8 DUP2 ADD DUP1 SWAP2 GT PUSH2 0x161C JUMPI SWAP1 JUMPDEST PUSH1 0x1 PUSH1 0x1 PUSH1 0xA0 SHL SUB AND PUSH1 0x0 SWAP1 DUP2 MSTORE PUSH1 0x2 PUSH1 0x20 MSTORE PUSH1 0x40 DUP2 KECCAK256 PUSH1 0x7 DUP2 ADD SLOAD SWAP1 DUP2 ISZERO SWAP1 DUP2 ISZERO PUSH2 0x2BA4 JUMPI JUMPDEST POP POP POP POP PUSH2 0x12C DUP1 DUP3 LT PUSH2 0x2B9C JUMPI JUMPDEST POP PUSH2 0x352 DUP1 DUP3 GT PUSH2 0x2B97 JUMPI POP SWAP1 JUMP JUMPDEST SWAP1 POP SWAP1 JUMP JUMPDEST SWAP1 POP CODESIZE PUSH2 0x2B88 JUMP JUMPDEST PUSH1 0x8 ADD SLOAD SWAP1 PUSH1 0x64 DUP3 MUL SWAP2 DUP1 DUP4 DIV PUSH1 0x64 EQ SWAP1 ISZERO OR ISZERO PUSH2 0x2C45 JUMPI PUSH2 0x2C31 JUMPI DIV PUSH1 0x5F DUP2 GT ISZERO PUSH2 0x2BF5 JUMPI POP PUSH1 0x64 DUP3 ADD DUP1 SWAP3 GT PUSH2 0x2BE1 JUMPI POP JUMPDEST CODESIZE DUP1 DUP1 DUP1 PUSH2 0x2B79 JUMP JUMPDEST PUSH4 0x4E487B71 PUSH1 0xE0 SHL DUP2 MSTORE PUSH1 0x11 PUSH1 0x4 MSTORE PUSH1 0x24 SWAP1 REVERT JUMPDEST PUSH1 0x50 DUP2 GT ISZERO PUSH2 0x2C10 JUMPI POP PUSH1 0x32 DUP3 ADD DUP1 SWAP3 GT PUSH2 0x2BE1 JUMPI POP PUSH2 0x2BD8 JUMP JUMPDEST PUSH1 0x32 GT PUSH2 0x2C1E JUMPI JUMPDEST POP PUSH2 0x2BD8 JUMP JUMPDEST PUSH1 0x63 NOT DUP3 ADD SWAP2 DUP3 GT PUSH2 0x2BE1 JUMPI POP CODESIZE PUSH2 0x2C18 JUMP JUMPDEST PUSH4 0x4E487B71 PUSH1 0xE0 SHL DUP4 MSTORE PUSH1 0x12 PUSH1 0x4 MSTORE PUSH1 0x24 DUP4 REVERT JUMPDEST PUSH4 0x4E487B71 PUSH1 0xE0 SHL DUP5 MSTORE PUSH1 0x11 PUSH1 0x4 MSTORE PUSH1 0x24 DUP5 REVERT JUMPDEST DUP3 DUP2 GT ISZERO PUSH2 0x2C74 JUMPI POP SWAP1 PUSH1 0x64 DUP2 ADD DUP1 SWAP2 GT PUSH2 0x161C JUMPI SWAP1 PUSH2 0x2B52 JUMP JUMPDEST PUSH1 0x64 LT ISZERO PUSH2 0x2B52 JUMPI PUSH2 0x226 SWAP2 POP PUSH2 0x2B52 JUMP JUMPDEST SWAP1 PUSH2 0x2EE DUP2 LT ISZERO PUSH2 0x2CF3 JUMPI PUSH2 0x28A DUP2 LT ISZERO PUSH2 0x2CD8 JUMPI PUSH2 0x226 GT ISZERO PUSH2 0x2CBE JUMPI PUSH1 0x28 DUP2 MUL SWAP1 DUP1 DUP3 DIV PUSH1 0x28 EQ SWAP1 ISZERO OR ISZERO PUSH2 0x161C JUMPI PUSH1 0x64 SWAP1 DIV SWAP1 JUMP JUMPDEST PUSH1 0x3C DUP2 MUL SWAP1 DUP1 DUP3 DIV PUSH1 0x3C EQ SWAP1 ISZERO OR ISZERO PUSH2 0x161C JUMPI PUSH1 0x64 SWAP1 DIV SWAP1 JUMP JUMPDEST POP PUSH1 0x50 DUP2 MUL SWAP1 DUP1 DUP3 DIV PUSH1 0x50 EQ SWAP1 ISZERO OR ISZERO PUSH2 0x161C JUMPI PUSH1 0x64 SWAP1 DIV SWAP1 JUMP JUMPDEST POP SWAP1 JUMP INVALID LOG2 PUSH5 0x6970667358 0x22 SLT KECCAK256 0xBA NUMBER JUMP 0xB8 0xE6 LOG1 PUSH23 0x745457987DDD25781A38FC62C0F03659CFBA802D15B6BC SHL 0xC0 PUSH5 0x736F6C6343 STOP ADDMOD EQ STOP CALLER "},"methodIdentifiers":{"ANNUAL_INTEREST_RATE()":"b6783393","BASE_SPND_REWARD_RATE()":"8284befb","BTC_CASHBACK_RATE()":"13de53a2","EXPONENTIAL_MULTIPLIER()":"9aa1c64a","LATE_FEE_RATE()":"11661e3e","MAX_CREDIT_LIMIT()":"22b16a70","MAX_CREDIT_SCORE()":"54203e09","MIN_CREDIT_LIMIT()":"c938dafc","MIN_CREDIT_SCORE()":"0a49cf4d","MIN_PAYMENT_PERCENTAGE()":"56077675","REPAYMENT_PERIOD_DAYS()":"ff9d2e27","SPND_REWARD_TIER_SIZE()":"e3482f41","calculateAccruedCharges(address)":"e8186e56","claimBTCCashback()":"7371f30f","creditFactors(address)":"a2f7c70d","getContractStats()":"dfe6b5d6","getTransaction(uint256)":"33ea3dc8","getUserCreditProfile(address)":"6b0ad6fe","getUserRewards(address)":"078b0fb7","getUserTransactions(address)":"ef925399","merchants(address)":"ee14e939","owner()":"8da5cb5b","registerMerchant(address,string,string,uint256)":"b8e77d7b","renounceOwnership()":"715018a6","repay(uint256)":"371fd8e6","setMerchantWhitelist(address,bool)":"9712c91b","setUserCreditStatus(address,bool)":"983c82ab","setupUserCredit(address,uint256,uint256)":"eaabf093","spend(address,uint256,string)":"6e3f5764","spndToken()":"4770e3c9","transactions(uint256)":"9ace38c2","transferOwnership(address)":"f2fde38b","usdcToken()":"11eac855","userCredits(address)":"20babb92","userTransactionIds(address,uint256)":"46227037","withdraw()":"3ccfd60b"}}}}}