{
  "_format": "hh-sol-artifact-1",
  "contractName": "SwipeFiCreditV3",
  "sourceName": "contracts/SwipeFiCreditV3.sol",
  "abi": [
    {
      "inputs": [
        {
          "internalType": "address",
          "name": "_usdcToken",
          "type": "address"
        },
        {
          "internalType": "address",
          "name": "_spndToken",
          "type": "address"
        }
      ],
      "stateMutability": "nonpayable",
      "type": "constructor"
    },
    {
      "anonymous": false,
      "inputs": [
        {
          "indexed": true,
          "internalType": "address",
          "name": "user",
          "type": "address"
        },
        {
          "indexed": false,
          "internalType": "uint256",
          "name": "amount",
          "type": "uint256"
        }
      ],
      "name": "BTCCashbackClaimed",
      "type": "event"
    },
    {
      "anonymous": false,
      "inputs": [
        {
          "indexed": true,
          "internalType": "address",
          "name": "user",
          "type": "address"
        },
        {
          "indexed": false,
          "internalType": "uint256",
          "name": "amount",
          "type": "uint256"
        },
        {
          "indexed": false,
          "internalType": "uint256",
          "name": "transactionId",
          "type": "uint256"
        }
      ],
      "name": "BTCCashbackEarned",
      "type": "event"
    },
    {
      "anonymous": false,
      "inputs": [
        {
          "indexed": true,
          "internalType": "address",
          "name": "user",
          "type": "address"
        },
        {
          "indexed": false,
          "internalType": "uint256",
          "name": "limit",
          "type": "uint256"
        },
        {
          "indexed": false,
          "internalType": "uint256",
          "name": "creditScore",
          "type": "uint256"
        }
      ],
      "name": "CreditLimitSet",
      "type": "event"
    },
    {
      "anonymous": false,
      "inputs": [
        {
          "indexed": true,
          "internalType": "uint256",
          "name": "transactionId",
          "type": "uint256"
        },
        {
          "indexed": true,
          "internalType": "address",
          "name": "user",
          "type": "address"
        },
        {
          "indexed": false,
          "internalType": "uint256",
          "name": "amount",
          "type": "uint256"
        },
        {
          "indexed": false,
          "internalType": "uint256",
          "name": "newBalance",
          "type": "uint256"
        }
      ],
      "name": "CreditRepaid",
      "type": "event"
    },
    {
      "anonymous": false,
      "inputs": [
        {
          "indexed": true,
          "internalType": "address",
          "name": "user",
          "type": "address"
        },
        {
          "indexed": false,
          "internalType": "uint256",
          "name": "newScore",
          "type": "uint256"
        },
        {
          "indexed": false,
          "internalType": "uint256",
          "name": "factors",
          "type": "uint256"
        }
      ],
      "name": "CreditScoreUpdated",
      "type": "event"
    },
    {
      "anonymous": false,
      "inputs": [
        {
          "indexed": true,
          "internalType": "uint256",
          "name": "transactionId",
          "type": "uint256"
        },
        {
          "indexed": true,
          "internalType": "address",
          "name": "user",
          "type": "address"
        },
        {
          "indexed": true,
          "internalType": "address",
          "name": "merchant",
          "type": "address"
        },
        {
          "indexed": false,
          "internalType": "uint256",
          "name": "amount",
          "type": "uint256"
        },
        {
          "indexed": false,
          "internalType": "string",
          "name": "purpose",
          "type": "string"
        },
        {
          "indexed": false,
          "internalType": "uint256",
          "name": "dueDate",
          "type": "uint256"
        },
        {
          "indexed": false,
          "internalType": "uint256",
          "name": "spndRewards",
          "type": "uint256"
        },
        {
          "indexed": false,
          "internalType": "uint256",
          "name": "btcCashback",
          "type": "uint256"
        }
      ],
      "name": "CreditSpent",
      "type": "event"
    },
    {
      "anonymous": false,
      "inputs": [
        {
          "indexed": true,
          "internalType": "address",
          "name": "user",
          "type": "address"
        },
        {
          "indexed": false,
          "internalType": "uint256",
          "name": "amount",
          "type": "uint256"
        }
      ],
      "name": "InterestAccrued",
      "type": "event"
    },
    {
      "anonymous": false,
      "inputs": [
        {
          "indexed": true,
          "internalType": "address",
          "name": "user",
          "type": "address"
        },
        {
          "indexed": false,
          "internalType": "uint256",
          "name": "amount",
          "type": "uint256"
        },
        {
          "indexed": false,
          "internalType": "uint256",
          "name": "dueDate",
          "type": "uint256"
        }
      ],
      "name": "LateFeeAccrued",
      "type": "event"
    },
    {
      "anonymous": false,
      "inputs": [
        {
          "indexed": true,
          "internalType": "address",
          "name": "merchant",
          "type": "address"
        },
        {
          "indexed": false,
          "internalType": "string",
          "name": "name",
          "type": "string"
        },
        {
          "indexed": false,
          "internalType": "string",
          "name": "category",
          "type": "string"
        }
      ],
      "name": "MerchantRegistered",
      "type": "event"
    },
    {
      "anonymous": false,
      "inputs": [
        {
          "indexed": true,
          "internalType": "address",
          "name": "merchant",
          "type": "address"
        },
        {
          "indexed": false,
          "internalType": "bool",
          "name": "status",
          "type": "bool"
        }
      ],
      "name": "MerchantWhitelisted",
      "type": "event"
    },
    {
      "anonymous": false,
      "inputs": [
        {
          "indexed": true,
          "internalType": "address",
          "name": "previousOwner",
          "type": "address"
        },
        {
          "indexed": true,
          "internalType": "address",
          "name": "newOwner",
          "type": "address"
        }
      ],
      "name": "OwnershipTransferred",
      "type": "event"
    },
    {
      "anonymous": false,
      "inputs": [
        {
          "indexed": true,
          "internalType": "address",
          "name": "user",
          "type": "address"
        },
        {
          "indexed": false,
          "internalType": "uint256",
          "name": "amount",
          "type": "uint256"
        }
      ],
      "name": "SPNDRewardsClaimed",
      "type": "event"
    },
    {
      "anonymous": false,
      "inputs": [
        {
          "indexed": true,
          "internalType": "address",
          "name": "user",
          "type": "address"
        },
        {
          "indexed": false,
          "internalType": "uint256",
          "name": "amount",
          "type": "uint256"
        },
        {
          "indexed": false,
          "internalType": "uint256",
          "name": "transactionId",
          "type": "uint256"
        }
      ],
      "name": "SPNDRewardsEarned",
      "type": "event"
    },
    {
      "anonymous": false,
      "inputs": [
        {
          "indexed": true,
          "internalType": "address",
          "name": "owner",
          "type": "address"
        },
        {
          "indexed": false,
          "internalType": "uint256",
          "name": "amount",
          "type": "uint256"
        }
      ],
      "name": "Withdrawal",
      "type": "event"
    },
    {
      "inputs": [],
      "name": "ANNUAL_INTEREST_RATE",
      "outputs": [
        {
          "internalType": "uint256",
          "name": "",
          "type": "uint256"
        }
      ],
      "stateMutability": "view",
      "type": "function"
    },
    {
      "inputs": [],
      "name": "BASE_SPND_REWARD_RATE",
      "outputs": [
        {
          "internalType": "uint256",
          "name": "",
          "type": "uint256"
        }
      ],
      "stateMutability": "view",
      "type": "function"
    },
    {
      "inputs": [],
      "name": "BTC_CASHBACK_RATE",
      "outputs": [
        {
          "internalType": "uint256",
          "name": "",
          "type": "uint256"
        }
      ],
      "stateMutability": "view",
      "type": "function"
    },
    {
      "inputs": [],
      "name": "EXPONENTIAL_MULTIPLIER",
      "outputs": [
        {
          "internalType": "uint256",
          "name": "",
          "type": "uint256"
        }
      ],
      "stateMutability": "view",
      "type": "function"
    },
    {
      "inputs": [],
      "name": "LATE_FEE_RATE",
      "outputs": [
        {
          "internalType": "uint256",
          "name": "",
          "type": "uint256"
        }
      ],
      "stateMutability": "view",
      "type": "function"
    },
    {
      "inputs": [],
      "name": "MAX_CREDIT_LIMIT",
      "outputs": [
        {
          "internalType": "uint256",
          "name": "",
          "type": "uint256"
        }
      ],
      "stateMutability": "view",
      "type": "function"
    },
    {
      "inputs": [],
      "name": "MAX_CREDIT_SCORE",
      "outputs": [
        {
          "internalType": "uint256",
          "name": "",
          "type": "uint256"
        }
      ],
      "stateMutability": "view",
      "type": "function"
    },
    {
      "inputs": [],
      "name": "MIN_CREDIT_LIMIT",
      "outputs": [
        {
          "internalType": "uint256",
          "name": "",
          "type": "uint256"
        }
      ],
      "stateMutability": "view",
      "type": "function"
    },
    {
      "inputs": [],
      "name": "MIN_CREDIT_SCORE",
      "outputs": [
        {
          "internalType": "uint256",
          "name": "",
          "type": "uint256"
        }
      ],
      "stateMutability": "view",
      "type": "function"
    },
    {
      "inputs": [],
      "name": "MIN_PAYMENT_PERCENTAGE",
      "outputs": [
        {
          "internalType": "uint256",
          "name": "",
          "type": "uint256"
        }
      ],
      "stateMutability": "view",
      "type": "function"
    },
    {
      "inputs": [],
      "name": "REPAYMENT_PERIOD_DAYS",
      "outputs": [
        {
          "internalType": "uint256",
          "name": "",
          "type": "uint256"
        }
      ],
      "stateMutability": "view",
      "type": "function"
    },
    {
      "inputs": [],
      "name": "SPND_REWARD_TIER_SIZE",
      "outputs": [
        {
          "internalType": "uint256",
          "name": "",
          "type": "uint256"
        }
      ],
      "stateMutability": "view",
      "type": "function"
    },
    {
      "inputs": [
        {
          "internalType": "address",
          "name": "user",
          "type": "address"
        }
      ],
      "name": "calculateAccruedCharges",
      "outputs": [
        {
          "internalType": "uint256",
          "name": "interest",
          "type": "uint256"
        },
        {
          "internalType": "uint256",
          "name": "lateFees",
          "type": "uint256"
        }
      ],
      "stateMutability": "view",
      "type": "function"
    },
    {
      "inputs": [],
      "name": "claimBTCCashback",
      "outputs": [],
      "stateMutability": "nonpayable",
      "type": "function"
    },
    {
      "inputs": [
        {
          "internalType": "address",
          "name": "",
          "type": "address"
        }
      ],
      "name": "creditFactors",
      "outputs": [
        {
          "internalType": "uint256",
          "name": "transactionHistory",
          "type": "uint256"
        },
        {
          "internalType": "uint256",
          "name": "paymentHistory",
          "type": "uint256"
        },
        {
          "internalType": "uint256",
          "name": "creditUtilization",
          "type": "uint256"
        },
        {
          "internalType": "uint256",
          "name": "accountAge",
          "type": "uint256"
        },
        {
          "internalType": "uint256",
          "name": "onchainActivity",
          "type": "uint256"
        }
      ],
      "stateMutability": "view",
      "type": "function"
    },
    {
      "inputs": [],
      "name": "getContractStats",
      "outputs": [
        {
          "internalType": "uint256",
          "name": "totalUsers",
          "type": "uint256"
        },
        {
          "internalType": "uint256",
          "name": "totalVolume",
          "type": "uint256"
        },
        {
          "internalType": "uint256",
          "name": "totalOutstanding",
          "type": "uint256"
        },
        {
          "internalType": "uint256",
          "name": "totalMerchants",
          "type": "uint256"
        }
      ],
      "stateMutability": "view",
      "type": "function"
    },
    {
      "inputs": [
        {
          "internalType": "uint256",
          "name": "transactionId",
          "type": "uint256"
        }
      ],
      "name": "getTransaction",
      "outputs": [
        {
          "components": [
            {
              "internalType": "uint256",
              "name": "id",
              "type": "uint256"
            },
            {
              "internalType": "address",
              "name": "user",
              "type": "address"
            },
            {
              "internalType": "address",
              "name": "merchant",
              "type": "address"
            },
            {
              "internalType": "uint256",
              "name": "amount",
              "type": "uint256"
            },
            {
              "internalType": "uint256",
              "name": "timestamp",
              "type": "uint256"
            },
            {
              "internalType": "string",
              "name": "purpose",
              "type": "string"
            },
            {
              "internalType": "bool",
              "name": "isRepayment",
              "type": "bool"
            },
            {
              "internalType": "uint256",
              "name": "dueDate",
              "type": "uint256"
            },
            {
              "internalType": "bool",
              "name": "isPaid",
              "type": "bool"
            },
            {
              "internalType": "uint256",
              "name": "spndRewards",
              "type": "uint256"
            },
            {
              "internalType": "uint256",
              "name": "btcCashback",
              "type": "uint256"
            }
          ],
          "internalType": "struct SwipeFiCreditV3.Transaction",
          "name": "",
          "type": "tuple"
        }
      ],
      "stateMutability": "view",
      "type": "function"
    },
    {
      "inputs": [
        {
          "internalType": "address",
          "name": "user",
          "type": "address"
        }
      ],
      "name": "getUserCreditProfile",
      "outputs": [
        {
          "components": [
            {
              "internalType": "uint256",
              "name": "maxCreditLimit",
              "type": "uint256"
            },
            {
              "internalType": "uint256",
              "name": "availableCredit",
              "type": "uint256"
            },
            {
              "internalType": "uint256",
              "name": "outstandingBalance",
              "type": "uint256"
            },
            {
              "internalType": "uint256",
              "name": "creditScore",
              "type": "uint256"
            },
            {
              "internalType": "uint256",
              "name": "lastPaymentDate",
              "type": "uint256"
            },
            {
              "internalType": "uint256",
              "name": "lastSpendDate",
              "type": "uint256"
            },
            {
              "internalType": "bool",
              "name": "isActive",
              "type": "bool"
            },
            {
              "internalType": "uint256",
              "name": "totalSpent",
              "type": "uint256"
            },
            {
              "internalType": "uint256",
              "name": "totalRepaid",
              "type": "uint256"
            },
            {
              "internalType": "uint256",
              "name": "lateFeesAccrued",
              "type": "uint256"
            },
            {
              "internalType": "uint256",
              "name": "interestAccrued",
              "type": "uint256"
            },
            {
              "internalType": "uint256",
              "name": "spndRewardsEarned",
              "type": "uint256"
            },
            {
              "internalType": "uint256",
              "name": "btcCashbackEarned",
              "type": "uint256"
            },
            {
              "internalType": "uint256",
              "name": "spndRewardsClaimed",
              "type": "uint256"
            },
            {
              "internalType": "uint256",
              "name": "btcCashbackClaimed",
              "type": "uint256"
            }
          ],
          "internalType": "struct SwipeFiCreditV3.UserCredit",
          "name": "credit",
          "type": "tuple"
        },
        {
          "internalType": "uint256[]",
          "name": "transactionIds",
          "type": "uint256[]"
        },
        {
          "internalType": "uint256",
          "name": "accruedInterest",
          "type": "uint256"
        },
        {
          "internalType": "uint256",
          "name": "accruedLateFees",
          "type": "uint256"
        }
      ],
      "stateMutability": "view",
      "type": "function"
    },
    {
      "inputs": [
        {
          "internalType": "address",
          "name": "user",
          "type": "address"
        }
      ],
      "name": "getUserRewards",
      "outputs": [
        {
          "internalType": "uint256",
          "name": "spndEarned",
          "type": "uint256"
        },
        {
          "internalType": "uint256",
          "name": "spndClaimed",
          "type": "uint256"
        },
        {
          "internalType": "uint256",
          "name": "btcEarned",
          "type": "uint256"
        },
        {
          "internalType": "uint256",
          "name": "btcClaimed",
          "type": "uint256"
        },
        {
          "internalType": "uint256",
          "name": "spndAvailable",
          "type": "uint256"
        },
        {
          "internalType": "uint256",
          "name": "btcAvailable",
          "type": "uint256"
        }
      ],
      "stateMutability": "view",
      "type": "function"
    },
    {
      "inputs": [
        {
          "internalType": "address",
          "name": "user",
          "type": "address"
        }
      ],
      "name": "getUserTransactions",
      "outputs": [
        {
          "internalType": "uint256[]",
          "name": "",
          "type": "uint256[]"
        }
      ],
      "stateMutability": "view",
      "type": "function"
    },
    {
      "inputs": [
        {
          "internalType": "address",
          "name": "",
          "type": "address"
        }
      ],
      "name": "merchants",
      "outputs": [
        {
          "internalType": "string",
          "name": "name",
          "type": "string"
        },
        {
          "internalType": "string",
          "name": "category",
          "type": "string"
        },
        {
          "internalType": "bool",
          "name": "isWhitelisted",
          "type": "bool"
        },
        {
          "internalType": "uint256",
          "name": "maxTransactionLimit",
          "type": "uint256"
        },
        {
          "internalType": "uint256",
          "name": "totalVolume",
          "type": "uint256"
        }
      ],
      "stateMutability": "view",
      "type": "function"
    },
    {
      "inputs": [],
      "name": "owner",
      "outputs": [
        {
          "internalType": "address",
          "name": "",
          "type": "address"
        }
      ],
      "stateMutability": "view",
      "type": "function"
    },
    {
      "inputs": [
        {
          "internalType": "address",
          "name": "merchant",
          "type": "address"
        },
        {
          "internalType": "string",
          "name": "name",
          "type": "string"
        },
        {
          "internalType": "string",
          "name": "category",
          "type": "string"
        },
        {
          "internalType": "uint256",
          "name": "maxTransactionLimit",
          "type": "uint256"
        }
      ],
      "name": "registerMerchant",
      "outputs": [],
      "stateMutability": "nonpayable",
      "type": "function"
    },
    {
      "inputs": [],
      "name": "renounceOwnership",
      "outputs": [],
      "stateMutability": "nonpayable",
      "type": "function"
    },
    {
      "inputs": [
        {
          "internalType": "uint256",
          "name": "amount",
          "type": "uint256"
        }
      ],
      "name": "repay",
      "outputs": [],
      "stateMutability": "nonpayable",
      "type": "function"
    },
    {
      "inputs": [
        {
          "internalType": "address",
          "name": "merchant",
          "type": "address"
        },
        {
          "internalType": "bool",
          "name": "status",
          "type": "bool"
        }
      ],
      "name": "setMerchantWhitelist",
      "outputs": [],
      "stateMutability": "nonpayable",
      "type": "function"
    },
    {
      "inputs": [
        {
          "internalType": "address",
          "name": "user",
          "type": "address"
        },
        {
          "internalType": "bool",
          "name": "status",
          "type": "bool"
        }
      ],
      "name": "setUserCreditStatus",
      "outputs": [],
      "stateMutability": "nonpayable",
      "type": "function"
    },
    {
      "inputs": [
        {
          "internalType": "address",
          "name": "user",
          "type": "address"
        },
        {
          "internalType": "uint256",
          "name": "requestedLimit",
          "type": "uint256"
        },
        {
          "internalType": "uint256",
          "name": "onchainActivity",
          "type": "uint256"
        }
      ],
      "name": "setupUserCredit",
      "outputs": [],
      "stateMutability": "nonpayable",
      "type": "function"
    },
    {
      "inputs": [
        {
          "internalType": "address",
          "name": "user",
          "type": "address"
        },
        {
          "internalType": "uint256",
          "name": "amount",
          "type": "uint256"
        },
        {
          "internalType": "string",
          "name": "purpose",
          "type": "string"
        }
      ],
      "name": "spend",
      "outputs": [],
      "stateMutability": "nonpayable",
      "type": "function"
    },
    {
      "inputs": [],
      "name": "spndToken",
      "outputs": [
        {
          "internalType": "contract ISpendToken",
          "name": "",
          "type": "address"
        }
      ],
      "stateMutability": "view",
      "type": "function"
    },
    {
      "inputs": [
        {
          "internalType": "uint256",
          "name": "",
          "type": "uint256"
        }
      ],
      "name": "transactions",
      "outputs": [
        {
          "internalType": "uint256",
          "name": "id",
          "type": "uint256"
        },
        {
          "internalType": "address",
          "name": "user",
          "type": "address"
        },
        {
          "internalType": "address",
          "name": "merchant",
          "type": "address"
        },
        {
          "internalType": "uint256",
          "name": "amount",
          "type": "uint256"
        },
        {
          "internalType": "uint256",
          "name": "timestamp",
          "type": "uint256"
        },
        {
          "internalType": "string",
          "name": "purpose",
          "type": "string"
        },
        {
          "internalType": "bool",
          "name": "isRepayment",
          "type": "bool"
        },
        {
          "internalType": "uint256",
          "name": "dueDate",
          "type": "uint256"
        },
        {
          "internalType": "bool",
          "name": "isPaid",
          "type": "bool"
        },
        {
          "internalType": "uint256",
          "name": "spndRewards",
          "type": "uint256"
        },
        {
          "internalType": "uint256",
          "name": "btcCashback",
          "type": "uint256"
        }
      ],
      "stateMutability": "view",
      "type": "function"
    },
    {
      "inputs": [
        {
          "internalType": "address",
          "name": "newOwner",
          "type": "address"
        }
      ],
      "name": "transferOwnership",
      "outputs": [],
      "stateMutability": "nonpayable",
      "type": "function"
    },
    {
      "inputs": [],
      "name": "usdcToken",
      "outputs": [
        {
          "internalType": "contract IERC20",
          "name": "",
          "type": "address"
        }
      ],
      "stateMutability": "view",
      "type": "function"
    },
    {
      "inputs": [
        {
          "internalType": "address",
          "name": "",
          "type": "address"
        }
      ],
      "name": "userCredits",
      "outputs": [
        {
          "internalType": "uint256",
          "name": "maxCreditLimit",
          "type": "uint256"
        },
        {
          "internalType": "uint256",
          "name": "availableCredit",
          "type": "uint256"
        },
        {
          "internalType": "uint256",
          "name": "outstandingBalance",
          "type": "uint256"
        },
        {
          "internalType": "uint256",
          "name": "creditScore",
          "type": "uint256"
        },
        {
          "internalType": "uint256",
          "name": "lastPaymentDate",
          "type": "uint256"
        },
        {
          "internalType": "uint256",
          "name": "lastSpendDate",
          "type": "uint256"
        },
        {
          "internalType": "bool",
          "name": "isActive",
          "type": "bool"
        },
        {
          "internalType": "uint256",
          "name": "totalSpent",
          "type": "uint256"
        },
        {
          "internalType": "uint256",
          "name": "totalRepaid",
          "type": "uint256"
        },
        {
          "internalType": "uint256",
          "name": "lateFeesAccrued",
          "type": "uint256"
        },
        {
          "internalType": "uint256",
          "name": "interestAccrued",
          "type": "uint256"
        },
        {
          "internalType": "uint256",
          "name": "spndRewardsEarned",
          "type": "uint256"
        },
        {
          "internalType": "uint256",
          "name": "btcCashbackEarned",
          "type": "uint256"
        },
        {
          "internalType": "uint256",
          "name": "spndRewardsClaimed",
          "type": "uint256"
        },
        {
          "internalType": "uint256",
          "name": "btcCashbackClaimed",
          "type": "uint256"
        }
      ],
      "stateMutability": "view",
      "type": "function"
    },
    {
      "inputs": [
        {
          "internalType": "address",
          "name": "",
          "type": "address"
        },
        {
          "internalType": "uint256",
          "name": "",
          "type": "uint256"
        }
      ],
      "name": "userTransactionIds",
      "outputs": [
        {
          "internalType": "uint256",
          "name": "",
          "type": "uint256"
        }
      ],
      "stateMutability": "view",
      "type": "function"
    },
    {
      "inputs": [],
      "name": "withdraw",
      "outputs": [],
      "stateMutability": "nonpayable",
      "type": "function"
    }
  ],
  "bytecode": "0x60c0346200019557601f62002ef338819003918201601f19168301916001600160401b038311848410176200019a57808492604094855283398101031262000195576200005a60206200005283620001b0565b9201620001b0565b600160008181558154336001600160a01b031982168117909355604051946001600160a01b039493859391929091908416907f8be0079c531659141344cd1fd0a4f28419497f9722a3daafe3b4186f6b6457e09080a316928315620001535750169081156200010e5760805260a052604051612d2d9081620001c68239608051818181610e4a0152818161134801528181611a4901528181611c7e01526123ca015260a051818181611431015261198a0152f35b60405162461bcd60e51b815260206004820152601460248201527f496e76616c69642053504e4420616464726573730000000000000000000000006044820152606490fd5b62461bcd60e51b815260206004820152601460248201527f496e76616c6964205553444320616464726573730000000000000000000000006044820152606490fd5b600080fd5b634e487b7160e01b600052604160045260246000fd5b51906001600160a01b0382168203620001955756fe6080604052600436101561001257600080fd5b60003560e01c8063078b0fb7146124165780630a49cf4d1461195257806311661e3e146123f957806311eac855146123b457806313de53a21461239857806320babb92146122bb57806322b16a701461229b57806333ea3dc8146120f5578063371fd8e614611bc75780633ccfd60b14611a1157806346227037146119b95780634770e3c91461197457806354203e091461195757806356077675146119525780636b0ad6fe1461172e5780636e3f576414610f92578063715018a614610f355780637371f30f14610dcd5780638284befb14610db15780638da5cb5b14610d885780639712c91b14610cb3578063983c82ab14610c6e5780639aa1c64a14610c525780639ace38c214610b88578063a2f7c70d14610b22578063b678339314610b05578063b8e77d7b14610696578063c938dafc14610677578063dfe6b5d614610646578063e3482f4114610627578063e8186e56146105f8578063eaabf09314610376578063ee14e939146102df578063ef9253991461028d578063f2fde38b146101c95763ff9d2e27146101a857600080fd5b346101c45760003660031901126101c4576020604051601e8152f35b600080fd5b346101c45760203660031901126101c4576101e2612494565b6101ea6126fe565b6001600160a01b0390811690811561023957600154826001600160601b0360a01b821617600155167f8be0079c531659141344cd1fd0a4f28419497f9722a3daafe3b4186f6b6457e0600080a3005b60405162461bcd60e51b815260206004820152602660248201527f4f776e61626c653a206e6577206f776e657220697320746865207a65726f206160448201526564647265737360d01b6064820152608490fd5b346101c45760203660031901126101c4576001600160a01b036102ae612494565b1660005260056020526102db6102c7604060002061296d565b604051918291602083526020830190612535565b0390f35b346101c45760203660031901126101c4576001600160a01b03610300612494565b166000526004602052610352604060002061031a81612658565b9061032760018201612658565b60ff60028301541691610360600460038301549201549260405196879660a0885260a08801906124c7565b9086820360208801526124c7565b9215156040850152606084015260808301520390f35b346101c45760603660031901126101c45761038f612494565b6024359061039b6126fe565b6001600160a01b038116156105bc576305f5e10082106105815764174876e80082116105465760407f9041c75488c26967b7ff124314a3051af63a1580f92c595ba3e93a83ad82799e916103fb6103f460443583612b35565b8095612c86565b9382516104078161261b565b858152856020820152600084820152816060820152426080820152600060a0820152600160c0820152600060e08201526000610100820152600061012082015260006101408201526000610160820152600061018082015260006101a082015260006101c082015260018060a01b0383166000526002602052600e6101c085600020928051845560208101516001850155868101516002850155606081015160038501556080810151600485015560a081015160058501556104de60c08201511515600686019060ff801983541691151516179055565b60e0810151600785015561010081015160088501556101208101516009850155610140810151600a850155610160810151600b850155610180810151600c8501556101a0810151600d8501550151910155825194855260208501526001600160a01b031692a2005b60405162461bcd60e51b81526020600482015260136024820152724c696d69742061626f7665206d6178696d756d60681b6044820152606490fd5b60405162461bcd60e51b81526020600482015260136024820152724c696d69742062656c6f77206d696e696d756d60681b6044820152606490fd5b60405162461bcd60e51b8152602060048201526014602482015273496e76616c69642075736572206164647265737360601b6044820152606490fd5b346101c45760203660031901126101c457604061061b610616612494565b6129bc565b82519182526020820152f35b346101c45760003660031901126101c4576020604051633b9aca008152f35b346101c45760003660031901126101c457608060405160008152600060208201526000604082015260006060820152f35b346101c45760003660031901126101c45760206040516305f5e1008152f35b346101c45760803660031901126101c4576106af612494565b6024356001600160401b0381116101c4576106ce903690600401612569565b91906044356001600160401b0381116101c4576106ef903690600401612569565b9390926106fa6126fe565b6001600160a01b03811615610ac0578115610a82576040519460a086018681106001600160401b038211176109a55760405261073736848661280e565b865261074436828761280e565b60208701526000604087015260643560608701526000608087015260018060a01b0382166000526004602052604060002086518051906001600160401b0382116109a557819061079484546125c5565b601f8111610a32575b50602090601f83116001146109c6576000926109bb575b50508160011b916000199060031b1c19161781555b60208701519687516001600160401b0381116109a5576107ec60018401546125c5565b601f811161095e575b506020601f82116001146108c2576108b295949392826004936080937f7476726b1d8882ab8352f5af9fb6c3dfab81c79b6a107ef114d5472393a759539c9d6000926108b7575b50508160011b916000199060031b1c19161760018501555b61087360408201511515600286019060ff801983541691151516179055565b6060810151600385015501519101556108996040519586956040875260408701916128f6565b84810360208601526001600160a01b03909216966128f6565b0390a2005b015190508d8061083c565b6001840160005260206000209960005b601f19841681106109465750926001837f7476726b1d8882ab8352f5af9fb6c3dfab81c79b6a107ef114d5472393a759539b9c6080946108b29a999897600497601f1981161061092d575b505050811b016001850155610854565b015160001960f88460031b161c191690558d808061091d565b828201518c556001909b019a602092830192016108d2565b600184016000526020600020601f830160051c81016020841061099e575b601f830160051c820181106109925750506107f5565b6000815560010161097c565b508061097c565b634e487b7160e01b600052604160045260246000fd5b0151905089806107b4565b9250836000526020600020906000935b601f1984168510610a17576001945083601f198116106109fe575b505050811b0181556107c9565b015160001960f88460031b161c191690558980806109f1565b818101518355602094850194600190930192909101906109d6565b909150836000526020600020601f840160051c810160208510610a7b575b90849392915b601f830160051c82018110610a6c57505061079d565b60008155859450600101610a56565b5080610a50565b60405162461bcd60e51b815260206004820152601660248201527513595c98da185b9d081b985b59481c995c5d5a5c995960521b6044820152606490fd5b60405162461bcd60e51b815260206004820152601860248201527f496e76616c6964206d65726368616e74206164647265737300000000000000006044820152606490fd5b346101c45760003660031901126101c45760206040516105dc8152f35b346101c45760203660031901126101c4576001600160a01b03610b43612494565b16600052600660205260a06040600020805490600181015490600281015460046003830154920154926040519485526020850152604084015260608301526080820152f35b346101c45760203660031901126101c45760043560005260036020526040600020805460018060a01b03918260018201541692600282015416600382015491600481015492610bd960058301612658565b93610c2d60ff6006850154169560078501549260ff60088701541694600a6009880154970154976040519b8c9b8c5260208c015260408b015260608a015260808901526101608060a08a01528801906124c7565b94151560c087015260e086015215156101008501526101208401526101408301520390f35b346101c45760003660031901126101c457602060405160328152f35b346101c457610cb1610c7f36612596565b90610c886126fe565b60018060a01b0316600052600260205260066040600020019060ff801983541691151516179055565b005b346101c457610cc136612596565b90610cca6126fe565b60018060a01b031690816000526004602052610cea6040600020546125c5565b15610d435760207ff9695fa7a4a836707ecab51a8a8622de8e7ff1c77a40da1935e9cdbd4260ce30918360005260048252610d388160026040600020019060ff801983541691151516179055565b6040519015158152a2005b60405162461bcd60e51b815260206004820152601760248201527f4d65726368616e74206e6f7420726567697374657265640000000000000000006044820152606490fd5b346101c45760003660031901126101c4576001546040516001600160a01b039091168152602090f35b346101c45760003660031901126101c457602060405160648152f35b346101c45760003660031901126101c457610de6612917565b33600052602060028152604060002090600e600c8301549201610e0b8154809461288e565b928315610ef05783610e1c91612801565b905560405163a9059cbb60e01b81523360048201526024810183905290808260448160006001600160a01b037f0000000000000000000000000000000000000000000000000000000000000000165af1918215610ee4577fd3c14526b5dcefb77a6af86a722718191295da83ccc21809a97ed38c3bc8b97692610ea791600091610eb7575b506128b3565b6040519283523392a26001600055005b610ed79150833d8511610edd575b610ecf8183612637565b81019061289b565b85610ea1565b503d610ec5565b6040513d6000823e3d90fd5b60405162461bcd60e51b815260048101849052601860248201527f4e6f2042544320636173686261636b20746f20636c61696d00000000000000006044820152606490fd5b346101c45760003660031901126101c457610f4e6126fe565b600180546001600160a01b031981169091556000906001600160a01b03167f8be0079c531659141344cd1fd0a4f28419497f9722a3daafe3b4186f6b6457e08280a3005b346101c45760603660031901126101c457610fab612494565b6044356001600160401b0381116101c457610fca903690600401612569565b9033600052600460205260ff60026040600020015416156116e9576001600160a01b03831660009081526002602052604090206006015460ff16156116ab576110166024351515612756565b61102964174876e80060243511156127a2565b611031612917565b60018060a01b03831660005260026020526040600020903360005260046020526040600020926024356001840154106116705760038401546024351161163257633b9aca0060078401540460328102908082046032149015171561161c578060640160641161161c576110ac612710916064016024356127ee565b04936024356019602435020460191460243515171561161c57600160075401938460075562278d004201421161161c576040516110e8816125ff565b8581526001600160a01b0388166020820152336040820152602435606082015242608082015261111936858761280e565b60a0820152600060c082015262278d00420160e082015260006101008201528661012082015261271060196024350204610140820152856000526003602052604060002090805182556001820160018060a01b03602083015116906001600160601b0360a01b9182825416179055600283019060018060a01b0360408401511690825416179055606081015160038301556080810151600483015560a08101518051906001600160401b0382116109a5576111d760058501546125c5565b601f81116115d5575b50602090601f831160011461155857600496959383600c9694600a946101409460009261154d575b50508160011b916000199060031b1c19161760058501555b61123f60c08201511515600686019060ff801983541691151516179055565b60e081015160078501556112696101008201511515600886019060ff801983541691151516179055565b6101208101516009850155015191015560018060a01b0389166000526005602052611298876040600020612854565b6112a8602435600183015461288e565b6001820155600281016112be6024358254612801565b90554260058201556112d66024356007830154612801565b6007820155600b81016112ea898254612801565b905501611301612710601960243502048254612801565b9055016113116024358254612801565b90556040516323b872dd60e01b81523060048201523360248083019190915235604482015260208160648160006001600160a01b037f0000000000000000000000000000000000000000000000000000000000000000165af18015610ee4576113819160009161152e57506128b3565b83611400575b6113c67fa0881164b8aee5df47056b7ca63d30cac436f45555e33665f95bf3eac8caa1b99260405192602435845260a0602085015260a08401916128f6565b4262278d00016040830152606082019490945261271060243560190204608082015233946001600160a01b03169381900390a46001600055005b6040516340c10f1960e01b81526001600160a01b0386166004820152602481018590526020818060448101038160007f00000000000000000000000000000000000000000000000000000000000000006001600160a01b03165af1908115610ee45760009161150f575b50156114d7576113c67fa0881164b8aee5df47056b7ca63d30cac436f45555e33665f95bf3eac8caa1b9926040518681528560208201527f9cbf5aabed084bcc07e28417e9aa86f51f9bb81331f0fe3361271085fa0a62f8604060018060a01b038a1692a2925050611387565b60405162461bcd60e51b815260206004820152601060248201526f14d41391081b5a5b9d0819985a5b195960821b6044820152606490fd5b611528915060203d602011610edd57610ecf8183612637565b8661146a565b611547915060203d602011610edd57610ecf8183612637565b87610ea1565b015190508f80611208565b906005850160005260206000209160005b601f19851681106115bd575093600184600a946101409460049b9a98600c9a98601f198116106115a4575b505050811b016005850155611220565b015160001960f88460031b161c191690558f8080611594565b91926020600181928685015181550194019201611569565b600585016000526020600020601f840160051c810160208510611615575b601f830160051c820181106116095750506111e0565b600081556001016115f3565b50806115f3565b634e487b7160e01b600052601160045260246000fd5b60405162461bcd60e51b8152602060048201526016602482015275115e18d959591cc81b595c98da185b9d081b1a5b5a5d60521b6044820152606490fd5b60405162461bcd60e51b8152602060048201526013602482015272125b9cdd59999a58da595b9d0818dc99591a5d606a1b6044820152606490fd5b60405162461bcd60e51b81526020600482015260166024820152755573657220637265646974206e6f742061637469766560501b6044820152606490fd5b60405162461bcd60e51b815260206004820152601860248201527f4d65726368616e74206e6f742077686974656c697374656400000000000000006044820152606490fd5b346101c45760203660031901126101c4576101c061174a612494565b6000826040516117598161261b565b8281528260208201528260408201528260608201528260808201528260a08201528260c08201528260e08201528261010082015282610120820152826101408201528261016082015282610180820152826101a082015201526117bb816129bc565b9160018060a01b03166000526002602052604060002091600560205261194161188d6040600020600e604051966117f18861261b565b8054885260018101546020890152600281015460408901526003810154606089015260048101546080890152600581015460a089015260ff600682015416151560c0890152600781015460e089015260088101546101008901526009810154610120890152600a810154610140890152600b810154610160890152600c810154610180890152600d8101546101a089015201548787015261296d565b604051958587965187526020810151602088015260408101516040880152606081015160608801526080810151608088015260a081015160a088015260c0810151151560c088015260e081015160e08801526101008101516101008801526101208101516101208801526101408101516101408801526101608101516101608801526101808101516101808801526101a08101516101a088015201516101c0860152610240806101e0870152850190612535565b916102008401526102208301520390f35b6124aa565b346101c45760003660031901126101c45760206040516103528152f35b346101c45760003660031901126101c4576040517f00000000000000000000000000000000000000000000000000000000000000006001600160a01b03168152602090f35b346101c45760403660031901126101c4576119d2612494565b6001600160a01b03166000908152600560205260409020805460243591908210156101c457602091611a0391612507565b90546040519160031b1c8152f35b346101c45760003660031901126101c457611a2a6126fe565b6040516370a0823160e01b815230600482015260206001600160a01b037f000000000000000000000000000000000000000000000000000000000000000081168284602481845afa938415610ee457600094611b98575b508315611b5d5760015460405163a9059cbb60e01b81529083166001600160a01b03166004820152602481018590529083908290816000816044810103925af1908115610ee457600091611b40575b5015611b0757907f7fcf532c15f0a6db0bd6d0e038bea71d30d808c7d98cb3bf7268a95bf5081b65916001541692604051908152a2005b60405162461bcd60e51b815260048101839052601160248201527015da5d1a191c985dd85b0819985a5b1959607a1b6044820152606490fd5b611b579150833d8511610edd57610ecf8183612637565b84611ad0565b60405162461bcd60e51b81526004810184905260136024820152724e6f205553444320746f20776974686472617760681b6044820152606490fd5b9093508281813d8311611bc0575b611bb08183612637565b810103126101c457519284611a81565b503d611ba6565b346101c45760203660031901126101c457611be56004351515612756565b611bf864174876e80060043511156127a2565b611c00612917565b336000526002602052604060002060ff600682015416156120bc5760043560028201541061207757611c786020611c4b611c46611c3c336129bc565b9190600435612801565b612801565b6040516323b872dd60e01b8152336004820152306024820152604481019190915291829081906064820190565b038160007f00000000000000000000000000000000000000000000000000000000000000006001600160a01b03165af18015610ee457611cbf9160009161205857506128b3565b6001600754018060075560405191611cd6836125ff565b8183523360208401526000604084015260043560608401524260808401526040518060408101106001600160401b036040830111176109a55760408101604052601081526f10dc99591a5d0814995c185e5b595b9d60821b602082015260a0840152600160c0840152600060e08401526001610100840152600061012084015260006101408401528160005260036020526040600020835181556001810160018060a01b03602086015116906001600160601b0360a01b9182825416179055600282019060018060a01b0360408701511690825416179055606084015160038201556080840151600482015560a08401518051906001600160401b0382116109a557611de560058401546125c5565b601f8111612011575b50602090601f8311600114611f98579582600a936101409360029899600092611f8d575b50508160011b916000199060031b1c19161760058501555b611e4960c08201511515600686019060ff801983541691151516179055565b60e08101516007850155611e736101008201511515600886019060ff801983541691151516179055565b61012081015160098501550151910155336000526005602052611e9a836040600020612854565b611ea96004358383015461288e565b8282015560018101611ebe6004358254612801565b905542600482015560088101611ed76004358254612801565b90556000600a820155600060098201553360005281602052604060002060078101546003611f058233612b35565b920180548303611f51575b50505001549060405191600435835260208301527fb3dc754e3cd0adca79aedb0cf9cbcada6b0ed980dbb9d384b635f283985b968760403393a36001600055005b82905560405191825260208201527f4f43648f37bc26ee5bc39c60c1c1e2481a9fb9feb9f86419c91b4645585ff3bc60403392a2838080611f10565b015190508980611e12565b906005840160005260206000209160005b601f1985168110611ff9575083610140936002989993600193600a97601f19811610611fe0575b505050811b016005850155611e2a565b015160001960f88460031b161c19169055898080611fd0565b91926020600181928685015181550194019201611fa9565b600584016000526020600020601f840160051c810160208510612051575b601f830160051c82018110612045575050611dee565b6000815560010161202f565b508061202f565b612071915060203d602011610edd57610ecf8183612637565b83610ea1565b60405162461bcd60e51b815260206004820152601c60248201527f526570617920616d6f756e7420657863656564732062616c616e6365000000006044820152606490fd5b60405162461bcd60e51b8152602060048201526011602482015270437265646974206e6f742061637469766560781b6044820152606490fd5b346101c45760203660031901126101c4576000610140604051612117816125ff565b828152826020820152826040820152826060820152826080820152606060a08201528260c08201528260e08201528261010082015282610120820152015260043560005260036020526040600020600a60405191612174836125ff565b8054835260018101546001600160a01b039081166020850152600282015416604084015260038101546060840152600481015460808401526121b860058201612658565b60a084015260ff600682015416151560c0840152600781015460e084015260ff6008820154161515610100840152600981015461012084015201546101408201526040518091602082528051602083015260018060a01b03602082015116604083015260018060a01b03604082015116606083015260608101516080830152608081015160a083015260a0810151610140612261610160928360c08701526101808601906124c7565b9260c0810151151560e086015260e08101516101008601526101008101511515610120860152610120810151828601520151908301520390f35b346101c45760003660031901126101c457602060405164174876e8008152f35b346101c45760203660031901126101c4576001600160a01b036122dc612494565b166000526002602052604060002080546001820154916002810154600382015460048301546005840154600685015460ff166007860154600887015491600988015493600a89015495600b8a015497600c8b015499600d8c01549b600e01549c6040519e8f91825260208201526040015260608d015260808c015260a08b0152151560c08a015260e08901526101008801526101208701526101408601526101608501526101808401526101a08301526101c08201526101e090f35b346101c45760003660031901126101c457602060405160198152f35b346101c45760003660031901126101c4576040517f00000000000000000000000000000000000000000000000000000000000000006001600160a01b03168152602090f35b346101c45760003660031901126101c45760206040516101f48152f35b346101c45760203660031901126101c4576001600160a01b03612437612494565b16600052600260205260c06040600020600b81015490600d81015490600e600c820154910154612467838561288e565b91612472828261288e565b93604051958652602086015260408501526060840152608083015260a0820152f35b600435906001600160a01b03821682036101c457565b346101c45760003660031901126101c457602060405161012c8152f35b919082519283825260005b8481106124f3575050826000602080949584010152601f8019910116010190565b6020818301810151848301820152016124d2565b805482101561251f5760005260206000200190600090565b634e487b7160e01b600052603260045260246000fd5b90815180825260208080930193019160005b828110612555575050505090565b835185529381019392810192600101612547565b9181601f840112156101c4578235916001600160401b0383116101c457602083818601950101116101c457565b60409060031901126101c4576004356001600160a01b03811681036101c4579060243580151581036101c45790565b90600182811c921680156125f5575b60208310146125df57565b634e487b7160e01b600052602260045260246000fd5b91607f16916125d4565b61016081019081106001600160401b038211176109a557604052565b6101e081019081106001600160401b038211176109a557604052565b90601f801991011681019081106001600160401b038211176109a557604052565b906040519182600082549261266c846125c5565b9081845260019485811690816000146126db5750600114612698575b505061269692500383612637565b565b9093915060005260209081600020936000915b8183106126c357505061269693508201013880612688565b855488840185015294850194879450918301916126ab565b91505061269694506020925060ff191682840152151560051b8201013880612688565b6001546001600160a01b0316330361271257565b606460405162461bcd60e51b815260206004820152602060248201527f4f776e61626c653a2063616c6c6572206973206e6f7420746865206f776e65726044820152fd5b1561275d57565b60405162461bcd60e51b815260206004820152601d60248201527f416d6f756e74206d7573742062652067726561746572207468616e20300000006044820152606490fd5b156127a957565b60405162461bcd60e51b815260206004820152601c60248201527f416d6f756e742065786365656473206d6178696d756d206c696d6974000000006044820152606490fd5b8181029291811591840414171561161c57565b9190820180921161161c57565b9291926001600160401b0382116109a55760405191612837601f8201601f191660200184612637565b8294818452818301116101c4578281602093846000960137010152565b8054680100000000000000008110156109a55761287691600182018155612507565b819291549060031b91821b91600019901b1916179055565b9190820391821161161c57565b908160209103126101c4575180151581036101c45790565b156128ba57565b60405162461bcd60e51b81526020600482015260146024820152731554d110c81d1c985b9cd9995c8819985a5b195960621b6044820152606490fd5b908060209392818452848401376000828201840152601f01601f1916010190565b600260005414612928576002600055565b60405162461bcd60e51b815260206004820152601f60248201527f5265656e7472616e637947756172643a207265656e7472616e742063616c6c006044820152606490fd5b9060405191828154918282526020928383019160005283600020936000905b8282106129a25750505061269692500383612637565b85548452600195860195889550938101939091019061298c565b6000809160018060a01b03169081835260209160028352604092838520936002850154928315612b2a57906129ff9291600480970154620151809485914261288e565b04948060021b9081048803612b1757612a1c6127109687926127ee565b049088526005808452612a30838a2061296d565b91895b8351811015612b09578581841b850101518b526003808752858c209060ff80600684015416159081612afa575b5080612aed575b612a92575b50506000198114612a7f57600101612a33565b634e487b7160e01b8b5260118a5260248bfd5b88612aa46007849d959d01544261288e565b049101546101f490818102918183041490151715612ada57612acb612ad293928b926127ee565b0490612801565b973880612a6c565b634e487b7160e01b8d5260118c5260248dfd5b5060078201544211612a67565b90506008830154161538612a60565b509997505050505050509150565b634e487b7160e01b895260118852602489fd5b505050505050908190565b6101f4916103e8811115612c5957509060c8810180911161161c57905b6001600160a01b031660009081526002602052604081206007810154908115908115612ba4575b5050505061012c808210612b9c575b50610352808211612b97575090565b905090565b905038612b88565b6008015490606482029180830460641490151715612c4557612c315704605f811115612bf5575060648201809211612be157505b38808080612b79565b634e487b7160e01b81526011600452602490fd5b6050811115612c10575060328201809211612be15750612bd8565b603211612c1e575b50612bd8565b6063198201918211612be1575038612c18565b634e487b7160e01b83526012600452602483fd5b634e487b7160e01b84526011600452602484fd5b82811115612c745750906064810180911161161c5790612b52565b60641015612b52576102269150612b52565b906102ee811015612cf35761028a811015612cd8576102261115612cbe5760288102908082046028149015171561161c576064900490565b603c810290808204603c149015171561161c576064900490565b5060508102908082046050149015171561161c576064900490565b509056fea2646970667358221220ba4356b8e6a176745457987ddd25781a38fc62c0f03659cfba802d15b6bc1bc064736f6c63430008140033",
  "linkReferences": {},
  "deployedLinkReferences": {}
}